:020000040000fa
:080000000002040000000000f2
:020000040000fa
:10000800d8020000d8020000a42e0000b02e000084
:10001800b22e0000d8020000d8020000d80200006a
:100028001e290000d8020000d80200002234000077
:10003800d8020000d8020000d8020000d802000050
:10004800d8020000d8020000d8020000d802000040
:10005800d8020000d8020000d8020000d802000030
:10006800d8020000d8020000d8020000d802000020
:1000780044290000d8020000d8020000d80200007d
:10008800d8020000d8020000d8020000d802000000
:10009800d80200006a290000d8020000d802000037
:1000a800d8020000d8020000d8020000d8020000e0
:1000b800d8020000d8020000d8020000d8020000d0
:1000c800d8020000d8020000d8020000d8020000c0
:1000d800d8020000d8020000d8020000d8020000b0
:1000e800d8020000d8020000d8020000d8020000a0
:1000f800d8020000d8020000d8020000d802000090
:10010800d8020000d8020000d8020000d80200007f
:10011800d8020000d8020000d8020000d80200006f
:10012800d8020000d8020000d8020000d80200005f
:10013800d8020000d8020000d8020000d80200004f
:10014800d8020000d8020000d8020000d80200003f
:10015800d8020000d8020000d8020000d80200002f
:10016800d8020000d8020000d8020000d80200001f
:10017800d8020000d8020000d8020000d80200000f
:10018800d8020000d8020000d8020000d8020000ff
:10019800d8020000d8020000d8020000d8020000ef
:1001a800d8020000d8020000d8020000d8020000df
:1001b800d8020000d8020000d8020000d8020000cf
:1001c800d8020000d8020000d8020000d8020000bf
:1001d800d8020000d8020000d8020000d8020000af
:1001e800d8020000d8020000d8020000d80200009f
:0801f800d8020000d80200004b
:020000040000fa
:10020800d8020000d8020000a42e0000b02e000082
:10021800b22e0000d8020000d8020000d802000068
:100228001e290000d8020000d80200002234000075
:10023800d8020000d8020000d8020000d80200004e
:10024800d8020000d8020000d8020000d80200003e
:10025800d8020000d8020000d8020000d80200002e
:10026800d8020000d8020000d8020000d80200001e
:1002780044290000d8020000d8020000d80200007b
:10028800d8020000d8020000d8020000d8020000fe
:10029800d80200006a290000d8020000d802000035
:1002a800d8020000d8020000d8020000d8020000de
:1002b800d8020000d8020000d8020000d8020000ce
:1002c800d8020000d8020000d8020000d8020000be
:1002d800d8020000d8020000d8020000d8020000ae
:1002e800d8020000d8020000d8020000d80200009e
:1002f800d8020000d8020000d8020000d80200008e
:10030800d8020000d8020000d8020000d80200007d
:10031800d8020000d8020000d8020000d80200006d
:10032800d8020000d8020000d8020000d80200005d
:10033800d8020000d8020000d8020000d80200004d
:10034800d8020000d8020000d8020000d80200003d
:10035800d8020000d8020000d8020000d80200002d
:10036800d8020000d8020000d8020000d80200001d
:10037800d8020000d8020000d8020000d80200000d
:10038800d8020000d8020000d8020000d8020000fd
:10039800d8020000d8020000d8020000d8020000ed
:1003a800d8020000d8020000d8020000d8020000dd
:1003b800d8020000d8020000d8020000d8020000cd
:1003c800d8020000d8020000d8020000d8020000bd
:1003d800d8020000d8020000d8020000d8020000ad
:1003e800d8020000d8020000d8020000d80200009d
:0803f800d8020000d802000049
:020000040000fa
:10040000efa521000e7f22000e01880000000000f1
:1004100000012000200288000c0007000099220043
:100420000100200011000700000020000000e00093
:10043000020032000000020000000000b42e0200a2
:10044000000000000040da000000fe004440a90067
:10045000404520000000e0000300320000002000c2
:10046000a00188004440a800000006009101880017
:10047000800078000000eb0015003700e2804000ab
:1004800032a0b4009101ba00e280400032a0b40072
:100490009102ba00e280400032a0b4000002eb00fa
:1004a000472bde00f507b200602ce10004003a00a3
:1004b0000059eb008301e900fdff3e000400370016
:1004c0006128e100010032000082eb000400070017
:1004d0001101ba000200e000e8ff3a000000060047
:1004e0003159ba008301e9000c0032002159ba00e9
:1004f0008301e900080032000400e00003003a0034
:10050000e280400032a0b400f5ff370011d9ba00f4
:100510008301e900faff3a008100e800e180400031
:1005200032a0b4000000060000000000000000003f
:1005300000000000000000000000000000000000bb
:1005400000000000000000000000000000000000ab
:10055000000000000000000000000000000000009b
:10056000000000000000000000000000000000008b
:10057000000000000000000000000000000000007b
:10058000000000000000000000000000000000006b
:10059000000000000000000000000000000000005b
:1005a000000000000000000000000000000000004b
:1005b0000040da000000fe00e68747008e1f78004a
:1005c000d0bf9f0066875700012f78000e003700cc
:1005d0005fbb970016407800efba9700154278008d
:1005e0000201e900844f5000040032000080fb004b
:1005f0000482fb0004005000060037000603e800f8
:10060000d6bf9f00050fe800e00f5100f0ff3a0051
:10061000020078004f0778006f00b100000006006c
:100620000002780002003700315a78000201e90028
:10063000e00f5100fcff3a000000060000027800c5
:1006400002003700015a78000201e900e00f510072
:10065000fcff3a0000000600889fbe000004be00b8
:10066000050037000000fb0089007800c302070086
:10067000e10f40000400320038407800e04f5000a5
:10068000f8ff3a000000eb004f04be000000060037
:10069000881f7800c1a32100efff07000004780045
:1006a000c1a32100a0002000b402070008007800c8
:1006b0004f04780000000600b042780031c25200ba
:1006c00002003a00e0cf5200fbff3a000400fb00ba
:1006d00000000600c1a32100a80237000000fa00b4
:1006e00068815700cfb89700c0a321001800070009
:1006f0000080fa00000006000c00fa00889fbe008f
:1007000000047800f4ff2700d4bf9f008004eb00b2
:1007100099bf9f0088bf9f00a8bf9f00240c2000a6
:10072000b4bf9f0078815700cfb09700708057000a
:10073000070007000fba9700094a78000fba970020
:10074000080052004f04be000080fa0000000600be
:100750002f03b000889fbe008a9fbe008c9fbe0002
:100760008e1f7800e0af9f00c1af9f00b2b79f001f
:100770008006eb006e023700cfa897008100e800ea
:10078000c1af9f0054c2b300844f500006003a002e
:10079000010278000006eb0001c3b30000c2b30001
:1007a000b7c2b300070037000000fb00efa89700b6
:1007b00072020700e10f40005d0232008d06e80082
:1007c0005b0237008402780034437800d2c2b30061
:1007d000824f53000900320005003c00804f530057
:1007e00008003200874f53000c003a000700370022
:1007f000814f530009003a00060037000c30a0007a
:10080000f0ff37000c00a000eeff37000c10a00036
:10081000ecff37000c20a000eaff37006202660000
:10082000010032000c00a1006802660001003200e5
:100830000c20a1000602fb000403b100e90f5200e6
:100840000c003e00050378000002eb006a22b900ac
:10085000b603fb000703b100048243008602780060
:100860009603fb000703b100e98f5300f7ff360042
:10087000080037000002eb00a7c2b300874f530007
:1008800004003a00bfb1970043027800b3b79f005d
:100890008502e8000007eb00e6c2b300954f1300a5
:1008a0000a003a000ce0a00064435300d54f130047
:1008b0000200320005037800080037003fb39700bc
:1008c00046077800b6b79f008502e8000503780068
:1008d000080037006a70b90000874300860278007c
:1008e000b603fb000703b100e98f5300f9ff3600a0
:1008f000f6ff3700b6427800c6af9f00c0c6b3000f
:1009000080cf5200250032000f003c0036c6b300f5
:1009100086cf52006e00320004003c00e0cf52004f
:10092000080232006b4353000f00370046c6b30085
:1009300086cf5200170032006543430086cf520035
:1009400083003a001300370036c7b30086cf520049
:100950001f00320007003c006443530086cf520062
:10096000140032000643e80086cf520078003a00b7
:100970001300370056c7b30086cf5200790032000b
:100980006343430086cf520071003a00a5c79f0021
:100990000d003700a5c79f0074003700f003660004
:1009a0000501200001003200050028000506760040
:1009b000d0ff3700a5c79f000c60a0006b00370078
:1009c000a5c79f000c50a0000c70a0006700370066
:1009d000a5c79f00bfb09700c1027800b1b79f00c4
:1009e00005047800e08f520001003a0088a221003f
:1009f000080378008002eb00010037008502e80060
:100a0000e6c37a00e0cf5300fcff3a00850478008b
:100a1000e00f570003003200890f5700010031003a
:100a20008e0478000007eb00890f520001003600a9
:100a3000090752006806660014003a0007003700f4
:100a4000efa8970000022000cc010700e10f400052
:100a5000010032008d06e8000e07e900e00f5700a4
:100a6000f7ff3a000087eb00080037000802780023
:100a70003400fb0004047800efa89700bf010700d2
:100a8000e10f4000010032008d06e8000902780005
:100a90008404e900e00f5200f4ff3a00e00f560032
:100aa000a301320007003700efa8970000022000e2
:100ab000b2010700e10f4000010032008d06e8009e
:100ac0000e07e900e00f5700f7ff3a0098013700e2
:100ad0003fb19700c2027800b2b79f0005007800ce
:100ae000cf80de000101780082017800f0af9f0026
:100af00081b79f0092b79f00a3b79f004800de0018
:100b0000c80add0000807200a0c79f007003660065
:100b100009003200e04f500007003200e14f400072
:100b200005003200b0c79f006fdb9700c6c79f006b
:100b30002900200003003700efdb9700b7c79f00b4
:100b40001900200038fc2f000f044400b0ff3700cc
:100b5000a5c79f0028fc2f000f04440019002000a7
:100b6000abff3700a5c79f000c0cb3008c027800c8
:100b7000050cb2002b003a00e00f560005003d00c6
:100b80003fb097004005be004004be00b0b79f00d4
:100b900017003700f00266000f003200bfb2970066
:100ba0004501be00b5b79f00c2a79f00d3a79f0015
:100bb0000503780096029000cfaade00e5a79f000b
:100bc000f5a79f004fa49700dfa497006fa597009b
:100bd000ffa59700060037003fb09700400478005b
:100be000b0b79f00cfc4de00090578008a05780001
:100bf000e00f5400e08f5c00e00f5d00e08f5d00cf
:100c000025003d003c00b3006000b8006011b80052
:100c100008045000898458000a0559008b85590042
:100c20001d003700e00f560005003d00bfb09700e3
:100c30004105be004104be00b1b79f001600370059
:100c4000f00266000e003200bfb297004501be0000
:100c5000b5b79f0082af9f0093af9f000003eb00ea
:100c6000a6af9f008003eb00b7af9f000fac9700cb
:100c70009fac97002fad9700bfad970006003700df
:100c80003fb0970040047800b0b79f0009002000f3
:100c90000a0020000b002000e00f570007003a0078
:100ca0001e002000e00f5400e08f5c00e00f5d00ac
:100cb000e08f5d00010032000007eb008c0078003f
:100cc000010cb200f1af9f0005042000858f500099
:100cd0002c00320003003c00e08f5000080032007e
:100ce0003c003700050820007fa99700850f5100c0
:100cf00010003200050c2000850f510035003a002d
:100d0000e696210015c0b3003600be003601be00d5
:100d10000040e10001c8e10002d0e10003d8e10099
:100d20002b0039008542e800f4cf5200f6ff3a006c
:100d30002700370015c0b30000012000010020008b
:100d40006011b8000040e10001c8e10002d0e100fc
:100d500003d8e1001e003900460020000000d0004a
:100d60008180d2000281d2008381d2000603e90093
:100d7000faff3a008542e800f0cf5200f1ff3a0056
:100d80001300370015c0b3008000200001002000d0
:100d90006011b8000040e10001c8e10002d0e100ac
:100da00003d8e1000a003900370020000000d0001d
:100db0008180d2000281d2008381d2008703e900c2
:100dc000faff3a008542e800f5cf5200f1ff3a0001
:100dd000a5c79f002fc097008002fb008e8f520096
:100de00002003d00aec79f0003003700850f57008b
:100df00001003d0005077800e00f520003003200bb
:100e0000e3026600010032000402e900050024004c
:100e100085026600050032008e0f52000200340089
:100e20000e025200010037000002eb002fc19700b4
:100e30008202fb008001eb00d3af9f00850f5200c0
:100e40000200340085025200d5af9f0064026600a4
:100e50002c003200e202660061026600e08f520060
:100e600006003200b0022000e00f52000100320004
:100e70000080e800efa8970004003700e00f520060
:100e800006003200efa8970000022000bb00070018
:100e9000e10f4000010032008d06e8005faa9700d4
:100ea000e00f52008d0032000802be000a03be00af
:100eb000dfac9700efa8970000032000c4b79f00a5
:100ec000d5b79f00e6b79f00f7b79f00ab000700bc
:100ed0004fb29700dfb297006fb39700ffb3970050
:100ee000e10f4000010032008d06e8008904e900ae
:100ef000f0ff3a00d9af9f000605be000404be0013
:100f000076003700dfaa9700e08f52001800320009
:100f10006802660016003a000802be000a03be001e
:100f2000dfac9700efa8970000022000c4b79f0035
:100f3000d5b79f00e6b79f00f7b79f008f00070067
:100f40004fb29700dfb297006fb39700ffb39700df
:100f5000e10f4000010032008d06e8008904e9003d
:100f6000f0ff3a00d9af9f000605be000404be00a2
:100f7000e202660061026600e08f52000600320065
:100f8000b0022000e00f5200010032000080e800b3
:100f9000efa8970004003700e00f52004f00320026
:100fa000efa897000002200074000700e10f400046
:100fb0004a0032008d06e800480037000e07e900bd
:100fc0007fab970007042000870f53002d003200ed
:100fd00003003c00e00f53000800320037003700e8
:100fe000040820007fae9700840f560012003200e4
:100ff000040c2000840f560030003a004372dd00dc
:1010000060962100000242005403be004402be006c
:101010000800be000a01be00bb010700a4002000ba
:10102000050020006033b800be01070004c3b30010
:10103000044240002000370074a12100bfa29700a5
:10104000e08f52000100320064a02100c272dd0076
:101050000800be000a01be008502e9000500330059
:101060008301d1000281d3008180d3000080d300ae
:10107000f9ff37006f00600064407800a0c79f0050
:101080000e0037006372b9000800be000a01be00fe
:10109000040678000c06e900050033008301d10046
:1010a0000281d3008180d3000080d300f9ff370094
:1010b000674260000443b000a4c79f00afc0970020
:1010c0000100fb00efa897002c000700e10f400093
:1010d000060032008d06e800040037000c0178009d
:1010e0000202b200b2a79f008cbf9f00e00f570022
:1010f000b2ff3a000fbe9700680666000c0032008f
:10110000dfa99700e08f5100090034000306780042
:10111000efa897000002200018000700e10f400030
:10112000010032008d06e8000c06e900f8ff3a00e5
:101130004faa970014407800a0c79f00e04f5000ce
:101140008dfd3a000d0078004f0778004f06be0075
:101150004f05be004f04be002f03b1000000060083
:101160000000fa0068815700cfb89700c0a32100a3
:1011700077fd07000080fa0000000600889fbe008f
:101180000104780038029000e20262008084eb00e3
:101190003b003200040378000620b2009802900061
:1011a00002003a00e08f520035003a000490a0009f
:1011b0003404980080047800f90fb200e08f5200e8
:1011c00002003a00a8029000050c7800ea8f540053
:1011d00005003a000408b20003003a0088007800d5
:1011e000d0002000e5ff070018029000d802900010
:1011f000850f52000b0032000402e800140498002e
:1012000018027800094a7800040ce80015c0b30001
:1012100064a52100054a7800ea8f540018003a00be
:1012200005003700880078000940780017000700a3
:101230008004780012003700380290000410b200d9
:101240000f00320018019000a800900048009000a4
:101250005200070018029000840f50000400320072
:10126000380290000403b300340498008084eb003b
:101270000002eb001404980028029000040c78008f
:10128000090078004f04be00000006000200fa00ca
:10129000889fbe00a0ff9f000104780038029000e4
:1012a000840278000504b200020032000000fb0056
:1012b00035003700e202620005003a000403b30083
:1012c00034049800150498000080eb002e003700cd
:1012d000d8049000e08f540006003a00120020006d
:1012e000e6805700480090002c0007001904980081
:1012f00023003700a8029000e08f520008003a0057
:1013000095a5210025049800050c780025002000f3
:1013100055049800150498000430a0003404980087
:1013200018019000a8009000480090001b000700e2
:10133000280290008082eb0015049800affa970015
:10134000054a7800040ce8002ffa9700ea4f520093
:101350000b003a00380290000410b200080032007e
:1013600018019000a8009000480090000b000700b2
:101370000002eb0014049800a8029000050c78000d
:101380002ffa97000400fb004f04be000080fa0013
:101390000000060000c0da00000006000a00fa00a3
:1013a000e20f500022003e00e4d28000e10f520024
:1013b000060032008723200046232000242320003b
:1013c00005232000e08f530004003a00872220000c
:1013d00046222000242220000522200000002800b0
:1013e0001500600003003a00800b78000700280019
:1013f000958a7300054020009482620001003a0043
:1014000014a0a00082027800060037009403780040
:101410000710b200fdff3200b103fb00070b78009c
:101420008502e900e08f5200f8ff3a00080037001b
:1014300034002000b4bf9f00c0bf9f00d1bf9f00f9
:10144000e2bf9f006a805700d2ff07006fb9970084
:10145000020078000080fa0000000600889fbe00ad
:101460008a9fbe003004be002005be000404440074
:1014700085844c0006054d0087854d000898be0008
:101480000a90be000440e10005c8e10006d0e1007a
:1014900007d8e10002003100680040001008e800b1
:1014a0004f05be004f04be00000006001000fa0009
:1014b000889fbe008a9fbe000605be000404be00d1
:1014c0003002be002003be00c4b79f00d5b79f0006
:1014d000e6b79f00f7b79f000802520089825a00c2
:1014e0000a035b008b835b0084bf9f0095bf9f0056
:1014f000a6bf9f00b7bf9f000498be000698be001d
:10150000110020004fb29700dfb297006fb3970031
:10151000ffb397000820e10009a8e1000ab0e1004c
:101520000bb8e100010039008000eb0010881000ca
:101530004f05be004f04be000080fa000000060008
:101540001400fa00889fbe008a9fbe008c9fbe00d8
:101550003f0007000605be000404be000006eb00c5
:10156000ccb79f00bcb79f00acb79f009cb79f0053
:101570008cb79f000d0420004fb39700bfb29700b7
:10158000860343002fb29700e00f530004003d0094
:101590003d0007000f004000b0ff070003003700c8
:1015a000390007000f004000c0ff0700cfb29700ce
:1015b00095bf9f00e08f5200090035002b00070007
:1015c00014002000050020006033b8000000720005
:1015d0008180720002017300838173001c00070088
:1015e0000c06e8008d0f5600e3ff3a001fba970083
:1015f000e00f520005003d000802be000a03be00d5
:1016000000fe2f000f00400094ff07004faa970034
:10161000e00f520008003a000fb497009fb4970003
:101620002fb59700bfb59700d8b79f00e9b79f00c7
:10163000fab79f008bbf9f000c0007004f06be004b
:101640004f05be004f04be000080fa0000000600f7
:10165000010007000000060090b79f00a1b79f009f
:10166000b2b79f00c3b79f0000000600010007004b
:10167000000006001fb09700afb097003fb1970081
:10168000cfb19700000006004f2bde0087037300e8
:10169000a7b79f004f23de008582420085027300ba
:1016a00095b79f00ffaa97004f2bde00040242006f
:1016b0000402730084b79f006faa97004f23de00d7
:1016c0008582420085027300f5af9f00e9ff0700a5
:1016d0004f18de000402420000027200e4af9f00d7
:1016e000e4ff07000000400081804800020149003b
:1016f00083814900d8ff07000802be000a03be002c
:1017000000fe2f0000000600881f7800180020004f
:10171000881f78008aff07008f87e9004f04780050
:1017200000000600801feb0085ff07008f87e9009f
:0417300000000600af
:020000040000fa
:1017380074650000787400002f680000746d000064
:101748006c00000048540000545000002f31000085
:101758002e3100002032000030300000204f000001
:101768004b0d00000a4300006f6e00007465000016
:101778006e7400002d74000079700000653a000056
:1017880020250000730d00000a0d00000a0000006b
:10179800313a000020250000733c0000627200000e
:1017a800202f00003e3200003a2000002573000080
:1017b8003c620000722000002f3e0000004800003c
:1017c80054540000502f0000312e0000312000003a
:1017d80032300000302000004f4b00000d0a00009e
:1017e800436f00006e740000656e0000742d0000e9
:1017f80074790000706500003a20000074650000ec
:10180800787400002f680000746d00006c0d0000f3
:101818000a0d00000a3c0000683100003e48000044
:10182800656c00006c6f0000207700006f7200008c
:101838006c6400003c2f0000683100003e5400003a
:1018480068690000732000006973000020610000cf
:1018580020730000616d0000706c000065200000be
:101868007061000067650000207400006f200000b0
:10187800736800006f77000020740000686900003a
:10188800732000006163000074750000616c000043
:101898006c790000207700006f7200006b73000005
:1018a8002e0000003c610000206800007265000006
:1018b800663d0000222f000073790000732f00009e
:1018c8007463000070690000702200003e4e000042
:1018d80065740000776f0000726b000020530000f1
:1018e80074610000636b00003c2f0000613e000043
:1018f800207c0000203c000061200000687200008d
:10190800656600003d2200002f7300007973000017
:101918002f720000746f0000732200003e52000016
:10192800544f00005320000054610000736b000006
:10193800204c000069730000743c00002f61000017
:101948003e2000007c2000003c6100002068000070
:1019580072650000663d0000222f000073790000c8
:10196800732f0000666c000061730000682200009d
:101978003e4600006c610000736800003c2f0000c8
:10198800613e00003c620000722000002f3e000013
:10199800004600006c6100007368000020490000e8
:1019a800443a000020250000583c00006272000004
:1019b800202f00003e000000436f00006e740000fe
:1019c800656e0000742000004c6500006e67000022
:1019d800746800003a200000256400003c620000a2
:1019e800722000002f3e0000466900006c65000070
:1019f8002054000079700000652000004c6500004c
:101a08006e670000746800003a200000256400003a
:101a18003c620000722000002f3e00004669000072
:101a28006c6500002054000079700000653a0000e1
:101a380020250000733c000062720000202f000087
:101a48003e4600006c61000073680000204c0000f6
:101a58006f63000061740000696f00006e3a000057
:101a6800202500006c75000000000000568c000066
:101a7800a68b000048540000545000002f3100008d
:101a88002e3100002034000030340000204e0000c9
:101a98006f740000204600006f7500006e6400003f
:101aa8000d0a00000d0a00003c680000313e0000ed
:101ab80034300000342000004e6f00007420000015
:101ac800466f0000756e0000643c00002f6800003f
:101ad800313e00005468000065200000706100007d
:101ae80067650000207900006f7500002072000013
:101af800657100007565000073740000656400007e
:101b080020690000732000006e6f00007420000040
:101b1800666f0000756e0000642c000020740000e1
:101b280068610000742000006d650000616e0000af
:101b38007320000069740000206400006f650000d5
:101b4800736e0000277400002065000078690000ab
:101b5800737400002e200000000000003e8d00007d
:101b6800e38b000047450000540000002f6600008a
:101b780061760000696300006f6e00002e69000046
:101b8800636f0000002f000034300000342e000086
:101b9800687400006d6c0000002f0000737900006d
:101ba800732f0000666c000061730000680000007d
:101bb8002f670000657400002f3a0000302f0000e6
:101bc8003a310000002f0000002f00007379000058
:101bd800732f00007463000070690000700000003b
:101be8002f730000797300002f720000746f0000db
:101bf8007300000000000000b68d0000ba8d0000e0
:101c08000000000000000000b68d0000c78d000035
:101c18000b00000000000000b68d0000d18d000010
:101c28000000000068200000b68d0000dc8d000078
:101c3800008000000c200000b68d0000e78d000039
:101c48000000000040200000b68d0000e98d000073
:101c5800000000000e210000b68d0000f48d000089
:101c680000000000122100005b520000465d0000e9
:101c780020540000582000004e6f000064650000ea
:101c880020250000642000002d3e000020250000d3
:101c9800642000007c2000004d73000067200000d5
:101ca8004944000020250000303200005820000080
:101cb8004f700000742000002530000032580000ea
:101cc800207c00002044000061740000613a00009c
:101cd800002500003032000058200000005b0000a2
:101ce800524600005d2000004352000043200000df
:101cf80065720000726f0000722000007c200000f6
:101d08005258000020250000303200005820000002
:101d18007c200000434100004c43000020250000c7
:101d280030320000580a0000005b000052460000f4
:101d38005d200000506f000077650000722d0000e4
:101d48006f6e00002d52000065730000657400007e
:101d5800206d000065730000736100006765000076
:101d680020660000726f00006d2000006e6f00009a
:101d78006465000020250000640a00005b52000032
:101d8800465d000041640000646900006e67000061
:101d9800206e00006f64000065200000746f000072
:101da80020740000616200006c6500000a000000f9
:101db8005b520000465d00002052000046200000f3
:101dc8006e6f00006465000020250000642000009c
:101dd80069730000206700006f6900006e670000eb
:101de800206400006f7700006e0a0000005b0000ae
:101df800524600005d200000476f0000742000007c
:101e0800414300004b200000667200006f6d000027
:101e1800206e00006f64000065200000256400004b
:101e28000a0000005b4300004342000075660000a2
:101e38005d2000005265000061640000206500001c
:101e4800727200006f7200000d0000005b4300001a
:101e580043420000756600005d20000043610000f9
:101e68006e6e00006f740000207700007269000039
:101e7800746500003b2000006f760000657200006a
:101e8800666c00006f770000000000005b520000e5
:101e9800465d000020440000726f00007070000072
:101ea800696e000067200000545800002070000090
:101eb800616300006b650000742000002d200000a5
:101ec8007265000074750000726e000065640000a1
:101ed800204e0000554c00004c0000005b520000f2
:101ee800465d000020720000657300006574000004
:101ef800005b0000524600005d200000426f0000b9
:101f08006f74000063790000636c000065000000d6
:101f1800206400006f6e000065000000524600005b
:101f2800000000005b530000504900005d200000e5
:101f3800496e0000766100006c69000064200000b2
:101f4800737000006565000064200000706f000079
:101f58007274000020730000656c00006563000067
:101f6800746500006400000045740000680000000b
:101f7800c0a80000027b000000040000a3120000bb
:101f880034560000c0a8000002640000c8600000c9
:101f980000e300004fe30000486500006c6c00009f
:101fa8006f200000776f0000726c00006421000051
:101fb8000d00000043530000206300006f6e000016
:101fc800666c00006963000074000000496400004a
:081fd8006c6500000000000030
:020000040000fa
:101fe0000002eb0014be8800f4be8800d4bf880055
:101ff000b4c0880094c1880074c2880054c38800ab
:1020000034c488000440780098f8b700a0f8b700fe
:102010000000060014be8000e00f520006003200ef
:10202000e47d210010c0b3008002eb00948f120009
:1020300007003a00010037000040eb00c2c1b300c6
:102040000440bc00847b21000400410005003700ef
:102050000040e8007c024200e84f5000f2ff3a00e6
:102060000000eb0000000600889fbe008a9fbe00b3
:102070008c9fbe008e1f78000006780081057800d6
:10208000e97c21000004eb008d7b21004e00200044
:102090008800780029ba9700e00f52001000320043
:1020a000998f15000e003a007c0ab900ec0042003e
:1020b0008d8040000e0178000c0078003ef907008a
:1020c000e00f500006003a0008407800c2c1b3009b
:1020d0000440bc00847b210004004100050037005f
:1020e0000804e800fc844400e80f5400e8ff3a00cc
:1020f0000000eb004f0778004f06be004f05be0002
:102100004f04be0000000600247c21008042eb004a
:1021100017002000948f13000a003a0074bb970048
:1021200016039000800f530006003a000540780027
:10213000c2c1b3000440bc00847b21000400410004
:10214000050037008542e8007c024200e8cf5200db
:10215000efff3a000000eb0000000600881f780047
:102160000004780004be800004026c0004f0a700a4
:102170000402ea000402e9004f22de00e5be80000e
:10218000888f520001003a000442e8009842900013
:102190000040eb00854f5200080032009dff070011
:1021a000000278000040eb00e00f52000300320014
:1021b0004802980010002000500298004f04780058
:1021c000000006000a00fa000002eb00b4bf9f0006
:1021d0006022b800c4bf9f00d5bf9f00e4bf9f002e
:1021e000f5bf9f000201d1003fba9700840f510054
:1021f000150036003fba97000402420061007a00e1
:102200003fba970004024200e1027a006fbb9700d8
:10221000ffbb9700c82add004802de00048272007e
:1022200004024300e0824b00e4bf9f00f5bf9f0023
:102230003fba97000402e800b4bf9f003fba97007e
:10224000820f5200ebff39006fba9700ffba970078
:10225000b5bf9f006fba9700ffba97000500200036
:10226000e4bf9f00f5bf9f003fbb97006fba970088
:10227000ffba970006024200e0824a00e4bf9f00d6
:10228000f5bf9f006fba9700ffba97000482ea007b
:102290008582ea00c4bf9f00d5bf9f004fb897005a
:1022a000dfb897000080fa0000000600e6874700cc
:1022b000889fbe008a9fbe008c9fbe008e1f780044
:1022c00002047800cc0cde00c24cdd0080844400a7
:1022d00058129000e8129000a4019800b5019800ef
:1022e00038169000c81690008c89be00330a900002
:1022f000c822dd004822de00048272002414980007
:102300004302900014029000c822dd004822de0043
:10231000048272001414980038139000c8139000bf
:10232000c831dd0002002000483ade000500200030
:1023300004027100858271000a002000fb0f20005a
:102340000b077800070067006101b800f2b79f0033
:1023500083bf9f00481edd00c816de008d06760094
:102360004816dd000c0272008d82720000f02f0012
:102370000603600007002000483edd00c836de008e
:102380008d0676004836dd000c0272008d827200e8
:10239000341498004514980058129000e8129000e8
:1023a000c826dd000c002000482bde0007002000be
:1023b0000606760087867600050167000300200088
:1023c000481bdd00c813de00870373004813dd00df
:1023d0000601760087817600040060006102b80083
:1023e000482bdd00c823de00870373004823dd008f
:1023f00006027100878271005414980065149800d9
:10240000081a9000c822dd004822de000482720013
:10241000041c9800480add00c808de008100720034
:10242000711498001a1c9800e88044007a00440057
:10243000850d070009005000660050004802de00cc
:102440004800dd0000007200101c98001a0c980073
:1024500089407800080078008f0d07004f0778004a
:102460004f06be004f05be004f04be006f00b10016
:10247000000006006083200000000600e687470099
:10248000889fbe008a9fbe008c9fbe008e1f780072
:102490000880200001c0a00001d0a10001e0a00040
:1024a00001f0a10022029000b202900054149800a2
:1024b000651498001203be00361498004714980063
:1024c0006102b8001209420052914a00f40440002f
:1024d000fa034400cafb280003000900ba5b780035
:1024e0006c0741001e02be00f440880005418800d0
:1024f000320a9000c822dd004822de000482720009
:10250000241498004202900014029000c822dd00ba
:102510004822de00048272001414980038139000e0
:10252000c8139000c836dd000c002000483ade00d9
:10253000050020000406760085867600f30f200053
:10254000078161006115b800485add00c852de00fd
:10255000850272004852dd00040276008582760012
:1025600002f02f00060361006136b800486bdd0001
:10257000c863de00870373004863dd000602720053
:102580008782720034149800451498005812900005
:10259000e8129000c826dd000c002000482bde0069
:1025a0000700200006067600878676008581610098
:1025b000611bb800f6b79f0087bf9f000605be00ed
:1025c000485bdd00c853de00870373004853dd001d
:1025d0000603760087837600040161000300200073
:1025e000481add00c812de00850272004812dd00c4
:1025f00004037300858373005614980067149800d1
:1026000054802700041c9800480add00c808de003a
:1026100081007200711498008005eb001b1c98006b
:10262000fd0040007a004400070d0700090050003b
:10263000660050004802de004800dd000000720025
:10264000101c98001b0c98000801be0061c0b3006c
:102650000e007800330d07004f0778004f06be00cc
:102660004f05be004f04be006f00b1000000060021
:10267000881f78000004780048029000e00f5200a4
:1026800003003200340290000800780004000100ca
:102690000d000900001ceb00c801b1000002eb00b6
:1026a000540498004f04780000000600889fbe0084
:1026b0008a9fbe008c9fbe000104780082047800cf
:1026c00003057800e04f50003d00320038139000c1
:1026d000c8139000c831dd0002002000483ade0037
:1026e000050020000401710085817100fa0f2000af
:1026f000070665000d002000486add00c862de00a4
:10270000850272004862dd0004017100858171005c
:1027100001f02f000683600007002000483add002a
:10272000c832de00850272004832dd00040171000b
:102730008581710058129000e8129000c826dd00d3
:102740000c002000482bde00070020000603760066
:1027500087837600050565000b002000485edd00dc
:10276000c856de008d0676004856dd000c03730067
:102770008d83730084806000610ab800482ddd00fd
:10278000c825de008b0575004825dd000a037300af
:102790008b8373000a00250064412000041c98000c
:1027a00029029000b9029000541498006514980012
:1027b0001902be0034149800451498000200370036
:1027c0006033b8000601be005902900005002000e9
:1027d000ea0f5200e08f5a00da003e000460010068
:1027e0000a003700160037003c003700d5003700dc
:1027f0004800370086003700ab003700d1003700b3
:10280000b6003700b8003700c4003700e04f500072
:10281000ce0032007812900061026200cb003200dc
:102820000a40a0000801be008a0078000000eb000a
:102830009efe070094002000d4049800c3003700d7
:10284000e04f5000c1003200781290006202620036
:10285000be0032000ac0a1000ad0a0000ae0a00019
:102860000af0a10061014100e08149005214980082
:102870006314980054a52a0055a52a003414980022
:102880004514980049029000240290000900780045
:1028900004000100e04f5000060032002a01b3009e
:1028a00024002000d4049800490090002bfe07006b
:1028b000050037000a20a00014002000d40498006e
:1028c0000002eb00c40498000801be008a007800f2
:1028d0000000eb0075fe07009c003700e04f500041
:1028e0009a00320078129000f2026200f08f5200db
:1028f00003003a0044002000d404980093003700fd
:10290000640262009100320014002000d404980098
:102910008e003700e04f50008c003200781290009b
:1029200061026200140032000a40a00058129000b8
:10293000e812900061024200e0824a0054149800bc
:102940006514980038129000c8129000610242008d
:10295000e0824a0034149800451498000801be0033
:102960008a0078000000eb0050fe07009400200071
:10297000d40498007500370038129000c8129000f7
:10298000b90f5200a98f5a0070003900f815900055
:10299000cc5ede00c26edd00080e900074065600ac
:1029a0000d0656000c014100e0814900c35dde00c8
:1029b000e1c565000a40a00058129000e81290009e
:1029c000820f5200838f5a0008003200361498009c
:1029d0004714980052149800631498000801be0030
:1029e0008a0078000000eb0030fe07002202200081
:1029f000080141000d014100590a90008c01780046
:102a00008b40780009007800040001004f00370077
:102a1000e04f50004d00320078129000f00262004a
:102a20000d0032006102620003003a0064002000e1
:102a3000d4049800450037000a40a0000801be00f9
:102a40008a0078000000eb0018fe070084002000d8
:102a5000d40498003d003700610262003b00320060
:102a60000a40a00038129000c81290006102420093
:102a7000e0824a00541498006514980054a52a0076
:102a800055a52a0034149800451498000801be008a
:102a90008a0078000000eb0004fe0700840020009c
:102aa000d404980029003700e04f5000270032007e
:102ab0007812900061026200240032000a40a000f7
:102ac0000801be008a0078000000eb00f7fd070057
:102ad00084002000d40498001c003700090078000e
:102ae000e3fe070019003700e04f500008003200f5
:102af0000a20a0006022b8005414980065149800c1
:102b00000801be008a0078000000eb00e7fd070026
:102b100009007800d6fe07000c003700e04f500097
:102b2000050032000a40a0000801be008a007800bb
:102b30000000eb00ddfd070009007800ccfe070077
:102b40000200370014002000d40498004f06be0095
:102b50004f05be004f04be0000000600889fbe0067
:102b60000004780098109000480add00c808de00d4
:102b70008480700011149800a8149000484add0069
:102b8000c84cde00848474002914980078129000e8
:102b9000c822dd004822de0004827200741498000e
:102ba000081a9000c822dd004822de00048272006c
:102bb000041c98007a0044002bfd0700e00f500031
:102bc00010003a00090078004ffd0700e00f5000a8
:102bd00011003200580a9000e80a90006400980042
:102be0007500980070024000e6024400351a780033
:102bf00025127800d80290002508980098129000bd
:102c0000350898008001eb0000017800880078000a
:102c100010c0b300a5fe07004f04be000000060070
:102c2000889fbe008a9fbe008c9fbe008e1f7800ca
:102c3000000478000145780082057800830478005c
:102c40000040eb00d4c48000880f52002a003200fc
:102c500014c58000880f52002700320084892100ab
:102c600014427800804f520007003200048a21008d
:102c700014427800804f52001f003a001d002000cf
:102c80000d477800020037008006eb000d47780002
:102c9000e0fc0700000678000040eb00e00f560063
:102ca00015003200c36edd00858921000d824200cf
:102cb00015c0b300054a7800a589210088b27e00be
:102cc0001a4298000582e8000bb27e000482e800f8
:102cd00009b27e000c00780065fe07000e82fb0042
:102ce0004322dd0085892100050242004406980048
:102cf00010002000500698004f0778004f06be00d5
:102d00004f05be004f04be0000000600889fbe00b5
:102d10008a9fbe008c1f78000005eb00297c2100f3
:102d20000a0478008b7b21000006eb0014002000d1
:102d3000990f1200060036007c41b900028145005f
:102d40008a0178008c0078000040eb0057fe0700f5
:102d50000804e800fc844400e80f5400f3ff3a0044
:102d60004f0678004f05be004f04be00000006006d
:102d7000889fbe000044780081447800920d0700cf
:102d80007f4064000064a0009706070009407800b7
:102d900095060700a10d07004f04be0000000600c5
:102da000889fbe000044780081447800860d0700ab
:102db0007f4064000074a0008b0607000940780083
:102dc00089060700950d07004f04be0000000600ad
:102dd000889fbe0000447800814478007a0d070087
:102de0007f44640004cab300044074007e060700f8
:102df000094078007c060700880d07004f04be00dc
:102e000000000600889fbe0000447800810478001e
:102e10006d0d07007f4064000064a000720607008b
:102e200009407800700607004848de006e0607007b
:102e30007a0d07004f04be0000000600881f7800ce
:102e400000447800600d07007f40640066060700bc
:102e50007306070000447800700d070008407800f2
:102e60004f04780000000600881f780000447800b6
:102e7000550d07007f4064005b0607000040eb0033
:102e8000590607006606070000447800630d070036
:102e9000084078004f04780000000600889fbe00bc
:102ea0000044780008407800e4ff07008084fb00bd
:102eb0000840e800e1ff07004800dd00090070005d
:102ec0004f04be0000000600881f78000044780010
:102ed0009495210014427800e04f52000600320021
:102ee000390d0700f0cbb3003f06070030c0b30038
:102ef0003d060700490d07004544de0063046400f9
:102f00000840780059f9b700e04f5400060032003d
:102f10002d0d0700f0c9b3003306070059d9bf00d3
:102f2000310607003d0d07004f0478000000060041
:102f3000889fbe008004780001047800220d0700fd
:102f4000a0c7b30028060700880178000001eb0045
:102f50008900780010c0b300470607002f0d070056
:102f60004f04be0000000600889fbe008004780069
:102f700001047800140d0700a0c3b3001a0607006f
:102f800088017800090178008000eb0010c0b300d0
:102f900039060700210d07004f04be00000006009f
:102fa000881f78000044780008407800e04f540003
:102fb00008003500c502de00e3826200949521001e
:102fc000144278000482fb00848f5200010032001a
:102fd000bdff07000840780098ff07004f04780005
:102fe00000000600881f7800004478000840780040
:102ff000e04f540008003500c502de00e3826200a5
:1030000094952100144278000482fb00848f5200c2
:1030100001003200acff0700084078009fff070066
:103020004f04780000000600889fbe00004478002e
:103030008144780008407800e04f540008003500d3
:10304000c502de00e38262009495210014427800fc
:103050000482fb00848f5200010032009aff0700b7
:10306000894078000840780041ff07004f04be0007
:1030700000000600889fbe0000447800814478006c
:1030800008407800e04f540008003500c502de001b
:10309000e382620094952100144278000482fb00d0
:1030a000848f52000100320087ff070089407800ba
:1030b000084078003aff07004f04be0000000600f9
:1030c000889fbe0000447800814478000840780062
:1030d000e04f540008003500c502de00e3826200c4
:1030e00094952100144278000482fb00848f5200e2
:1030f0000100320074ff0700894078000840780022
:1031000033ff07004f04be0000000600889fbe008a
:10311000004478008104780008407800e04f5400b3
:1031200008003500c502de00e382620094952100ac
:10313000144278000482fb00848f520001003200a8
:1031400061ff0700894078000840780008ff070009
:10315000c848de000840e80005ff07004f04be0035
:1031600000000600881f7800010478008040780085
:1031700040c5b300acff07008800780060c5b3000d
:10318000e2ff07004f04780000000600889fbe00a1
:103190008040780040c5b300a3ff070011c0b30012
:1031a00020c5b300b3ff0700a8c6b30008407800ed
:1031b0002dff070061006000fcff3a0011c0b30062
:1031c00020c5b300beff07007f0c070080c1b3001d
:1031d000850507000040eb00830507009005070008
:1031e0008084fb008d0c0700770c070090c1b300b2
:1031f0007d0507000040eb007b0507008805070000
:1032000000447800850c07004840dd00090070008c
:103210004f04be00000006000040eb000000060066
:10322000889fbe008a9fbe008c9fbe0080067800eb
:1032300001067800f8c9b30089c0b3000600370062
:1032400089407800084078008aff070089407800ac
:10325000084078009aff07000840780050ff0700f8
:1032600068006000f6ff3a000100210020c0b300b2
:10327000a6ff0700010021008100460060c0b300e6
:10328000a2ff0700110020008095210028ff070001
:10329000e00f5600120032008c0478000004eb00ae
:1032a0001b0021008ac0b3008b00440020c0b30083
:1032b00096ff07008a407800e88f540001003e0026
:1032c000894078008180fb000880460018ff0700d5
:1032d00068044400e8845400880f5600f2ff3e0062
:1032e000a1c0b300c0c9b30075ff0700320c0700ce
:1032f00081c0b300f0c9b3005eff0700300c0700c7
:10330000f8ff2f00f9002000cac9b3000086eb00c7
:103310008086eb000a40780021ff0700680060000b
:1033200005003a0061045400e0845c008c0f5400f6
:103330008d8f5c00f7ff3a0010c0b300e10f54001e
:10334000e08f5c0001003e000040eb004f06be0035
:103350004f05be004f04be00000006000600fa0044
:103360001002be00d4bf9f00e5bf9f00a0029000e6
:10337000f5bf9f00660240003418780024107800e2
:1033800050029000240098005fba9700efba9700af
:103390003400980045009800ffba97005500980047
:1033a000ee8040009eff07000080fa00000006004b
:1033b000c0c9b300fafe0700004278000404b2005e
:1033c00010c0b3004240a90001003c000040eb00e7
:1033d0000000060090c3b300f1fe070000000600e5
:1033e000e8874700889fbe008a9fbe008c9fbe0072
:1033f0008e1f7800f7ff0700e04f5000600032009a
:103400008dc0b3000d457800740d0700b1ca80006f
:103410000040eb003dff0700610020007480570072
:10342000d1fe07005fef97000e0278004827dd000d
:10343000cfea97000582fb0004077700efea9700c8
:103440007fee97000ff297007002620032003a00a0
:103450004866dd008582fb00050676008c85e90064
:10346000c4442000848f5500060036008b442000a1
:10347000ac4420008cc4e9000004eb000c86e90099
:1034800003003700e08f5500faff3a0012003700c2
:10349000b1ca8000e4804000888040000040eb001a
:1034a0001aff0700080256008a407800e80f520011
:1034b00001003e00894078008180fb0000802000f0
:1034c00000004400a8fe070068044400e8c454005b
:1034d0008b0f5400eeff390074408000c822dd00dd
:1034e0004822de000502720074408800058020003a
:1034f000850f520003003a00208020003f0907009a
:103500000500370065802000850f520002003a0058
:1035100020802000930b0700beca88000d40780071
:10352000b0fe0700b1ca80000080fb00810f500090
:1035300006003a00a0c0b300aafe07008080fb008e
:10354000c0c0b300f1fe0700030037008100e900ae
:10355000c0c0b300edfe0700970b070001c4b30025
:10356000e0c9b300c3fe0700950b070099ff0700f1
:10357000004478001a0d0700e04f5400a2ff3a0003
:103580004f0778004f06be004f05be004f04be0037
:103590008f00b10000000600889fbe0008c4b30081
:1035a000e9c9b3000300370088407800094078007b
:1035b000b0fe07007eff0700e04f5000faff3a0020
:1035c0008000eb0080c0b300d0fe0700f1ff2000b8
:1035d000a0c0b300cdfe07008000eb00c0c0b30068
:1035e000cafe07000100210040c0b300c7fe07006b
:1035f000f1ff210060c0b300c4fe0700f1c7b300b3
:10360000c0c9b300aefe07004f04be0000000600b4
:10361000d2e2a80000000000d2e2a90000000000f1
:10362000d2e2a80050002000010020008e08070010
:10363000d302a90000c0eb006b040700d302a8006e
:1036400000000600881f7800d302a8005a0b07006c
:10365000efff0700a00f20000100200082080700f4
:1036600020c7b3004efe070001c4b300e0c9b30099
:1036700080fe0700d8c9b3000840780048fe070064
:1036800061006000fcff32002174200040c1b300e3
:10369000b4fe07008000eb0080c0b3009bfe070073
:1036a000f1ff2000a0c0b30098fe07008000eb00ef
:1036b000c0c0b30095fe07000100210040c0b30068
:1036c00092fe0700f1ff210060c0b3008ffe0700eb
:1036d000d1c0b30000c4b30053fe070061cfb300f4
:1036e00020c4b30050fe070001c4b30030c4b300cf
:1036f0004dfe0700e15e2000a0c4b30083fe07007a
:1037000021c1b30040c4b30047fe070021c120001f
:1037100060c4b3007dfe070004fc280094407800dc
:1037200040c6b30040fe070014fc28009440780017
:1037300050c6b3003cfe070024fc280094407800eb
:1037400020c6b30038fe070034fc280094407800ff
:1037500030c6b30034fe070044fc280094407800d3
:1037600000c6b30030fe070054fc280094407800e7
:1037700010c6b3002cfe070011ccb300b0c9b300d3
:103780003cfe0700f1c7b300c0c9b3004cfe070000
:103790000110200000c1b30072fe070041c0b30059
:1037a000f0c9b30033fe0700050b07004f04780093
:1037b000000006001090800000f0a7000000ea0062
:1037c0000000e9004f00de0000000600881f7800be
:1037d000e04f500004003a0010c0b30006f2b700fa
:1037e000a10907000d0037000044eb0008407800f5
:1037f00006f2b7000020280091090700800a28007f
:103800008f090700002228008d09070014002000fe
:103810001490880008407800fef1b7004f0478004b
:1038200000000600889fbe008044eb00094078003d
:10383000fef1b70084202100049088000004eb0012
:103840001890880084202100ff000900001aeb0076
:10385000884178000204200081402100804421003a
:103860003f050700d88f8800887b880009407800d2
:10387000d6ff07004f04be00000006000002eb0068
:1038800084037800c522dd00fe82420086202100ec
:10389000e6827a00c82ade00e1c2620014003a0023
:1038a000c53add00fe824200e6827a00c92ade00c7
:1038b000e1c262000e003a008480fb00c508dd0012
:1038c00006027800810242001f000900b05a780009
:1038d0000002b100c53bdd007e02420087034200ca
:1038e0001780a0000572ec0010c0b3000400370080
:1038f0000402e800f00f5200e1ff3a000040eb0044
:1039000000000600889fbe00000478007374ec007d
:103910001802780075082000850f5200210032003f
:1039200006003e00e00f52000e003200e882520016
:10393000850f520092003a000c003700350a200033
:10394000850f52005d003200f8824200850f520060
:1039500081003200b5092000850f520088003a002e
:1039600031003700f4072000040c78008044210067
:1039700033050700004278000040eb00804f520002
:10398000810032008044210044050700b4c6b30022
:10399000804f5200f3ff3a007374ef007408200068
:1039a000040c78008044210025050700e04f5000fa
:1039b00005003a003447210014427800e54f5200d8
:1039c00005003e00700037003447210014427800a3
:1039d000e54f5200030036000000eb00000c7800b9
:1039e0006900370080442100410507000000e9001c
:1039f000f40f5000dbff3e00804421002705070044
:103a00000042e9000440780070f4b70000c0b30041
:103a10006ef4b70073f4b70072f4b7001f003700fc
:103a2000b4092000040c780080442100040507003c
:103a3000e04f500005003a0034472100144278005e
:103a4000f94f52001b003e004f0037003447210061
:103a500014427800f94f520016003e007374ef00d4
:103a600029472100994478008984fb008044210083
:103a70000a0507002445210000f27c0025472100ab
:103a8000954278008582fb00e4c07a006ed4bf00c6
:103a9000d60807006ef4b7007274ec0024472100ca
:103aa00014427800054721009542780084cf5200e7
:103ab000dbff3e00340a2000040c78008044210023
:103ac000df040700e04f500004003a0034472100b3
:103ad00014427800f94f52002b0036008044210038
:103ae000ee0407006ff4b700344721001442780059
:103af000e54f520007003600214721009140780031
:103b00008180fb008100e80080442100c30407009d
:103b100094ff3700e446210014427800844f50009f
:103b20000700320021472100914078008180fb008e
:103b30008100e80080442100b804070089ff3700b5
:103b400074ca800085ca800054a3880065a38800d9
:103b5000b40b2000040c78002045210047ff07002b
:103b6000004278000040eb00804f52000600320017
:103b700011002000604721009507070079ff3700fa
:103b8000000ceb0030c0b3004f04be000000060084
:103b900051202100914078000000eb00e0cf500060
:103ba000210032000002eb00044178008403780019
:103bb000c522dd00fe82420086202100e6827a00d6
:103bc000c82ade00e1c2620012003200c53add0000
:103bd000fe824200e6827a00c92ade00e1c262006b
:103be0000c003a00c53bdd007e0243008703420023
:103bf0001780a1008140e9000140780005f2b7007c
:103c00000280fb004500dd00060278000400400051
:103c1000050037000402e800f00f5200e2ff3a000e
:103c20000572ef000000eb000000060041202100bb
:103c3000914078000000eb00e0cf500023003200fc
:103c40000002eb000441780084037800c522dd0007
:103c5000fe82420086202100e6827a00c82ade0029
:103c6000e1c26200e1cf520013003a00c53add0024
:103c7000fe824200e6827a00c92ade00e1c26200ca
:103c8000e1cf52000c003a00c53bdd007e0243004c
:103c9000070242001480a1008140e9000140780041
:103ca00004f2b7000280fb004500dd000602780048
:103cb00004004000050037000402e800f00f520045
:103cc000e0ff3a000472ef000000eb000000060085
:103cd000881f78000004780018027800150620007c
:103ce000850f52001d00320006003e00e00f52001a
:103cf00008003200ed825200850f520028003a0081
:103d00000600370085062000850f520024003a0087
:103d10001e00370044052000040c78000040eb0032
:103d20004420210014427800804f52001e003200cf
:103d3000beff0700a0a38800e00f500005003a0076
:103d4000a0f4280052f207000000eb00000c7800fd
:103d50001500370014062000040c78003208070014
:103d6000004278000040eb00804f52000e003a0005
:103d700014908000e00f5200f6ff3a0010c0b3002c
:103d800092fe070084062000040c78000040eb003f
:103d900014908000e00f5200deff32000200370076
:103da000000ceb0030c0b3004f04780000000600a8
:103db000889fbe00800478000042eb00c45c98003d
:103dc000695a9000e04f52000a0032000044eb00b4
:103dd0000882fb00e9407a00495890000308070078
:103de000c05c98000844e800695a9000884f52006f
:103df000f7ff3e00349180004822de0061426200fd
:103e00000c0032000002eb000440e8000402e8006d
:103e100084037800c522dd00fe8242008620210056
:103e2000e6827a00c82ade00e1c2620014003a008d
:103e3000020037008003eb00074078000080fb00a1
:103e40004500dd0084202100800242001f0009009f
:103e5000b95a78000902b100c53bdd007e0242007c
:103e600087034200170278000480a0000490a0009d
:103e7000840b78000472ec0010c0b300030037001c
:103e8000ef0f5200e0ff3a000040eb004f04be008d
:103e900000000600881f78001490800005002000b4
:103ea000eb0f5200e08f5a0059003e000460010001
:103eb0000b0037000f0037001300370017003700e2
:103ec0001b0037001f003700230037002800370091
:103ed000360037003b0037003f0037004300370013
:103ee0002008070080407800804421002804070053
:103ef00047003700a0cab3001508070024002000bf
:103f00001490880042003700a0cab30010080700d0
:103f100034002000149088003d003700d0c2b30068
:103f20000b08070044002000149088003800370078
:103f300040cdb3000608070054002000149088000c
:103f400033003700b0c6b30001080700640020004a
:103f5000149088002e003700049080006458900070
:103f6000fb07070074002000149088002800370029
:103f7000e41f2100144278000482fb0005908000b9
:103f800065407a00f2070700fe51ec00fef1b70031
:103f900004908000645a9000844f50001c00390047
:103fa00084002000149088001900370004908000dd
:103fb00044589000e6070700940020001490880001
:103fc000130037000040eb00e1070700a4002000c9
:103fd000149088000e0037000040eb00dc0707005b
:103fe000b400200014908800090037000040eb0066
:103ff000d70707000004eb0018908800210020007c
:10400000604721007206070008407800effd0700b6
:104010004f04780000000600889fbe0080047800ee
:1040200001047800c4b92800841f780064ba28000d
:10403000841f7800d0ca8000aff10700e0ca880072
:104040005a19b40018029000841f7800981f780055
:10405000c4bc2800841f7800a7f10700e4ca8000d0
:1040600004004000e0ca88000901780091012000a6
:1040700002f90700ea8757004f04be00000006005f
:1040800000017800d4ca800035be28007200090003
:10409000355a78003407b10024072000e4ca8800ac
:1040a000d4ca8000260720000603420065c5280008
:1040b00076000900355b7800e0ca80006007b00038
:1040c000e0ca880091012000ecf80700000006001b
:1040d0004400fa00881f780000047800c4b9280062
:1040e000841f780064ba2800841f7800d0ca80003a
:1040f00081f10700e0ca88005a19b40064c528009d
:1041000076000900345878007007b100600720007d
:104110005c39b4000a09070000027800e0ca800098
:104120005a19b400841f7800d4cc2800841f78006a
:1041300071f107005c39b4000002eb00040f780055
:1041400014079800230020000e0178006000b800da
:104150000809070023002000030147002000200079
:1041600001002000030907009e019000e887570026
:10417000f4032000848f510009003e0064014700d1
:104180004000200001002000fa0807001e029000f5
:10419000040247008042eb004542980004003700cb
:1041a0000042eb00444798001400200014079800d8
:1041b0001e029000e0ca80005a19b4006403420055
:1041c00007002000869fbe00e41f4700841f780080
:1041d0009e1f780004ce2800841f780046f1070057
:1041e000e4ca800004004000e0ca880008017800aa
:1041f00091012000a1f80700ec8757004f047800d8
:104200000080fa000000060019f90700000006000f
:10421000b1002000fcff070000000600fcff0700c3
:1042200000000600faff0700000006004f05b0007e
:10423000889fbe008a9fbe008c9fbe008e1f7800a4
:10424000014478008204780080bf9f005c39ef0051
:1042500088f80700d0ca8800e04f5400be00320042
:10426000994278000042eb0006c2b30086cf5200ac
:104270000b00320084cf5200b3003a000800370030
:104280000442e800e44f520005003200d6427800b4
:1042900087cf520002003200e0cf5200f8ff3a0010
:1042a0000482fb000402e800848444001942780080
:1042b0008042eb0006c2b300864f52000c00320071
:1042c000854f520099003a0009003700046f7800ca
:1042d0008542e80087cf520005003200594278003d
:1042e000864f520002003200e04f5200f7ff3a00c2
:1042f0008582fb0006c0b30002fa2f000f014100c7
:1043000006f17a002de028000005eb000d87e9009a
:10431000a9c3b3000bcdb300f8c2b3004356dd0010
:104320000e0646002c029000e00f52000b003500f4
:1043300001fa2f008f8040001d007800def007009a
:10434000e00f500062003a008f0378000702b100ce
:1043500007000900801beb00700037001d03780088
:1043600007fa2f008f8343000040eb003100370035
:10437000894f520029003a008600780051c245005a
:10438000ef4f520009003e008482fb00858242000c
:1043900002fa2f000f014100850241008722980098
:1043a000844f50000100310004407800174278002b
:1043b000e04f520007003200884f520005003200e3
:1043c0000702e80084037800b4427800e0cf52008e
:1043d00007003a0011427800e04f5200140032000a
:1043e000884f520005003a000103780011003700a1
:1043f00088cf5200f3ff3a00f6ff37000682e8004c
:1044000004037800b4427800e0cf52000900320083
:1044100088cf5200faff3a0006003700974f52004b
:104420000b003a000603e8008703e80001003700ac
:104430000103780016427800e04f5200ccff3a00aa
:104440000c017800e04f500006003a0033003700be
:104450000f0278000402b10007000900001aeb0007
:104460001b00370006fe2f000f0343008680e90083
:104470008041e9008381fb00838141008681410006
:10448000f7c2b3000040eb005103780016427800f9
:10449000e04f520009003200874f520007003200ff
:1044a0000602e80004037800b4427800e0cf52002e
:1044b0000200320087cf5200faff3a00004b78002a
:1044c000838f5000f0ff3a00020678001300370097
:1044d0000a05e800e8864600e70f55008fff3a001e
:1044e0000fb897004aff070009003700ac009000a2
:1044f00001f0a1000fb8970043ff07000400370048
:1045000001fe2f008f8040000fb8970004000100cb
:104510000fb8970056f807000f0037003c029000d4
:10452000e00f5200f6ff3a00f0ff370084679f006b
:104530000efa2f000f07470015c0b30006c2b300e4
:1045400007c4b30065ff37000903780014c0b30047
:1045500007c2b3004dff37004f0778004f06be007b
:104560004f05be004f04be004f05b100000006001d
:10457000e14f500003003200e24f500011003a00ba
:1045800008003700e1cf500003003a00b4132000c8
:10459000141288000f003700a413200014128800a2
:1045a0000c003700e1cf500003003a00b4132000a4
:1045b0001413880007003700a41320001413880088
:1045c0000400370064f92800841f7800e4f2070033
:1045d0008f87e90000000600e14f50000300320021
:1045e000e24f500047003a0024003700f60b20004d
:1045f000103a800000036300640420007505200069
:1046000027742000844b7800854b7800864b780017
:10461000f60f2e00373680000703630006b0a000b7
:104620003636880006fe2f00403680008003630087
:104630007700b300473688004735800007036300e2
:104640004601b30046358800163a80000660a00097
:1046500027742000844b7800854b7800864b7800c7
:104660008540a9009540a900a413200014128800d9
:10467000000028004022b70022003700f40b200081
:10468000103a8000000262006504200076052000d8
:1046900027742000854b7800864b7800844b780087
:1046a00004fe2f007036800080036200b700b30064
:1046b000773688008036800080036200a700b30050
:1046c0008736880067358000070262002401b30046
:1046d00064358800143a80000460a000277420002c
:1046e000854b7800864b7800844b78008820a900a1
:1046f0009820a900b413200014138800000028009b
:104700006022b70000000600e14f500003003200b5
:10471000e24f50002f003a0018003700f60b20003f
:10472000143a80000403630064042000750520002f
:1047300027742000844b7800854b7800864b7800e6
:10474000f00f2e00c626b60000fe2f00c826b600c9
:10475000a826b600163a80000660a0002774200044
:10476000844b7800854b7800864b78008540a90003
:104770009540a9004022ef0016003700f60b2000fc
:10478000143a8000040363006404200075052000cf
:1047900027742000844b7800854b7800864b780086
:1047a00000fe2f00ce26b600d026b600ac26b600fe
:1047b000163a80000660a00027742000844b780021
:1047c000854b7800864b78008820a9009820a900a6
:1047d0006022ef000000060000128000610060000f
:1047e0000000a200000006000080fb0040128800cc
:1047f0004002ab00feff32004802f8006419f900e5
:10480000000006000080fb00401388006002ab003f
:10481000feff32006802f8006419f900000006008b
:104820004822ef004002ab00feff32004012800041
:10483000000006006822ef006002ab00feff3200bd
:1048400040138000000006000080fb00401288003a
:104850004002ab00feff3200401280000000060064
:104860000080fb00401388006002ab00feff3200b6
:104870004013800000000600889fbe008a9fbe0093
:104880008c1f78008044780001057800830578004b
:10489000e00f51000d003a00e08f55002900320072
:1048a000e1cf540003003a001a407800ceff070021
:1048b000020037001a407800d2ff07008b05e9009c
:1048c000200032000a05e800f5ff3700e00f550030
:1048d00003003200e08f55000d003a001900370048
:1048e000e08f55001700320002067800e1cf540037
:1048f00002003a00caff070001003700cdff0700a1
:10490000005e78008b05e900f8ff3a000d003700e3
:10491000020678000004eb00e1cf540003003a00e7
:104920006a407c00c8ff0700020037006a407c0034
:10493000cbff0700005e78000804e800888f550070
:10494000f5ff3e004f0678004f05be004f04be0045
:104950000000060010427800904290000548780060
:10496000144098002140980011fd07000000060047
:104970002000fa00889fbe008a9fbe000045780094
:104980008105780082007800034478008444780030
:104990000881fb00c0fd2f000f00400020ef070042
:1049a0009adf9f00a4c5b30084df9f00abdf9f00a8
:1049b000b9df9f0064444400e8f79f008984fb004e
:1049c000891f78008b85fb008b1f78000a85fb0010
:1049d0008a1f7800a4052000841f780084e3280043
:1049e000841f78003def07004fea97000482fb0028
:1049f00064025200ea875700e00f520013003400af
:104a00000002eb0004447800d9e62800640242006a
:104a100085fd2f008f82420065427a000482fb00f0
:104a2000841f7800891f78002cef07000844e800f5
:104a30000882fb00aff297008582fb00e4825200ff
:104a4000e4875700850f5200f0ff3500a0002000da
:104a500020ef070080fd2f000f004000d4fc07006e
:104a60004f05be004f04be000080fa0000000600a3
:104a7000889fbe008a1f7800800478008102780039
:104a8000820078000344780019437800994390002d
:104a9000874c780096449800a5449800b444980048
:104aa000648044000881fb00ddee0700644444009c
:104ab000e85c9800394290000482fb00841f780073
:104ac000294290000482fb00841f78001942900064
:104ad0000482fb00841f7800994278000582fb0065
:104ae000841f780084e32800841f7800fbee070011
:104af000695a90000482fb0064025200ea87570062
:104b0000e00f5200110034000002eb000444780072
:104b1000dae628006402420069427a000482fb005f
:104b2000841f78008a1f7800ecee07000844e80034
:104b30000882fb00e95a90008582fb00e482520063
:104b4000e4875700850f5200f2ff3500a0002000d7
:104b5000e0ee07000900780095fc07004f0578009b
:104b60004f04be00000006002000fa00881f7800f5
:104b70000004780018027800e00f520004003200b0
:104b8000a5052000850f52005f003a0002003700a3
:104b9000a4052000040c7800fdfb0700c08f8800ee
:104ba0000042eb00e00f500059003200505a9000d4
:104bb000c05a9000854f5200080032008582fb00e9
:104bc000851f78000482fb00841f780034e72800ea
:104bd000841f7800c1ee0700e6875700c08f800071
:104be000204290000482fb0005002000040ab1006e
:104bf0000580b100f10f5200e08f5a003b003e00eb
:104c000004600100340037002b0037003700370004
:104c100036003700350037003400370033003700e6
:104c20003200370031003700300037002f003700e6
:104c30002e0037002d0037002c0037002b003700e6
:104c40002a003700010037001300370010407800b9
:104c50000082fb00841f780094e92800841f7800fc
:104c60009eee070054c5b300a4df9f00a4cab300a2
:104c7000b4df9f000042eb0023c0b300a2fd2f0071
:104c80000f014100110a2000c08f800078ff07004b
:104c9000e4875700beff3700104078000082fb0019
:104ca000841f7800c4ed2800841f78008bee070075
:104cb000e4875700b6ff3700104078000082fb0001
:104cc000841f7800b4ef2800841f780083ee07006b
:104cd000e4875700aeff370024c0b300444098007b
:104ce000010a20001bff0700a9ff37000042eb006c
:104cf00023c0b300e2fd2f000f014100110a200084
:104d00005bff0700a2ff3700000ceb0034c0b300cc
:104d1000044078004f0478000080fa00000006008c
:104d2000726fef0000000600881f78000004780012
:104d300018019000180078008000eb003fee07009b
:104d4000180290000402e900340498000002eb000d
:104d500024049800144c98004f04780000000600ca
:104d60001200980001087800efff0700000006001d
:104d70001048900000000600cf91de0001014100c4
:104d8000e081490005003b00100290000401410051
:104d9000e081490006b025000c00330010029000ad
:104da00005002000820f5200838f5a0006003c004d
:104db000040151008581590006c02500820f520070
:104dc000838f5a0001003400020378000600780047
:104dd00000000600904a9000638362000042eb00ee
:104de0000c003a002002900010039000860f520041
:104df000020036000514a00015489800b00290008b
:104e000005026a0004f0a7000402ea000402ea00b6
:104e10004f22de000440780000000600881f780062
:104e2000000478000101ea00b80090000800780052
:104e3000d1ff0700300498004f04780000000600fe
:104e4000881f780000047800184a9000e20262008f
:104e50000040eb000f003a00b8009000980290006c
:104e6000858f5000020036000414a000144c9800f6
:104e70001200200008007800bfff07002802900001
:104e80000400680000f0a7000000ea000000ea004b
:104e90004f00de004f04780000000600881f7800f5
:104ea0000004780008007800e5ff0700e04f50009c
:104eb0000a003200b80090001200200008007800bc
:104ec000adff07003004980018024000144078003d
:104ed000004aeb000080fb000300370060f128006f
:104ee000ebed070000a025004f047800000006004d
:104ef000881f78000004780008007800d0ff0700c1
:104f0000e04f500008003200b8009000120020006e
:104f10000800780098ff07001802780064407800c5
:104f20000080fb000300370060f12800d8ed070087
:104f300000a025004f04780000000600889fbe00f6
:104f40008a9fbe0080047800820578000105780001
:104f50000004eb000400370009007800cfff0700d1
:104f6000005d78000804e80009007800b4ff07003d
:104f7000e04f5000020032008b0f5400f6ff390062
:104f8000080078004f05be004f04be000000060078
:104f9000889fbe00000478008144780008007800f3
:104fa0008cff0700e04f50000a00320098027800a2
:104fb0002802900089727a00a80090001200200058
:104fc000080078006cff07002004980010c0b300b0
:104fd0000a003700084a9000610262000040eb00be
:104fe00006003a00a0f22800a9ed0700184a900038
:104ff0000404a000144c98000040eb004f04be00d5
:1050000000000600889fbe008a9fbe008c1f7800ab
:10501000000678008205780018c0b300e08f5500c4
:105020000a003200010578008004eb00ba407800e5
:105030000c007800d6ff0700004464000300320033
:105040008904e800898f5500f8ff3e000840780089
:105050004f0678004f05be004f04be00000006005a
:1050600020039000b002900005025300850f53000a
:105070000200310090029000050242000400780016
:1050800000000600000006000082fb0026842200cb
:10509000e08f50000100320001037800040242005a
:1050a0008594210086327a00e14f50001c003200c6
:1050b00003003900e24f50004f003a003300370040
:1050c0008282fb008502ea00cf2ade00e4ff2f0087
:1050d000170480000703620085027300150488002e
:1050e0008400a90001f0a7008100ea008100ea0025
:1050f000cf08de00a50480000502620001027200f4
:10510000a4048800e781610084ff2f002605800049
:105110000602620083017200230588003600370012
:105120000281fb000201ea004f11de000201410092
:10513000d4ff2f00170480000702620002017200f2
:10514000120488008680a90001f0a7008100ea000f
:105150008102ea00cf2ade00c42add00f4fe2f001f
:10516000b60480000602620005027200b4048800e2
:10517000e781610084ff2f0077058000070262004d
:1051800083017200730588001b0037008282fb00d8
:105190008502ea00cf2ade00c22add00b4ff2f001c
:1051a00016048000060262000502720014048800e2
:1051b00087a0a90001f0a7008100ea008102ea00af
:1051c000cf2ade00cd2add00f4ff2d00b7048000d9
:1051d0000702620005027200b40488006782610061
:1051e0004422dd00f3f82f009505800085816100e1
:1051f000848171009305880000000600889fbe002e
:105200008a1f78000044eb00884478000005eb001a
:1052100089417800094178008a00780008407800c8
:1052200099ff07000844e800e34f5400f8ff3a00f4
:105230004f0578004f04be00000006003600f8005d
:10524000809fbe00829fbe00849fbe00869fbe00de
:1052500044ca8000e00f5200050032000040eb001d
:1052600004000100e04f5000010032008400a9005a
:105270004f03be004f02be004f01be004f00be00f4
:105280003600f900004006003600f800809fbe009e
:10529000829fbe00849fbe00869fbe0054ca8000cd
:1052a000e00f52000500320010c0b30004000100fe
:1052b000e04f5000010032008680a9004f03be007d
:1052c0004f02be004f01be004f00be003600f90085
:1052d000004006003600f800809fbe00829fbe009e
:1052e000849fbe00869fbe0064ca8000e00f52000b
:1052f0000500320020c0b30004000100e04f500060
:105300000100320087a0a9004f03be004f02be007b
:105310004f01be004f00be003600f90000400600fd
:020000040000fa
:10532000221900001c000000000000003e190000cf
:105330000a00000002000000000000000000000061
:1053400000000000000000005e19000002000000e4
:10535000000000004e1900000400000002000000e0
:1053600000000000000000009e1600001a0100006e
:1053700000000000601900000200000002000000b0
:1053800000000000621900000200000000000000a0
:10539000fa1100007c02000000000000700f000005
:1053a0008a02000000000000521900000400000002
:1053b000020000000000000000000000a81800002b
:1053c0005a00000000000000b8170000f0000000c4
:1053d0000000000002190000200000000000000092
:1053e00048190000060000000000000064190000d9
:1053f00002000000000000007614000028020000f7
:105400000000000056190000040000000000000029
:105410005a1900000400000000000000000800000d
:105420007007000000000000561a0000060000008f
:1054300000000000301a00002600000002000000fa
:10544000571a000000571a0009000000000200006f
:10545000591a000000591a000e0201000000000055
:105460000000000000000000060202000000000032
:10547000301a0000061a00002a0000000200000096
:10548000303132003334350036373800394142008c
:105490004344450046003000313233003435360095
:1054a00037383900616263006465660000286e0069
:1054b000756c6c002900000066190000a000000057
:1054c00002000000010000000000000000000a00cf
:1054d0000000000000000000006400000000000068
:1054e00000000000e80300000000000000001000c1
:1054f000270000000000000000a08600010000005e
:105500000000000040420f0000000000000080008a
:1055100096980000000000000000e100f505000082
:105520000000000000ca9a003b00000000000000dc
:10553000e40b5400020000000000e8007648170069
:10554000000000000010a500d4e8000000000000ea
:10555000a0724e0018090000000040007a10f3000d
:105560005a0000000080c600a47e8d0003000000e9
:1055700000c16f00f2862300000000008a5d780001
:105580004563010000006400a7b3b600e00d000011
:1055900000e889000423c7008a0000005c1a0000ac
:1055a00002000000020000000100000000000000f6
:020000040000fa
:1055b00001082000604721000501070021002000ac
:1055c000a04821000904070000000600889fbe00d3
:1055d0000900240008002c009c16f8009a16f90017
:1055e00006020700e0b48800e00f500008003d000c
:1055f0006420210014427800e14f520002003a007a
:105600000008b2000500320022fa0700030037004c
:10561000090060000100320013020700e5b48000b9
:1056200005026400e00f5200ebff3a00002020006a
:10563000ca02b6000000ea004f00de004f04be00c0
:1056400000000600889fbe008a1f780040062000e8
:10565000010020008400070020f728000cec070060
:1056600040062000010020007f000700c542a8007e
:10567000d4c2a80040062000010020007a000700e4
:10568000d0f7280002ec07001003200011ec0700ff
:1056900064f80700200320000eec07000102070059
:1056a000300320000bec0700ef010700400320004f
:1056b00008ec070040062000010020006a000700f7
:1056c000c0f82800f2eb07000420200055168000e7
:1056d00005026200e00f520005003a0058c0b30016
:1056e00008407800b9ff0700e04f5000fcff32008f
:1056f000390820000a08200009007800a1000700ee
:1057000000047800610264000200320000f720000b
:1057100015fd07000a046400f7ff3200a01f2100f6
:1057200078f80700c01f210069f90700f2ff370071
:10573000889fbe00d4c2a800c542a900f40b200077
:10574000153a8000050262006904200078052000f7
:1057500025742000894a7800884a7800844a7800b5
:1057600004fe2f0016348000860262009500b3000c
:105770001534880045348000050262009400b300af
:105780004434880063c0b30012c0b30061ae22008d
:1057900020c0b3003cfe0700143a80000460a00063
:1057a00025742000894a7800884a7800844a780065
:1057b0001421ef0024002800f408880005202000b0
:1057c000a449210083c2b30022b2220021f928009b
:1057d000604721000800070082ad220091012000ef
:1057e000a04821008e0307004f04be000000060001
:1057f0009f030700feff3700e5692100850f500079
:1058000002003a009e36ef0003003700f5b4800036
:1058100005087800f0b48800120098006033b800e2
:1058200066009800770098000348980024009800cc
:105830004400200054009800df0307000000060029
:1058400005102000846b21008041eb0082bf220004
:10585000a1fe2800e0692100e7ff0700e4692100bc
:10586000b4b5880000000600b4b5800076ca800098
:1058700087ca80000003430081834b0066029800c2
:10588000770298002500200055029800ea030700df
:10589000000006006033b800b4b5800066029800ce
:1058a0007702980000000600b0b588003002900032
:1058b00094b58800140020005400980000000600f1
:1058c000f0b48000e00f500003003a00e0692100ce
:1058d000f5ff070001003700f3ff0700c5030700cd
:1058e000d20307000000060094b580003400980041
:1058f00050029000e10f520002003a0044002000e4
:105900005400980000000600b0b58000f6ff0700c4
:1059100074ca800085ca800061014200e0814a00ab
:1059200072ca880083ca8800e469210004007800f4
:10593000d4029000e28f520003003200e48f520044
:105940000b003a000500370064039000f403900058
:10595000860f5100878f590005003900044b9000d5
:10596000804a9000854f5300010039000400780000
:1059700014027800e00f5200edff3a00caff070062
:1059800000000600881f780000047800b4b580008d
:10599000080a9800940a90008502640003003a0007
:1059a0003500200055029800a3030700b4b580001d
:1059b0008002eb00050a9800140890000884ea00b1
:1059c00000046400180a98004f04780000000600e4
:1059d000e00f500008003200100a9000010272002f
:1059e00014089800000a90008480600002003200d1
:1059f000440020005400980000000600000a9000b7
:105a0000c822dd004822de000482720004089800eb
:105a100070529000e64f520005003200f14f5200e4
:105a200007003200e14f520006003a000200370042
:105a30004af4070003003700b703070001003700ee
:105a4000ed01070000000600000278000101d1000e
:105a50006000b8000a0032008002eb0034037800d6
:105a6000c833dd004833de000683730006004000c3
:105a7000e08048008502e800828f5200f7ff39007d
:105a8000610ab80000004200e0804a000080ea009d
:105a90008180ea0000000600889fbe0000047800b4
:105aa000580a9000e80a9000740c980005149800b9
