:020000040000fa
:080000000002040000000000f2
:020000040000fa
:10000800dc020000dc020000f627000002280000e5
:1000180004280000dc020000dc020000dc02000012
:1000280078210000dc020000dc020000402d000006
:10003800dc020000dc020000dc020000dc02000040
:10004800dc020000dc020000dc020000dc02000030
:10005800dc020000dc020000dc020000dc02000020
:10006800dc020000dc020000dc020000dc02000010
:100078009e210000dc020000dc020000dc0200001f
:10008800dc020000dc020000dc020000dc020000f0
:10009800dc020000c4210000dc020000dc020000d9
:1000a800dc020000dc020000dc020000dc020000d0
:1000b800dc020000dc020000dc020000dc020000c0
:1000c800dc020000dc020000dc020000dc020000b0
:1000d800dc020000dc020000dc020000dc020000a0
:1000e800dc020000dc020000dc020000dc02000090
:1000f800dc020000dc020000dc020000dc02000080
:10010800dc020000dc020000dc020000dc0200006f
:10011800dc020000dc020000dc020000dc0200005f
:10012800dc020000dc020000dc020000dc0200004f
:10013800dc020000dc020000dc020000dc0200003f
:10014800dc020000dc020000dc020000dc0200002f
:10015800dc020000dc020000dc020000dc0200001f
:10016800dc020000dc020000dc020000dc0200000f
:10017800dc020000dc020000dc020000dc020000ff
:10018800dc020000dc020000dc020000dc020000ef
:10019800dc020000dc020000dc020000dc020000df
:1001a800dc020000dc020000dc020000dc020000cf
:1001b800dc020000dc020000dc020000dc020000bf
:1001c800dc020000dc020000dc020000dc020000af
:1001d800dc020000dc020000dc020000dc0200009f
:1001e800dc020000dc020000dc020000dc0200008f
:0801f800dc020000dc02000043
:020000040000fa
:10020800dc020000dc020000f627000002280000e3
:1002180004280000dc020000dc020000dc02000010
:1002280078210000dc020000dc020000402d000004
:10023800dc020000dc020000dc020000dc0200003e
:10024800dc020000dc020000dc020000dc0200002e
:10025800dc020000dc020000dc020000dc0200001e
:10026800dc020000dc020000dc020000dc0200000e
:100278009e210000dc020000dc020000dc0200001d
:10028800dc020000dc020000dc020000dc020000ee
:10029800dc020000c4210000dc020000dc020000d7
:1002a800dc020000dc020000dc020000dc020000ce
:1002b800dc020000dc020000dc020000dc020000be
:1002c800dc020000dc020000dc020000dc020000ae
:1002d800dc020000dc020000dc020000dc0200009e
:1002e800dc020000dc020000dc020000dc0200008e
:1002f800dc020000dc020000dc020000dc0200007e
:10030800dc020000dc020000dc020000dc0200006d
:10031800dc020000dc020000dc020000dc0200005d
:10032800dc020000dc020000dc020000dc0200004d
:10033800dc020000dc020000dc020000dc0200003d
:10034800dc020000dc020000dc020000dc0200002d
:10035800dc020000dc020000dc020000dc0200001d
:10036800dc020000dc020000dc020000dc0200000d
:10037800dc020000dc020000dc020000dc020000fd
:10038800dc020000dc020000dc020000dc020000ed
:10039800dc020000dc020000dc020000dc020000dd
:1003a800dc020000dc020000dc020000dc020000cd
:1003b800dc020000dc020000dc020000dc020000bd
:1003c800dc020000dc020000dc020000dc020000ad
:1003d800dc020000dc020000dc020000dc0200009d
:1003e800dc020000dc020000dc020000dc0200008d
:0803f800dc020000dc02000041
:020000040000fa
:10040000af5b21000e7f22000e018800000000007b
:1004100000012000200288000c000700803222002a
:100420000100200011000700000020000000e00093
:100430000200320000000200000000000628020056
:10044000000000000040da000000fe004440a90067
:10045000003320000000e000030032000000200014
:10046000a00188004440a800000006009101880017
:10047000800078000000eb0015003700e2804000ab
:1004800032a0b4009101ba00e280400032a0b40072
:100490009102ba00e280400032a0b4000002eb00fa
:1004a000472bde00f507b200602ce10004003a00a3
:1004b0000059eb008301e900fdff3e000400370016
:1004c0006128e100010032000082eb000400070017
:1004d0001101ba000200e000e8ff3a000000060047
:1004e0003159ba008301e9000c0032002159ba00e9
:1004f0008301e900080032000400e00003003a0034
:10050000e280400032a0b400f5ff370011d9ba00f4
:100510008301e900faff3a008100e800e180400031
:1005200032a0b4000000060000000000000000003f
:1005300000000000000000000000000000000000bb
:1005400000000000000000000000000000000000ab
:10055000000000000000000000000000000000009b
:10056000000000000000000000000000000000008b
:10057000000000000000000000000000000000007b
:10058000000000000000000000000000000000006b
:10059000000000000000000000000000000000005b
:1005a000000000000000000000000000000000004b
:1005b00000000000000000000040da000000fe0023
:1005c000e68747008e1f7800d0bf9f0066875700e0
:1005d000012f78000e0037005fbb970016407800af
:1005e000efba9700154278000201e900844f5000ed
:1005f000040032000080fb000482fb000400500075
:10060000060037000603e800d6bf9f00050fe8008c
:10061000e00f5100f0ff3a00020078004f07780029
:100620006f00b10000000600889fbe000004be00fd
:10063000050037000000fb0089007800ba020700bf
:10064000e10f40000400320038407800e04f5000d5
:10065000f8ff3a000000eb004f04be000000060067
:10066000881f780081592100efff070000047800ff
:1006700081592100a0002000ab020700080078008b
:100680004f04780000000600b042780031c25200ea
:1006900002003a00e0cf5200fbff3a000400fb00ea
:1006a000000006000c00fa00889fbe0000047800dd
:1006b000f4ff2700d4bf9f008004eb0099bf9f0088
:1006c00088bf9f00a8bf9f00240c2000b4bf9f00dc
:1006d00078815700cfb0970070805700070007005f
:1006e0000fba9700094a78000fba97000800520025
:1006f0004f04be000080fa00000006002f03b00087
:10070000889fbe008a9fbe008c9fbe008e1f78000f
:10071000e0af9f00c1af9f00b2b79f008006eb0023
:100720006e023700cfa897008100e800c1af9f009c
:1007300054c2b300844f500006003a000102780012
:100740000006eb0001c3b30000c2b300b7c2b300a0
:10075000070037000000fb00efa8970072020700b7
:10076000e10f40005d0232008d06e8005b023700b9
:100770008402780034437800d2c2b300824f530021
:100780000900320005003c00804f53000800320091
:10079000874f53000c003a0007003700814f530089
:1007a00009003a00060037000c30a000f0ff3700c7
:1007b0000c00a000eeff37000c10a000ecff37008b
:1007c0000c20a000eaff3700620266000100320040
:1007d0000c00a10068026600010032000c20a1009c
:1007e0000602fb000403b100e90f52000c003e00ba
:1007f000050378000002eb006a22b900b603fb0093
:100800000703b10004824300860278009603fb00d0
:100810000703b100e98f5300f7ff360008003700e7
:100820000002eb00a7c2b300874f530004003a0058
:10083000bfb1970043027800b3b79f008502e8007c
:100840000007eb00e6c2b300954f13000a003a0020
:100850000ce0a00064435300d54f130002003200a7
:1008600005037800080037003fb39700460778007b
:10087000b6b79f008502e80005037800080037003e
:100880006a70b9000087430086027800b603fb0057
:100890000703b100e98f5300f9ff3600f6ff370078
:1008a000b6427800c6af9f00c0c6b30080cf5200ea
:1008b000250032000f003c0036c6b30086cf520040
:1008c0006e00320004003c00e0cf5200080232000b
:1008d0006b4353000f00370046c6b30086cf52006b
:1008e000170032006543430086cf520083003a0070
:1008f0001300370036c7b30086cf52001f00320006
:1009000007003c006443530086cf520014003200bd
:100910000643e80086cf520078003a001300370003
:1009200056c7b30086cf52007900320063434300bc
:1009300086cf520071003a00a5c79f000d00370016
:10094000a5c79f0074003700f00366000501200072
:10095000010032000500280005067600d0ff3700b0
:10096000a5c79f000c60a0006b003700a5c79f00c3
:100970000c50a0000c70a00067003700a5c79f00b6
:10098000bfb09700c1027800b1b79f00050478009e
:10099000e08f520001003a00485821000803780017
:1009a0008002eb00010037008502e800e6c37a0010
:1009b000e0cf5300fcff3a0085047800e00f5700b9
:1009c00003003200890f5700010031008e047800c7
:1009d0000007eb00890f52000100360009075200a2
:1009e0006806660014003a0007003700efa8970079
:1009f00000022000cc010700e10f4000010032009e
:100a00008d06e8000e07e900e00f5700f7ff3a00f7
:100a10000087eb0008003700080278003400fb0074
:100a200004047800efa89700bf010700e10f400021
:100a3000010032008d06e800090278008404e90014
:100a4000e00f5200f4ff3a00e00f5600a30132001d
:100a500007003700efa8970000022000b20107004e
:100a6000e10f4000010032008d06e8000e07e900aa
:100a7000e00f5700f7ff3a00980137003fb19700a9
:100a8000c2027800b2b79f0005007800cf80de0078
:100a90000101780082017800f0af9f0081b79f00cc
:100aa00092b79f00a3b79f004800de00c80add0090
:100ab00000807200a0c79f0070036600090032002a
:100ac000e04f500007003200e14f400005003200c7
:100ad000b0c79f006fdb9700c6c79f0029002000aa
:100ae00003003700efdb9700b7c79f001900200015
:100af00038fc2f000f044400b0ff3700a5c79f004b
:100b000028fc2f000f04440019002000abff370021
:100b1000a5c79f000c0cb3008c027800050cb20036
:100b20002b003a00e00f560005003d003fb0970053
:100b30004005be004004be00b0b79f00170037005c
:100b4000f00266000f003200bfb297004501be0000
:100b5000b5b79f00c2a79f00d3a79f0005037800e9
:100b600096029000cfaade00e5a79f00f5a79f00a0
:100b70004fa49700dfa497006fa59700ffa59700eb
:100b8000060037003fb0970040047800b0b79f00e0
:100b9000cfc4de00090578008a057800e00f540014
:100ba000e08f5c00e00f5d00e08f5d0025003d0000
:100bb0003c00b3006000b8006011b80008045000a9
:100bc000898458000a0559008b8559001d0037009b
:100bd000e00f560005003d00bfb097004105be0084
:100be0004104be00b1b79f0016003700f002660056
:100bf0000e003200bfb297004501be00b5b79f009e
:100c000082af9f0093af9f000003eb00a6af9f0051
:100c10008003eb00b7af9f000fac97009fac97002d
:100c20002fad9700bfad9700060037003fb097008b
:100c300040047800b0b79f00090020000a0020009f
:100c40000b002000e00f570007003a001e002000b4
:100c5000e00f5400e08f5c00e00f5d00e08f5d006e
:100c6000010032000007eb008c007800010cb2009c
:100c7000f1af9f0005042000858f50002c0032004a
:100c800003003c00e08f5000080032003c003700b9
:100c9000050820007fa99700850f51001000320041
:100ca000050c2000850f510035003a00a64c2100ac
:100cb00015c0b3003600be003601be000040e100a2
:100cc00001c8e10002d0e10003d8e1002b003900a7
:100cd0008542e800f4cf5200f6ff3a0027003700c3
:100ce00015c0b30000012000010020006011b80011
:100cf0000040e10001c8e10002d0e10003d8e100ba
:100d00001e003900460020000000d0008180d20083
:100d10000281d2008381d2000603e900faff3a0083
:100d20008542e800f0cf5200f1ff3a00130037008f
:100d300015c0b30080002000010020006011b80041
:100d40000040e10001c8e10002d0e10003d8e10069
:100d50000a003900370020000000d0008180d20056
:100d60000281d2008381d2008703e900faff3a00b2
:100d70008542e800f5cf5200f1ff3a00a5c79f0079
:100d80002fc097008002fb008e8f520002003d00b2
:100d9000aec79f0003003700850f570001003d00dc
:100da00005077800e00f520003003200e3026600fe
:100db000010032000402e9000500240085026600fb
:100dc000050032008e0f5200020034000e02520065
:100dd000010037000002eb002fc197008202fb00e8
:100de0008001eb00d3af9f00850f5200020034005a
:100df00085025200d5af9f00640266002c003200cd
:100e0000e202660061026600e08f520006003200d6
:100e1000b0022000e00f5200010032000080e80024
:100e2000efa8970004003700e00f520006003200e0
:100e3000efa8970000022000bb000700e10f400070
:100e4000010032008d06e8005faa9700e00f520013
:100e50008d0032000802be000a03be00dfac97001e
:100e6000efa8970000032000c4b79f00d5b79f00ec
:100e7000e6b79f00f7b79f00ab0007004fb297009f
:100e8000dfb297006fb39700ffb39700e10f400008
:100e9000010032008d06e8008904e900f0ff3a0005
:100ea000d9af9f000605be000404be0076003700df
:100eb000dfaa9700e08f5200180032006802660037
:100ec00016003a000802be000a03be00dfac97001d
:100ed000efa8970000022000c4b79f00d5b79f007d
:100ee000e6b79f00f7b79f008f0007004fb297004b
:100ef000dfb297006fb39700ffb39700e10f400098
:100f0000010032008d06e8008904e900f0ff3a0094
:100f1000d9af9f000605be000404be00e2026600d1
:100f200061026600e08f520006003200b00220002d
:100f3000e00f5200010032000080e800efa89700a7
:100f400004003700e00f52004f003200efa8970076
:100f50000002200074000700e10f40004a00320048
:100f60008d06e800480037000e07e9007fab9700c8
:100f700007042000870f53002d00320003003c00bf
:100f8000e00f53000800320037003700040820004b
:100f90007fae9700840f560012003200040c200030
:100fa000840f560030003a004372dd00204c2100cf
:100fb000000242005403be004402be000800be000e
:100fc0000a01be00bb010700a400200005002000ac
:100fd0006033b800be01070004c3b3000442400000
:100fe0002000370034572100bfa29700e08f520045
:100ff0000100320024562100c272dd000800be004c
:101000000a01be008502e900050033008301d1001a
:101010000281d3008180d3000080d300f9ff370024
:101020006f00600064407800a0c79f000e0037008a
:101030006372b9000800be000a01be000406780011
:101040000c06e900050033008301d1000281d300c2
:101050008180d3000080d300f9ff37006742600031
:101060000443b000a4c79f00afc097000100fb007d
:10107000efa897002c000700e10f400006003200a7
:101080008d06e800040037000c0178000202b2006f
:10109000b2a79f008cbf9f00e00f5700b2ff3a003d
:1010a0000fbe9700680666000c003200dfa99700ab
:1010b000e08f51000900340003067800efa8970084
:1010c0000002200018000700e10f4000010032007c
:1010d0008d06e8000c06e900f8ff3a004faa9700d9
:1010e00014407800a0c79f00e04f50008dfd3a00eb
:1010f0000d0078004f0778004f06be004f05be0078
:101100004f04be002f03b100000006000000fa00eb
:1011100068815700cfb897008059210077fd0700fc
:101120000080fa0000000600889fbe0001047800dd
:1011300038029000e20262008084eb003b00320043
:10114000040378000620b2009802900002003a00e2
:10115000e08f520035003a000490a000340498005b
:1011600080047800f90fb200e08f520002003a00cc
:10117000a8029000050c7800ea8f540005003a00a0
:101180000408b20003003a0088007800d000200074
:10119000e5ff070018029000d8029000850f52006a
:1011a0000b0032000402e8001404980018027800d2
:1011b000094a7800040ce80015c0b300245b210044
:1011c000054a7800ea8f540018003a0005003700fd
:1011d0008800780009407800170007008004780034
:1011e00012003700380290000410b2000f003200e5
:1011f00018019000a80090004800900052000700dd
:1012000018029000840f5000040032003802900051
:101210000403b300340498008084eb000002eb0068
:101220001404980028029000040c7800090078004b
:101230004f04be00000006000200fa00889fbe00b6
:10124000a0ff9f000104780038029000840278001b
:101250000504b200020032000000fb003500370038
:10126000e202620005003a000403b300340498006f
:10127000150498000080eb002e003700d804900081
:10128000e08f540006003a0012002000e68057006c
:10129000480090002c000700190498002300370034
:1012a000a8029000e08f520008003a00555b210030
:1012b00025049800050c78002500200055049800ae
:1012c000150498000430a000340498001801900020
:1012d000a8009000480090001b0007002802900022
:1012e0008082eb0015049800affa9700054a780059
:1012f000040ce8002ffa9700ea4f52000b003a0066
:10130000380290000410b20008003200180190006a
:10131000a8009000480090000b0007000002eb00be
:1013200014049800a8029000050c78002ffa97008a
:101330000400fb004f04be000080fa00000006001d
:1013400000c0da00000006000a00fa00e20f5000b8
:1013500022003e00c4ad8000e10f520006003200c2
:10136000872320004623200024232000052320007b
:10137000e08f530004003a0087222000462220001c
:101380002422200005222000000028001500600013
:1013900003003a00800b780007002800958a73004c
:1013a000054020009482620001003a0014a0a000d1
:1013b0008202780006003700940378000710b2001c
:1013c000fdff3200b103fb00070b78008502e90046
:1013d000e08f5200f8ff3a00080037003400200088
:1013e000b4bf9f00c0bf9f00d1bf9f00e2bf9f005e
:1013f0006a805700d2ff07006fb99700020078009b
:101400000080fa0000000600889fbe008a9fbe0090
:101410003004be002005be000404440085844c0056
:1014200006054d0087854d000898be000a90be0055
:101430000440e10005c8e10006d0e10007d8e10062
:1014400002003100680040001008e8004f05be00af
:101450004f04be00000006001000fa00889fbe0086
:101460008a9fbe000605be000404be003002be0016
:101470002003be00c4b79f00d5b79f00e6b79f000a
:10148000f7b79f000802520089825a000a035b00e6
:101490008b835b0084bf9f0095bf9f00a6bf9f000a
:1014a000b7bf9f000498be000698be001100200040
:1014b0004fb29700dfb297006fb39700ffb397006a
:1014c0000820e10009a8e1000ab0e1000bb8e10042
:1014d000010039008000eb00108810004f05be00ad
:1014e0004f04be000080fa00000006001400fa005d
:1014f000889fbe008a9fbe008c9fbe003f000700f1
:101500000605be000404be000006eb00ccb79f0039
:10151000bcb79f00acb79f009cb79f008cb79f00e3
:101520000d0420004fb39700bfb29700860343001d
:101530002fb29700e00f530004003d003d0007006c
:101540000f004000b0ff070003003700390007001c
:101550000f004000c0ff0700cfb2970095bf9f006b
:10156000e08f5200090035002b0007001400200016
:10157000050020006033b800000072008180720016
:1015800002017300838173001c0007000c06e80051
:101590008d0f5600e3ff3a001fba9700e00f52008c
:1015a00005003d000802be000a03be0000fe2f0039
:1015b0000f00400094ff07004faa9700e00f520071
:1015c00008003a000fb497009fb497002fb597001a
:1015d000bfb59700d8b79f00e9b79f00fab79f0043
:1015e0008bbf9f000c0007004f06be004f05be00da
:1015f0004f04be000080fa00000006000100070052
:101600000000060090b79f00a1b79f00b2b79f00ef
:10161000c3b79f000000060001000700000006009d
:101620001fb09700afb097003fb19700cfb19700c0
:10163000000006004f2bde0087037300a7b79f0052
:101640004f23de00858242008502730095b79f001c
:10165000ffaa97004f2bde00040242000402730031
:1016600084b79f006faa97004f23de008582420057
:1016700085027300f5af9f00e9ff07004f18de00f9
:101680000402420000027200e4af9f00e4ff070082
:101690000000400081804800020149008381490028
:1016a000d8ff07000802be000a03be0000fe2f009c
:1016b00000000600881f780018002000881f7800ae
:1016c0008aff07008f87e9004f04780000000600ba
:1016d000801feb0085ff07008f87e90000000600f0
:020000040000fa
:1016e00074650000787400002f680000746d0000bd
:1016f0006c00000048540000545000002f310000de
:101700002e3100002032000030300000204f000059
:101710004b0d00000a4300006f6e0000746500006e
:101720006e7400002d74000079700000653a0000ae
:1017300020250000730d00000a0d00000a000000c3
:10174000313a000020250000733c00006272000066
:10175000202f00003e3200003a20000025730000d8
:101760003c620000722000002f3e00000048000094
:1017700054540000502f0000312e00003120000092
:1017800032300000302000004f4b00000d0a0000f6
:10179000436f00006e740000656e0000742d000041
:1017a00074790000706500003a2000007465000044
:1017b000787400002f680000746d00006c0d00004c
:1017c0000a0d00000a3c0000683100003e4800009d
:1017d000656c00006c6f0000207700006f720000e5
:1017e0006c6400003c2f0000683100003e54000093
:1017f0006869000073200000697300002061000028
:1018000020730000616d0000706c00006520000016
:101810007061000067650000207400006f20000008
:10182000736800006f770000207400006869000092
:10183000732000006163000074750000616c00009b
:101840006c790000207700006f7200006b7300005d
:101850002e0000003c61000020680000726500005e
:10186000663d0000222f000073790000732f0000f6
:101870007463000070690000702200003e4e00009a
:1018800065740000776f0000726b00002053000049
:1018900074610000636b00003c2f0000613e00009b
:1018a000207c0000203c00006120000068720000e5
:1018b000656600003d2200002f7300007973000070
:1018c0002f720000746f0000732200003e5200006f
:1018d000544f00005320000054610000736b00005f
:1018e000204c000069730000743c00002f61000070
:1018f0003e2000007c2000003c61000020680000c9
:1019000072650000663d0000222f00007379000020
:10191000732f0000666c00006173000068220000f5
:101920003e4600006c610000736800003c2f000020
:10193000613e00003c620000722000002f3e00006b
:10194000004600006c610000736800002049000040
:10195000443a000020250000583c0000627200005c
:10196000202f00003e000000436f00006e74000056
:10197000656e0000742000004c6500006e6700007a
:10198000746800003a200000256400003c620000fa
:10199000722000002f3e0000466900006c650000c8
:1019a0002054000079700000652000004c650000a4
:1019b0006e670000746800003a2000002564000093
:1019c0003c620000722000002f3e000046690000cb
:1019d0006c6500002054000079700000653a00003a
:1019e00020250000733c000062720000202f0000e0
:1019f0003e4600006c61000073680000204c00004f
:101a00006f63000061740000696f00006e3a0000af
:101a1000202500006c750000000000002a8c0000ea
:101a20007a8b000048540000545000002f31000011
:101a30002e3100002034000030340000204e000021
:101a40006f740000204600006f7500006e64000097
:101a50000d0a00000d0a00003c680000313e000045
:101a600034300000342000004e6f0000742000006d
:101a7000466f0000756e0000643c00002f68000097
:101a8000313e0000546800006520000070610000d5
:101a900067650000207900006f750000207200006b
:101aa00065710000756500007374000065640000d6
:101ab00020690000732000006e6f00007420000099
:101ac000666f0000756e0000642c0000207400003a
:101ad00068610000742000006d650000616e000008
:101ae0007320000069740000206400006f6500002e
:101af000736e000027740000206500007869000004
:101b0000737400002e20000000000000128d000001
:101b1000b78b000047450000540000002f6600000e
:101b200061760000696300006f6e00002e6900009e
:101b3000636f0000002f000034300000342e0000de
:101b4000687400006d6c0000002f000073790000c5
:101b5000732f0000666c00006173000068000000d5
:101b60002f670000657400002f3a0000302f00003e
:101b70003a310000002f0000002f000073790000b0
:101b8000732f000074630000706900007000000093
:101b90002f730000797300002f720000746f000033
:101ba00073000000000000008a8d00008e8d000090
:101bb00000000000000000008a8d00009b8d0000e6
:101bc0000b000000000000008a8d0000a58d0000c1
:101bd00000000000e61a00008a8d0000b08d0000b1
:101be000008000008a1a00008a8d0000bb8d000072
:101bf00000000000be1a00008a8d0000bd8d0000ac
:101c0000000000008c1b00008a8d0000c88d0000c1
:101c100000000000901b0000ca710000ca730000a1
:101c200080280000c4e70000a8600000c60500008e
:101c3000820000009062000098900000c2ac00009a
:101c400082200000550000008280000080680000b3
:101c5000ca710000ca7300001082000000ca0000b0
:101c600071800000288200008080000068ca0000a7
:101c70007306000082000000ca71000080a8000006
:101c800082200000040000005b5300005049000067
:101c90005d200000496e0000766100006c69000064
:101ca000642000007370000065650000642000007f
:101cb000706f00007274000020730000656c0000fb
:101cc0006563000074650000640000004574000056
:101cd00068000000c0a80000027b000000040000b3
:101ce000a312000034560000c0a8000002640000e7
:101cf000c860000000e300004fe3000048650000fa
:101d00006c6c00006f200000776f0000726c0000a8
:101d1000642100000d000000506900006e670000a3
:101d20002d7000006f6e0000670000004964000025
:101d30006c6500000000000052460000000000003a
:020000040000fa
:101d40000002eb00449688002497880004988800dd
:101d5000e4988800c4998800a49a8800849b88002d
:101d6000649c8800044078009ef3b700a6f3b70097
:101d70000000060044968000e00f5200060032008a
:101d8000442e210010c0b3008002eb00948f12009b
:101d900007003a00010037000040eb00c2c1b30069
:101da0000440bc00e42b2100040041000500370082
:101db0000040e8007c024200e84f5000f2ff3a0089
:101dc0000000eb0000000600889fbe008a9fbe0056
:101dd0008c9fbe008e1f7800000678008105780079
:101de000492d21000004eb00ed2b21004e002000c6
:101df0008800780029ba9700e00f520010003200e6
:101e0000998f15000e003a007c0ab900ec004200e0
:101e10008d8040000e0178000c007800e8f9070082
:101e2000e00f500006003a0008407800c2c1b3003d
:101e30000440bc00e42b21000400410005003700f1
:101e40000804e800fc844400e80f5400e8ff3a006e
:101e50000000eb004f0778004f06be004f05be00a4
:101e60004f04be0000000600842c21008042eb00dd
:101e700017002000948f13000a003a0074bb9700eb
:101e800016039000800f530006003a0005407800ca
:101e9000c2c1b3000440bc00e42b21000400410097
:101ea000050037008542e8007c024200e8cf52007e
:101eb000efff3a000000eb0000000600881f7800ea
:101ec000000478003496800004026c0004f0a7003f
:101ed0000402ea000402e9004f22de0015978000a8
:101ee000888f520001003a000442e80098429000b6
:101ef0000040eb00854f5200080032009dff0700b4
:101f0000000278000040eb00e00f520003003200b6
:101f10004802980010002000500298004f047800fa
:101f2000000006000a00fa000002eb00b4bf9f00a8
:101f30006022b800c4bf9f00d5bf9f00e4bf9f00d0
:101f4000f5bf9f000201d1003fba9700840f5100f6
:101f5000150036003fba97000402420061007a0083
:101f60003fba970004024200e1027a006fbb97007b
:101f7000ffbb9700c82add004802de000482720021
:101f800004024300e0824b00e4bf9f00f5bf9f00c6
:101f90003fba97000402e800b4bf9f003fba970021
:101fa000820f5200ebff39006fba9700ffba97001b
:101fb000b5bf9f006fba9700ffba970005002000d9
:101fc000e4bf9f00f5bf9f003fbb97006fba97002b
:101fd000ffba970006024200e0824a00e4bf9f0079
:101fe000f5bf9f006fba9700ffba97000482ea001e
:101ff0008582ea00c4bf9f00d5bf9f004fb89700fd
:10200000dfb897000080fa0000000600e68747006e
:10201000889fbe008a9fbe008c9fbe008e1f7800e6
:1020200002047800cc0cde00c24cdd008084440049
:1020300058129000e8129000a4019800b501980091
:1020400038169000c81690008c89be00330a9000a4
:10205000c822dd004822de000482720024149800a9
:102060004302900014029000c822dd004822de00e6
:10207000048272001414980038139000c813900062
:10208000c831dd0002002000483ade0005002000d3
:1020900004027100858271000a002000fb0f2000fd
:1020a0000b077800070067006101b800f2b79f00d6
:1020b00083bf9f00481edd00c816de008d06760037
:1020c0004816dd000c0272008d82720000f02f00b5
:1020d0000603600007002000483edd00c836de0031
:1020e0008d0676004836dd000c0272008d8272008b
:1020f000341498004514980058129000e81290008b
:10210000c826dd000c002000482bde000700200060
:10211000060676008786760005016700030020002a
:10212000481bdd00c813de00870373004813dd0081
:102130000601760087817600040060006102b80025
:10214000482bdd00c823de00870373004823dd0031
:10215000060271008782710054149800651498007b
:10216000081a9000c822dd004822de0004827200b6
:10217000041c9800480add00c808de0081007200d7
:10218000711498001a1c9800e88044007a004400fa
:102190005e0a070009005000660050004802de0099
:1021a0004800dd0000007200101c98001a0c980016
:1021b0008940780008007800680a07004f07780017
:1021c0004f06be004f05be004f04be006f00b100b9
:1021d000000006006083200000000600e68747003c
:1021e000889fbe008a9fbe008c9fbe008e1f780015
:1021f0000880200001c0a00001d0a10001e0a000e3
:1022000001f0a10022029000b20290005414980044
:10221000651498001203be00361498004714980005
:102220006102b8001209420052914a00f4044000d1
:10223000fa034400aae6280003000900ba5b78000c
:102240006c0741001e02be00f44088000541880072
:10225000320a9000c822dd004822de0004827200ab
:10226000241498004202900014029000c822dd005d
:102270004822de0004827200141498003813900083
:10228000c8139000c836dd000c002000483ade007c
:10229000050020000406760085867600f30f2000f6
:1022a000078161006115b800485add00c852de00a0
:1022b000850272004852dd000402760085827600b5
:1022c00002f02f00060361006136b800486bdd00a4
:1022d000c863de00870373004863dd0006027200f6
:1022e00087827200341498004514980058129000a8
:1022f000e8129000c826dd000c002000482bde000c
:10230000070020000606760087867600858161003a
:10231000611bb800f6b79f0087bf9f000605be008f
:10232000485bdd00c853de00870373004853dd00bf
:102330000603760087837600040161000300200015
:10234000481add00c812de00850272004812dd0066
:102350000403730085837300561498006714980073
:1023600054802700041c9800480add00c808de00dd
:1023700081007200711498008005eb001b1c98000e
:10238000fd0040007a004400e00907000900500009
:10239000660050004802de004800dd0000007200c8
:1023a000101c98001b0c98000801be0061c0b3000f
:1023b0000e0078000c0a07004f0778004f06be0099
:1023c0004f05be004f04be006f00b10000000600c4
:1023d000881f78000004780048029000e00f520047
:1023e000030032003402900008007800040001006d
:1023f0000d000900001ceb00c801b1000002eb0059
:10240000540498004f04780000000600889fbe0026
:102410008a9fbe008c9fbe00010478008204780071
:1024200003057800e04f50003d0032003813900063
:10243000c8139000c831dd0002002000483ade00d9
:10244000050020000401710085817100fa0f200051
:10245000070665000d002000486add00c862de0046
:10246000850272004862dd000401710085817100ff
:1024700001f02f000683600007002000483add00cd
:10248000c832de00850272004832dd0004017100ae
:102490008581710058129000e8129000c826dd0076
:1024a0000c002000482bde00070020000603760009
:1024b00087837600050565000b002000485edd007f
:1024c000c856de008d0676004856dd000c0373000a
:1024d0008d83730084806000610ab800482ddd00a0
:1024e000c825de008b0575004825dd000a03730052
:1024f0008b8373000a00250064412000041c9800af
:1025000029029000b90290005414980065149800b4
:102510001902be00341498004514980002003700d8
:102520006033b8000601be0059029000050020008b
:10253000ea0f5200e08f5a00da003e00046001000a
:102540000a003700160037003c003700d50037007e
:102550004800370086003700ab003700d100370055
:10256000b6003700b8003700c4003700e04f500015
:10257000ce0032007812900061026200cb0032007f
:102580000a40a0000801be008a0078000000eb00ad
:102590009efe070094002000d4049800c30037007a
:1025a000e04f5000c10032007812900062026200d9
:1025b000be0032000ac0a1000ad0a0000ae0a000bc
:1025c0000af0a10061014100e08149005214980025
:1025d0006314980054a52a0055a52a0034149800c5
:1025e00045149800490290002402900009007800e8
:1025f00004000100e04f5000060032002a01b30041
:1026000024002000d4049800490090002bfe07000d
:10261000050037000a20a00014002000d404980010
:102620000002eb00c40498000801be008a00780094
:102630000000eb0075fe07009c003700e04f5000e3
:102640009a00320078129000f2026200f08f52007d
:1026500003003a0044002000d4049800930037009f
:10266000640262009100320014002000d40498003b
:102670008e003700e04f50008c003200781290003e
:1026800061026200140032000a40a000581290005b
:10269000e812900061024200e0824a00541498005f
:1026a0006514980038129000c81290006102420030
:1026b000e0824a0034149800451498000801be00d6
:1026c0008a0078000000eb0050fe07009400200014
:1026d000d40498007500370038129000c81290009a
:1026e000b90f5200a98f5a0070003900f8159000f8
:1026f000cc5ede00c26edd00080e9000740656004f
:102700000d0656000c014100e0814900c35dde006a
:10271000e1c565000a40a00058129000e812900040
:10272000820f5200838f5a0008003200361498003e
:102730004714980052149800631498000801be00d2
:102740008a0078000000eb0030fe07002202200023
:10275000080141000d014100590a90008c017800e8
:102760008b40780009007800040001004f0037001a
:10277000e04f50004d00320078129000f0026200ed
:102780000d0032006102620003003a006400200084
:10279000d4049800450037000a40a0000801be009c
:1027a0008a0078000000eb0018fe0700840020007b
:1027b000d40498003d003700610262003b00320003
:1027c0000a40a00038129000c81290006102420036
:1027d000e0824a00541498006514980054a52a0019
:1027e00055a52a0034149800451498000801be002d
:1027f0008a0078000000eb0004fe0700840020003f
:10280000d404980029003700e04f50002700320020
:102810007812900061026200240032000a40a00099
:102820000801be008a0078000000eb00f7fd0700f9
:1028300084002000d40498001c00370009007800b0
:10284000e3fe070019003700e04f50000800320097
:102850000a20a0006022b800541498006514980063
:102860000801be008a0078000000eb00e7fd0700c9
:1028700009007800d6fe07000c003700e04f50003a
:10288000050032000a40a0000801be008a0078005e
:102890000000eb00ddfd070009007800ccfe07001a
:1028a0000200370014002000d40498004f06be0038
:1028b0004f05be004f04be0000000600889fbe000a
:1028c0000004780098109000480add00c808de0077
:1028d0008480700011149800a8149000484add000c
:1028e000c84cde008484740029149800781290008b
:1028f000c822dd004822de000482720074149800b1
:10290000081a9000c822dd004822de00048272000e
:10291000041c98007a0044002bfd0700e00f5000d3
:1029200010003a00090078004ffd0700e00f50004a
:1029300011003200580a9000e80a900064009800e4
:102940007500980070024000e6024400351a7800d5
:1029500025127800d802900025089800981290005f
:10296000350898008001eb000001780088007800ad
:1029700010c0b300a5fe07004f04be000000060013
:10298000889fbe008a9fbe008c9fbe008e1f78006d
:1029900000047800014578008205780083047800ff
:1029a0000040eb00049d8000880f52002a00320096
:1029b000449d8000880f520027003200e439210036
:1029c00014427800804f520007003200643a210020
:1029d00014427800804f52001f003a001d00200072
:1029e0000d477800020037008006eb000d477800a5
:1029f000e0fc0700000678000040eb00e00f560006
:102a000015003200c36edd00e53921000d82420061
:102a100015c0b300054a7800053a210088b27e004f
:102a20001a4298000582e8000bb27e000482e8009a
:102a300009b27e000c00780065fe07000e82fb00e4
:102a40004322dd00e53921000502420044069800da
:102a500010002000500698004f0778004f06be0077
:102a60004f05be004f04be0000000600889fbe0058
:102a70008a9fbe008c1f78000005eb00892c210086
:102a80000a047800eb2b21000006eb001400200064
:102a9000990f1200060036007c41b9000281450002
:102aa0008a0178008c0078000040eb0057fe070098
:102ab0000804e800fc844400e80f5400f3ff3a00e7
:102ac0004f0678004f05be004f04be000000060010
:102ad000889fbe000044780081447800780c07008d
:102ae0007f4064000064a0007e0407000940780075
:102af0007c040700760c07004f04be0000000600af
:102b0000889fbe0000447800814478006c0c070068
:102b10007f4064000074a000720407000940780040
:102b2000700407006a0c07004f04be000000060096
:102b3000889fbe000044780081447800600c070044
:102b40007f44640004cab3000440740065040700b5
:102b500009407800630407005d0c07004f04be00c5
:102b600000000600889fbe000044780081047800c1
:102b7000530c07007f4064000064a0005904070064
:102b800009407800570407004848de005504070054
:102b90004f0c07004f04be0000000600881f78009d
:102ba00000447800460c07007f4064004d04070095
:102bb0005a04070000447800450c070008407800dc
:102bc0004f04780000000600881f78000044780059
:102bd0003b0c07007f406400420407000040eb000c
:102be000400407004d04070000447800380c07003b
:102bf000084078004f04780000000600889fbe005f
:102c00000044780008407800e4ff07008084fb005f
:102c10000840e800e1ff07004800dd0009007000ff
:102c20004f04be0000000600881f780000447800b2
:102c3000944a210014427800e04f5200060032000e
:102c40001f0c0700f0cbb3002604070030c0b30010
:102c5000240407001e0c07004544de0063046400e2
:102c600008407800a9f4b700e04f54000600320095
:102c7000130c0700f0c9b3001a040700a9d4bf0061
:102c800018040700120c07004f047800000006002b
:102c9000889fbe008004780001047800080c0700bb
:102ca000a0c7b3000f040700880178000001eb0003
:102cb0008900780010c0b3002e040700040c070040
:102cc0004f04be0000000600889fbe00800478000c
:102cd00001047800fa0b0700a0c3b3000104070049
:102ce00088017800090178008000eb0010c0b30073
:102cf00020040700f60b07004f04be00000006008a
:102d0000881f78000044780008407800e04f5400a5
:102d100008003500c502de00e3826200944a21000b
:102d2000144278000482fb00848f520001003200bc
:102d3000bdff07000840780098ff07004f047800a7
:102d400000000600881f78000044780008407800e2
:102d5000e04f540008003500c502de00e382620047
:102d6000944a2100144278000482fb00848f5200b0
:102d700001003200acff0700084078009fff070009
:102d80004f04780000000600889fbe0000447800d1
:102d90008144780008407800e04f54000800350076
:102da000c502de00e3826200944a210014427800ea
:102db0000482fb00848f5200010032009aff07005a
:102dc000894078000840780041ff07004f04be00aa
:102dd00000000600889fbe0000447800814478000f
:102de00008407800e04f540008003500c502de00be
:102df000e3826200944a2100144278000482fb00be
:102e0000848f52000100320087ff0700894078005c
:102e1000084078003aff07004f04be00000006009b
:102e2000889fbe0000447800814478000840780004
:102e3000e04f540008003500c502de00e382620066
:102e4000944a2100144278000482fb00848f5200cf
:102e50000100320074ff07008940780008407800c4
:102e600033ff07004f04be0000000600889fbe002d
:102e7000004478008104780008407800e04f540056
:102e800008003500c502de00e3826200944a21009a
:102e9000144278000482fb00848f5200010032004b
:102ea00061ff0700894078000840780008ff0700ac
:102eb000c848de000840e80005ff07004f04be00d8
:102ec00000000600881f7800010478008040780028
:102ed00040c5b300acff07008800780060c5b300b0
:102ee000e2ff07004f04780000000600889fbe0044
:102ef0008040780040c5b300a3ff070011c0b300b5
:102f000020c5b300b3ff0700a8c6b300084078008f
:102f10002dff070061006000fcff3a0011c0b30004
:102f200020c5b300beff0700650b070080c1b300da
:102f30006c0307000040eb006a03070077030700fb
:102f40008084fb00620b07005d0b070090c1b3009b
:102f5000640307000040eb00620307006f030700f3
:102f6000004478005a0b07004840dd00090070005b
:102f70004f04be00000006000040eb000000060009
:102f8000889fbe008a9fbe008c9fbe00800678008e
:102f900001067800f8c9b30089c0b3000600370005
:102fa00089407800084078008aff0700894078004f
:102fb000084078009aff07000840780050ff07009b
:102fc00068006000f6ff3a000100210020c0b30055
:102fd000a6ff0700010021008100460060c0b30089
:102fe000a2ff070011002000804a210028ff0700ef
:102ff000e00f5600120032008c0478000004eb0051
:103000001b0021008ac0b3008b00440020c0b30025
:1030100096ff07008a407800e88f540001003e00c8
:10302000894078008180fb000880460018ff070077
:1030300068044400e8845400880f5600f2ff3e0004
:10304000a1c0b300c0c9b30075ff0700180b07008b
:1030500081c0b300f0c9b3005eff0700160b070084
:10306000f8ff2f00f9002000cac9b3000086eb006a
:103070008086eb000a40780021ff070068006000ae
:1030800005003a0061045400e0845c008c0f540099
:103090008d8f5c00f7ff3a0010c0b300e10f5400c1
:1030a000e08f5c0001003e000040eb004f06be00d8
:1030b0004f05be004f04be00000006000600fa00e7
:1030c0001002be00d4bf9f00e5bf9f00a002900089
:1030d000f5bf9f0066024000341878002410780085
:1030e00050029000240098005fba9700efba970052
:1030f0003400980045009800ffba970055009800ea
:10310000ee8040009eff07000080fa0000000600ed
:10311000c0c9b300fafe0700004278000404b20000
:1031200010c0b3004240a90001003c000040eb0089
:103130000000060090c3b300f1fe07000000060087
:10314000e8874700889fbe008a9fbe008c9fbe0014
:103150008e1f7800f7ff0700e04f5000600032003c
:103160008dc0b3000d457800e20a070031a580004c
:103170000040eb003dff0700610020007480570015
:10318000d1fe07005fef97000e0278004827dd00b0
:10319000cfea97000582fb0004077700efea97006b
:1031a0007fee97000ff297007002620032003a0043
:1031b0004866dd008582fb00050676008c85e90007
:1031c000c4442000848f5500060036008b44200044
:1031d000ac4420008cc4e9000004eb000c86e9003c
:1031e00003003700e08f5500faff3a001200370065
:1031f00031a58000e4804000888040000040eb0062
:103200001aff0700080256008a407800e80f5200b3
:1032100001003e00894078008180fb000080200092
:1032200000004400a8fe070068044400e8c45400fd
:103230008b0f5400eeff390074408000c822dd007f
:103240004822de00050272007440880005802000dc
:10325000850f520003003a00208020001c06070062
:103260000500370065802000850f520002003a00fb
:1032700020802000db0807003ea588000d40780074
:10328000b0fe070031a580000080fb00810f5000d8
:1032900006003a00a0c0b300aafe07008080fb0031
:1032a000c0c0b300f1fe0700030037008100e90051
:1032b000c0c0b300edfe07007d0a070001c4b300e3
:1032c000e0c9b300c3fe07007b0a070099ff0700af
:1032d00000447800880a0700e04f5400a2ff3a003b
:1032e0004f0778004f06be004f05be004f04be00da
:1032f0008f00b10000000600889fbe0008c4b30024
:10330000e9c9b3000300370088407800094078001d
:10331000b0fe07007eff0700e04f5000faff3a00c2
:103320008000eb0080c0b300d0fe0700f1ff20005a
:10333000a0c0b300cdfe07008000eb00c0c0b3000a
:10334000cafe07000100210040c0b300c7fe07000d
:10335000f1ff210060c0b300c4fe0700f1c7b30055
:10336000c0c9b300aefe07004f04be000000060057
:10337000d2e2a80000000000d2e2a9000000000094
:10338000d2e2a80050002000010020006b050700d9
:10339000d302a90000c0eb0052020700d302a8002c
:1033a00000000600881f7800d302a800400a07002a
:1033b000efff0700a00f2000010020005f050700bd
:1033c00020c7b3004efe070001c4b300e0c9b3003c
:1033d00080fe0700d8c9b3000840780048fe070007
:1033e00061006000fcff32002174200040c1b30086
:1033f000b4fe07008000eb0080c0b3009bfe070016
:10340000f1ff2000a0c0b30098fe07008000eb0091
:10341000c0c0b30095fe07000100210040c0b3000a
:1034200092fe0700f1ff210060c0b3008ffe07008d
:10343000d1c0b30000c4b30053fe070061cfb30096
:1034400020c4b30050fe070001c4b30030c4b30071
:103450004dfe0700e15e2000a0c4b30083fe07001c
:1034600021c1b30040c4b30047fe070021c12000c2
:1034700060c4b3007dfe0700e4e6280094407800b5
:1034800040c6b30040fe0700f4e6280094407800f0
:1034900050c6b3003cfe070004e7280094407800c3
:1034a00020c6b30038fe070014e7280094407800d7
:1034b00030c6b30034fe070024e7280094407800ab
:1034c00000c6b30030fe070034e7280094407800bf
:1034d00010c6b3002cfe070011ccb300b0c9b30076
:1034e0003cfe0700f1c7b300c0c9b3004cfe0700a3
:1034f0000110200000c1b30072fe070041c0b300fc
:10350000f0c9b30033fe0700eb0907004f04780051
:1035100000000600889fbe00800478000104780047
:1035200004b72800841f7800a4b72800841f7800ff
:10353000b0a580005bf40700c0a58800b614b400f5
:1035400018029000841f7800981f780004ba2800a1
:10355000841f780053f40700c4a5800004004000d5
:10356000c0a5880009017800910120001bfb07001d
:10357000ea8757004f04be000000060000017800f3
:10358000b4a5800075bb280072000900355a780088
:103590003407b10024072000c4a58800b4a580002a
:1035a0002607200006034200a5c228007600090075
:1035b000355b7800c0a580006007b000c0a588001a
:1035c0009101200005fb0700000006004400fa00fe
:1035d000881f78000004780004b72800841f780052
:1035e000a4b72800841f7800b0a580002df4070040
:1035f000c0a58800b614b400a4c228007600090053
:10360000345878007007b10060072000b834b40067
:103610002108070000027800c0a58000b614b4009d
:10362000841f780014ca2800841f78001df4070046
:10363000b834b4000002eb00040f780014079800bf
:10364000230020000e0178006000b8001f0807006a
:10365000230020000301470020002000010020007b
:103660001a0807009e019000e8875700f403200025
:10367000848f510009003e00640147004000200093
:1036800001002000110807001e02900004024700fc
:103690008042eb0045429800040037000042eb00f6
:1036a0004447980014002000140798001e02900060
:1036b000c0a58000b614b4006403420007002000d7
:1036c000869fbe00e41f4700841f78009e1f78007d
:1036d00044cb2800841f7800f2f30700c4a58000c3
:1036e00004004000c0a58800080178009101200076
:1036f000bafa0700ec8757004f0478000080fa0000
:103700000000060032fb070000000600b1002000a8
:10371000fcff070000000600fcff07000000060099
:10372000faff0700000006004f05b000889fbe00aa
:103730008a9fbe008c9fbe008e1f780001447800d7
:103740008204780080bf9f00b834ef00a1fa070020
:10375000b0a58800e04f5400be00320099427800c6
:103760000042eb0006c2b30086cf52000b003200cd
:1037700084cf5200b3003a00080037000442e8004a
:10378000e44f520005003200d642780087cf520045
:1037900002003200e0cf5200f8ff3a000482fb0042
:1037a0000402e80084844400194278008042eb005f
:1037b00006c2b300864f52000c003200854f520003
:1037c00099003a0009003700046f78008542e8004c
:1037d00087cf52000500320059427800864f5200d0
:1037e00002003200e04f5200f7ff3a008582fb00f2
:1037f00006c0b30002fa2f000f01410006f17a0063
:103800006ddd28000005eb000d87e900a9c3b300ba
:103810000bcdb300f8c2b3004356dd000e064600e0
:103820002c029000e00f52000b00350001fa2f002f
:103830008f8040001d00780093f30700e00f5000d8
:1038400062003a008f0378000702b1000700090008
:10385000801beb00700037001d03780007fa2f0073
:103860008f8343000040eb0031003700894f520046
:1038700029003a008600780051c24500ef4f5200ff
:1038800009003e008482fb008582420002fa2f007c
:103890000f0141008502410087229800844f5000ab
:1038a000010031000440780017427800e04f5200d8
:1038b00007003200884f5200050032000702e8007e
:1038c00084037800b4427800e0cf520007003a0049
:1038d00011427800e04f520014003200884f52002d
:1038e00005003a00010378001100370088cf52002c
:1038f000f3ff3a00f6ff37000682e8000403780081
:10390000b4427800e0cf52000900320088cf520064
:10391000faff3a0006003700974f52000b003a00ba
:103920000603e8008703e800010037000103780080
:1039300016427800e04f5200ccff3a000c017800ac
:10394000e04f500006003a00330037000f027800c5
:103950000402b10007000900001aeb001b00370049
:1039600006fe2f000f0343008680e9008041e90036
:103970008381fb008381410086814100f7c2b3004f
:103980000040eb005103780016427800e04f5200ef
:1039900009003200874f5200070032000602e8009b
:1039a00004037800b4427800e0cf520002003200f5
:1039b00087cf5200faff3a00004b7800838f500007
:1039c000f0ff3a0002067800130037000a05e8000d
:1039d000e8864600e70f55008fff3a000fb89700c2
:1039e0004aff070009003700ac00900001f0a10079
:1039f0000fb8970043ff07000400370001fe2f00b7
:103a00008f8040000fb89700040001000fb89700a6
:103a10006ffa07000f0037003c029000e00f5200e1
:103a2000f6ff3a00f0ff370084679f000efa2f0080
:103a30000f07470015c0b30006c2b30007c4b300a8
:103a400065ff37000903780014c0b30007c2b30054
:103a50004dff37004f0778004f06be004f05be00f0
:103a60004f04be004f05b10000000600e14f5000ba
:103a700003003200e24f500011003a000800370006
:103a8000e1cf500003003a00b41320001412880064
:103a90000f003700a4132000141288000c00370018
:103aa000e1cf500003003a00b41320001413880043
:103ab00007003700a4132000141388000400370007
:103ac00044e42800841f780090f507008f87e90000
:103ad00000000600e14f500003003200e24f5000aa
:103ae00047003a0024003700f60b2000103a80000f
:103af0000003630064042000750520002774200083
:103b0000844b7800854b7800864b7800f60f2e00aa
:103b1000373680000703630006b0a0003636880001
:103b200006fe2f0040368000800363007700b3005c
:103b30004736880047358000070363004601b3001d
:103b400046358800163a80000660a00027742000e1
:103b5000844b7800854b7800864b78008540a9001f
:103b60009540a900a413200014128800000028002a
:103b70004022b70022003700f40b2000103a8000ea
:103b800000026200650420007605200027742000f2
:103b9000854b7800864b7800844b780004fe2f001c
:103ba0007036800080036200b700b300773688006b
:103bb0008036800080036200a700b300873688004b
:103bc00067358000070262002401b3006435880075
:103bd000143a80000460a00027742000854b780010
:103be000864b7800844b78008820a9009820a90093
:103bf000b413200014138800000028006022b700ce
:103c000000000600e14f500003003200e24f500078
:103c10002f003a0018003700f60b2000143a8000fd
:103c2000040363006404200075052000277420004d
:103c3000844b7800854b7800864b7800f00f2e007f
:103c4000c626b60000fe2f00c826b600a826b6007d
:103c5000163a80000660a00027742000844b78008c
:103c6000854b7800864b78008540a9009540a900d7
:103c70004022ef0016003700f60b2000143a8000b7
:103c800004036300640420007505200027742000ed
:103c9000844b7800854b7800864b780000fe2f001f
:103ca000ce26b600d026b600ac26b600163a800066
:103cb0000660a00027742000844b7800854b7800b4
:103cc000864b78008820a9009820a9006022ef0088
:103cd0000000060000128000610060000000a200e9
:103ce000000006000080fb00401288004002ab008c
:103cf000feff32004802f800ba14f9000000060086
:103d00000080fb00401388006002ab00feff320021
:103d10006802f800ba14f900000006004822ef001b
:103d20004002ab00feff320040128000000006009f
:103d30006822ef006002ab00feff320040138000fb
:103d4000000006000080fb00401288004002ab002b
:103d5000feff320040128000000006000080fb00e1
:103d6000401388006002ab00feff32004013800069
:103d700000000600889fbe008a9fbe008c1f78004e
:103d8000804478000105780083057800e00f510039
:103d90000d003a00e08f550029003200e1cf5400b9
:103da00003003a001a407800ceff070002003700f7
:103db0001a407800d2ff07008b05e900200032008e
:103dc0000a05e800f5ff3700e00f55000300320058
:103dd000e08f55000d003a0019003700e08f5500c4
:103de0001700320002067800e1cf540002003a00ca
:103df000caff070001003700cdff0700005e780012
:103e00008b05e900f8ff3a000d0037000206780044
:103e10000004eb00e1cf540003003a006a407c004c
:103e2000c8ff0700020037006a407c00cbff070094
:103e3000005e78000804e800888f5500f5ff3e001a
:103e40004f0678004f05be004f04be00000006007c
:103e500010c0b300749e8000e40f520006003200d0
:103e6000509f80000020a20000f0a7000000ea00a0
:103e70000000e9004f00de00000006000042eb00f9
:103e8000959d8000e08f520021003a0084cf5000c1
:103e900005003200304290004440980094402100d8
:103ea000144278003440980014002000949d88004b
:103eb000c973ef00cc13a900cc33a900cc53a900df
:103ec000cc73a900cc93a900ccb3a9000204a20032
:103ed0000282fb000402e9004f22de00549e8800ab
:103ee0000002eb0004087800473b21008482fb00bd
:103ef0000583e80060437b0086f37a000442e80013
:103f0000a042900084cf5200f8ff310014c0b300eb
:103f10000440780000000600504290007440980071
:103f2000705290000448980014cab300544098009e
:103f300024c0b300244098000041eb0011c0b3003e
:103f4000ceff0700000006000008eb00000006009e
:103f5000749e8000e40f520004003a0054002000d8
:103f6000749e8800e03c2100070037000000eb0051
:103f7000549f8000e40f520003003a0054002000d8
:103f8000549f8800a03e210000000600889fbe00cc
:103f90008a1f7800aeff0700e04f50000b00320090
:103fa000ebff070040429000e14f42000400320066
:103fb0009540210095427800854f520002003a005a
:103fc0005306070001003700dfff0700949d8000c3
:103fd000e20f520029003a00549e8000e20f520086
:103fe00002003a00b233ef0050003700649e8000b8
:103ff000ef026200ea8f520016003a00050320002b
:1040000005026200850f520002003a00b233ef0051
:1040100046003700cc13a900cc33a900cc53a9002b
:10402000cc73a900649e8000c422de008542e800b3
:10403000e3826200c42add00f6fc2f000602620063
:1040400005027200649e880014002000949d880080
:104050000d003700649e80008442e800ef82620019
:1040600006ff2f000602620005027200649e8800af
:10407000a00020000100200030020700949d800075
:10408000e10f520029003a00849d8000e00f5200a9
:1040900026003a00649e80006f0262000045eb003b
:1040a000a800200009002000e90f5200070034009a
:1040b000cc13a900cc33a900cc53a900cc73a90020
:1040c00024002000949d880018003700b7060700e0
:1040d000849d8000e00f520004003a00e43a210081
:1040e00014427800614262000d0032000800be00f8
:1040f000120207000a45e800eb4f5500f3ff3a00b3
:10410000649e80008442e800ef82620006ff2f0078
:104110000602620005027200649e880003003700f8
:1041200097a0a9000903070097a0a8004f057800f1
:104130004f04be0000000600000006000082fb00e5
:10414000c6092200e08f5000010032000103780010
:1041500004024200054a210086327a00e14f5000f5
:104160001c00320003003900e24f50004f003a00bb
:10417000330037008282fb008502ea00cf2ade008e
:10418000e4ff2f001704800007036200850273001c
:10419000150488008400a90001f0a7008100ea004e
:1041a0008100ea00cf08de00a5048000050262005d
:1041b00001027200a4048800e781610084ff2f00df
:1041c0002605800006026200830172002305880034
:1041d000360037000281fb000201ea004f11de00c9
:1041e00002014100d4ff2f00170480000702620083
:1041f00002017200120488008680a90001f0a70065
:104200008100ea008102ea00cf2ade00c42add0034
:10421000f4fe2f00b6048000060262000502720060
:10422000b4048800e781610084ff2f0077058000d7
:104230000702620083017200730588001b003700cb
:104240008282fb008502ea00cf2ade00c22add005e
:10425000b4ff2f00160480000602620005027200ff
:104260001404880087a0a90001f0a7008100ea00db
:104270008102ea00cf2ade00cd2add00f4ff2d0006
:10428000b70480000702620005027200b4048800cf
:10429000678261004422dd00f3f82f00950580005d
:1042a000858161008481710093058800000006000b
:1042b000889fbe008a1f78000044eb008844780085
:1042c0000005eb0089417800094178008a007800f8
:1042d0000840780099ff07000844e800e34f5400c5
:1042e000f8ff3a004f0578004f04be0000000600ba
:1042f0003600f800809fbe00829fbe00849fbe00f3
:10430000869fbe0004a58000e00f52000500320029
:104310000040eb0004000100e04f500001003200bb
:104320008400a9004f03be004f02be004f01be0033
:104330004f00be003600f900004006003600f800cd
:10434000809fbe00829fbe00849fbe00869fbe00ed
:1043500014a58000e00f52000500320010c0b30029
:1043600004000100e04f5000010032008680a900e7
:104370004f03be004f02be004f01be004f00be0003
:104380003600f900004006003600f800809fbe00ad
:10439000829fbe00849fbe00869fbe0024a5800031
:1043a000e00f52000500320020c0b30004000100fd
:1043b000e04f50000100320087a0a9004f03be006b
:1043c0004f02be004f01be004f00be003600f90094
:1043d00000400600881f7800f4050700e43a210039
:1043e000144278000442b20006003200849d80002e
:1043f000e10f520003003e00f5050700f405070039
:1044000032020700e43a210014427800e04f5200e3
:1044100089003d00849d8000e10f5200260032009b
:1044200003003900e20f520083003a0041003700d8
:10443000e7050700f43a210014427800e04f5200eb
:1044400002003500210207007b003700749e8000c7
:10445000e00f520003003a00e43c210034a0880041
:1044600008003700549f8000e00f520003003a001c
:10447000a43e210034a08800020037001302070088
:104480006d00370034a08000204298008042eb008d
:1044900034a08000755298003500200034a08000c0
:1044a000050a780014002000849d880004407800ec
:1044b00008f4b70060003700c5050700f43a210092
:1044c00014427800e04f52000500350045002000fe
:1044d00034a08000050a7800fc0107005600370070
:1044e000844021001442780035a0800025439000cc
:1044f000864f520008003a00f05298004500200014
:1045000034a08000050a7800f0010700c502a80069
:10451000c502a900480037000483fb0086824200e0
:10452000a04298000442e8000440780008f4b70074
:10453000410037000854ec0008f4b70034c3b3005e
:10454000844f50002e00320007003e0004c2e900f4
:10455000844f5000240032000442e800844f500091
:104560000f003a002300370044c6b300844f5000c8
:10457000040032000442e800844f500008003a0072
:1045800003003700d0c2b300940507002a003700ab
:1045900040cdb3009105070008f4ef002600370076
:1045a0000080fb0064004000083b21006840780068
:1045b0008a05070084402100144278008482fb00b1
:1045c000e482420068c07a00c9f3b600453b21008e
:1045d00095427800854f520017003a0000c3b3009f
:1045e00008f4b70014003700c9d3bf007b050700eb
:1045f000110037000040eb00780507000e0037007f
:104600000040eb0075050700b0010700cc13a900be
:10461000cc33a900cc53a900cc73a900549e8000d0
:10462000e10f520003003a0024002000949d88000e
:1046300001003700b233ef0000202000ca02b600ac
:104640000000ea004f00de004f0478000000060082
:020000040000fa
:10465000a01400000600000000000000ba140000d2
:104660000200000000000000a6140000040000008a
:1046700000000000ae1300005c000000000000001d
:10468000aa14000004000000020000000000000066
:10469000000000000a1400005a00000000000000a2
:1046a000be120000f00000000000000064140000d2
:1046b0002000000000000000ae1400000400000014
:1046c00000000000b214000004000000020000001e
:1046d0000000000000000000a41100001a0100000a
:1046e00000000000bc1400000200000002000000f6
:1046f00000000000be1400000200000000000000e6
:10470000700f0000340200000000000000080000ec
:104710007007000000000000c0140000020000004c
:1047200000000000b61400000400000000000000bb
:10473000841400001c00000000000000b2150000fe
:1047400006000000000000008c150000260000009c
:1047500002000000b315000000b3150009000000be
:1047600000020000b515000000b515000e020100a2
:10477000000000000000000000000000060202002f
:10478000000000008c150000621500002a000000e7
:104790000200000030313200333435003637380043
:1047a0003941420043444500460030003132330075
:1047b000343536003738390061626300646566005d
:1047c00000286e00756c6c0029000000c214000007
:1047d000a000000002000000010000000000000036
:1047e00000000a000000000000000000006400005b
:1047f0000000000000000000e803000000000000ce
:1048000000001000270000000000000000a086004b
:10481000010000000000000040420f000000000006
:104820000000800096980000000000000000e100f9
:10483000f50500000000000000ca9a003b000000df
:1048400000000000e40b5400020000000000e8003b
:1048500076481700000000000010a500d4e8000012
:1048600000000000a0724e00180900000000400087
:104870007a10f3005a0000000080c600a47e8d006c
:104880000300000000c16f00f2862300000000005a
:104890008a5d78004563010000006400a7b3b6009c
:1048a000e00d000000e889000423c7008a00000032
:1048b000b815000002000000020000000100000026
:0448c00000000000f4
:020000040000fa
:1048c400c0030700feff3700451a2100850f500082
:1048d40002003a00a431ef0003003700258d800068
:1048e40005087800208d8800120098006033b80015
:1048f4006600980077009800034898002400980008
:104904004400200054009800390407000000060009
:1049140005102000e41b21008041eb002246220008
:1049240061e92800401a2100e7ff0700441a21002a
:10493400e48d880000000600e48d800096a58000c8
:10494400a7a580000003430081834b006602980002
:1049540077029800250020005502980044040700bf
:10496400000006006033b800e48d80006602980001
:104974007702980000000600e08d88003002900065
:10498400c48d880014002000540098000000060024
:10499400208d8000e00f500003003a00401a2100ef
:1049a400f5ff070001003700f3ff07001f040700ad
:1049b4002c04070000000600c48d80003400980019
:1049c40050029000e10f520002003a00440020001f
:1049d4005400980000000600e08d8000f6ff0700f8
:1049e40094a58000a5a5800061014200e0814a00f1
:1049f40092a58800a3a58800441a21000400780029
:104a0400d4029000e28f520003003200e48f52007f
:104a14000b003a000500370064039000f403900093
:104a2400860f5100878f590005003900044b900010
:104a3400804a9000854f530001003900040078003b
:104a440014027800e00f5200edff3a00caff07009d
:104a540000000600881f780000047800e48d8000c0
:104a6400080a9800940a90008502640003003a0042
:104a74003500200055029800fd030700e48d8000f6
:104a84008002eb00050a9800140890000884ea00ec
:104a940000046400180a98004f047800000006001f
:104aa400e00f500008003200100a9000010272006a
:104ab40014089800000a900084806000020032000c
:104ac400440020005400980000000600000a9000f2
:104ad400c822dd004822de00048272000408980027
:104ae40070529000e14f520003003200f14f520027
:104af40004003a00020037003b04070001003700bd
:104b04005c02070000000600000278000101d100e9
:104b14006000b8000a0032008002eb003403780021
:104b2400c833dd004833de0006837300060040000e
:104b3400e08048008502e800828f5200f7ff3900c8
:104b4400610ab80000004200e0804a000080ea00e8
:104b54008180ea0000000600889fbe0000047800ff
:104b6400580a9000e80a9000740c98000514980004
:104b7400fa024400a4e6280003000900b45a7800ad
:104b84000002eb00440c9800240c9800f4c440008c
:104b94008984fb0068029000c822dd004822de0000
:104ba4000482720064049800484add00040c9800f2
:104bb400f8009000ef806000c208dd006e00440041
:104bc400d1ff07004802dd004800de00000072004b
:104bd400400c98000800be00a30107004f04be006b
:104be40000000600889fbe0002047800f48441009f
:104bf40084e7280005000900345c78006800b100ef
:104c0400e6024400e4e6280005000900b45a7800ee
:104c14008400200064049800fe024400030009009c
:104c2400b05a78004000b1007a024400a5e628009a
:104c340003000900355a7800780290000440a1006e
:104c44000450a1000460a0000470a1000400a000ae
:104c54000410a1000420a0000430a10074049800f2
:104c64000042eb00744c9800c84add00484ade005c
:104c740004827200040c980024412300140c980050
:104c84000002eb00240c980005c8b300655498009a
:104c940071549800440c98006e00440041012000b7
:104ca40099ff07004802dd004800de0000007200a2
:104cb400400c9800ee80440008007800680107006a
:104cc4004f04be0000000600889fbe008a9fbe00fd
:104cd4008c1f780094e328000040eb00944f1000f0
:104ce4001100320000447800dae2280059c5b3000c
:104cf4000a06e800840578000882fb00840242006a
:104d0400eac27a0089cf5200040032000402420051
:104d1400ec407a006a407a008d0307000844e800fa
:104d24009b4f1400f4ff3e000002eb00849d8800ba
:104d34000440780008f4b7004f0678004f05be0021
:104d44004f04be0000000600889fbe008a9fbe007c
:104d54008c1f780024e428000040eb00944f1000de
:104d64001100320000447800aae3280059c5b300ba
:104d74000a06e800840578000882fb0084024200e9
:104d8400eac27a0089cf52000400320004024200d1
:104d9400ec407a006a407a006d0307000844e8009a
:104da4009b4f1400f4ff3e0024002000849d8800e3
:104db40030c6b30008f4b7004f0678004f05be00b4
:104dc4004f04be0000000600889fbe008a9fbe00fc
:104dd4008c1f7800d4c2a900c542a800200320007b
:104de40001002000d4fe0700d4c2a8002003200044
:104df40001002000d0fe0700d4a2a800c4e22800cd
:104e04008042eb0094cf1200150032000544780074
:104e1400cae0280059c5b3000a06e80084057800f2
:104e24000882fb0084024200eac27a0089cf520061
:104e340004003a00a000200001002000befe07008c
:104e44000400370004024200ec407a006a407a0011
:104e54003f0307000844e8009b4f1400f0ff3e00a6
:104e640099ff070004202000551680000502620007
:104e7400e00f520008003a000044eb000920200033
:104e84000840780052fd0700551680000582640032
:104e9400e00f5200faff32004f0678004f05be00c3
:104ea4004f04be0000000600c002a900c062a900b1
:104eb400c0e2a900c102a900c142a900c022a80001
:104ec400c042a800c122a800c802a900c8a2a90023
:104ed400c8e2a900c902a900c9a2a900c9c2a900bf
:104ee400c822a800c922a800c9e2a800d002a900cb
:104ef400d022a900d0a2a900d0c2a900d0e2a90062
:104f0400d102a900d042a800d062a800d082a80093
:104f1400d122a8000000060005202000060037006a
:104f24000402fb002411880016118000068262002e
:104f3400e00f5200fcff3a0010427800e04f5200ac
:104f4400f7ff3a000000060005202000161180003b
:104f540006826200e00f5200fcff3a000000fb00f2
:104f640020118800000006002022ef00f60b20002c
:104f7400103a8000000363006404200075052000db
:104f840027742000844b7800854b7800864b78008a
:104f940006fe2f0000368000800363003700b30054
:104fa4000736880027358000070363000600a00049
:104fb40026358800163a80000660a0002774200079
:104fc400844b7800854b7800864b7800a43bb00076
:104fd40014118800c4002000441188000400280033
:104fe400041188000000060061482100cf107800f9
:104ff400cf187800a11f7800b11f7800ffff370099
:10500400ffff3700ffff37002ca3ef00d502a800f5
:10501400cca2a800c4e2a800c402a800a2ff070012
:10502400c542a900c502a900a0fc070010c0b30036
:10503400a7fa0700ccff0700e0e7280087ed070088
:1050440081e0a80032fe0700890007003a0007004b
:105054004ffe07000000eb000000060001012000e5
:1050640000f720008efe07009101200040f9200087
:10507400b3010700000006000108200000f720002b
:1050840087fe07002100200040f82000ac01070043
:10509400000006001c00fa00889fbe0040062000a5
:1050a4000100200024fe070047ff070040062000ff
:1050b4000100200020fe070010c0b30009f4b7006f
:1050c40009cab3000009200062fe0700000478004a
:1050d400700264001400320014c0b300b4e79f00ef
:1050e40080c2eb00c5e79f00d9e79f0005c1b3006c
:1050f400a5e79f008042eb00e5e79f00f4e79f00ef
:10510400f9825700846a78000442e800f04f5200a4
:10511400fcff3a000041eb008240780000fe2f00c3
:105124000f00400054fb07000808b200e5ff3200fe
:1051340095fb0700e3ff3700889fbe00d4c2a80098
:10514400c542a900f40b2000153a80000502620054
:10515400690420007805200025742000894a78001d
:10516400884a7800844a780004fe2f0016348000b0
:10517400860262009500b30015348800453480002f
:10518400050262009400b3004434880063c0b30095
:1051940012c0b300a11e220020c0b300e6fb07002a
:1051a400143a80000460a00025742000894a780025
:1051b400884a7800844a78001421ef0024002800eb
:1051c400f40888000520200044fa200083c2b300bc
:1051d400c2842200c1e9280000f72000bafd0700bc
:1051e400028322009101200040f9200061010700a0
:1051f400e28322009101200040f820005d010700b5
:105204004f04be000000060044b921005408980071
:1052140010c0b300000006000002eb005408980020
:1052240010c0b3000000060021002000c0c420000c
:105234001bfe070010c0b300000006001100200090
:10524400c0c4200016fe07004106200000c620004e
:105254003b01070000000600b8f707000000060045
:1052640046f707000000060093f707000000060059
:105274000530200004c7200043c1b300029a220075
:1052840061e62800c0c420008ffd070002922200be
:105294004106200000c62000360107000000060079
:1052a400889fbe00f40b2000153a800005026200be
:1052b400690420007805200025742000894a7800bc
:1052c400884a7800844a7800f40f2e000534800060
:1052d4000502620005f02000050272000434880013
:1052e40053c0b30012c0b3006191220002407800a1
:1052f40091fb0700143a80000460a000257420008c
:10530400894a7800884a7800844a7800c144200099
:105314000080200022f80700a700070087f207009a
:10532400e39022006290220001c2b3000005200035
:1053340092f507004f04be0000000600889fbe00df
:10534400d7ff0700bb0007007900200009007800a0
:10535400c0fd07000004780064026400010032000c
:10536400e4f707006202640002003a000400370018
:10537400b9ff070065f70700e04f5000fcff3a0053
:1053840061046400f1ff3200b7f50700efff370056
:105394000082eb0024a3880044a3880064a388004f
:1053a40084a38800a4a38800c4a38800e4a388007d
:1053b40004a48800000006000200fa00889fbe00d2
:1053c4008a1f7800800478000042eb0084ff9f006d
:1053d400484621007c05440029129000980f1200d1
:1053e40004003a0018029000e88057000900780091
:1053f400040001008a0f54000400320064044400d5
:105404000ffa9700e04f5200f3ff32004f05780087
:105414004f04be000080fa000000060024a38000b0
:10542400e10f420008003200854621000002eb0033
:105434000402e800040378008083eb00958f1300d6
:1054440008003a00010037000003eb004233dd009e
:105454004446210001327b000482e80000327b00d4
:1054640003003700e4824200e70f5200f0ff3a00e5
:105474000000060010129000c822dd004822de0061
:10548400048272001410980020129000c822dd00db
:105494004822de000482720024109800301290002a
:1054a400c822dd004822de00048272003410980015
:1054b400c1ff07000000060002027800e8804000f7
:1054c400480bdd00c80ade00850273003510980021
:1054d400481bdd00c81ade00868272002510980081
:1054e400151098008002eb00451098000001be00e2
:1054f40011c1b30004007800bafd070000000600e3
:10550400048020000510200075029800850020000a
:10551400050a980065c0b3002552980045c0b30041
:105524003552980005102000e04f51000100320070
:1055340005202000250a9800f6024200e6e628002d
:1055440005000900b65a7800fc024200a6e62800cd
:1055540003000900b65a78000502200085024200c3
:1055640005000900b05a78006000b100660220000e
:105574000603420003000900315b78004100b100da
:10558400009aeb000092eb008082eb002502980069
:10559400e6024200e6e6280005000900b65a780053
:1055a4008560200065029800a102200004007800b4
:1055b4002bff0700000006000600fa006682570071
:1055c40002000900001aeb000041eb0041e728004b
:1055d40066805700caff07000080fa00000006003a
:1055e400881f780000047800280a9000c822dd0093
:1055f4004822de0004827200e20f52000b003200e7
:10560400600220000800400042002000a1e62800bb
:10561400eaeb0700e00f500004003a00fc004400ed
:105624007600440012c0b300b5ff07004f047800b1
:1056340000000600d422a800cda2a800c4e2a8005d
:10564400c402a80020c0b30021f90700000006002e
:105654000400200085002000840f5000858f58002e
:1056640006003e00e04f510002003200c4e2a900ef
:1056740007003700c4e2a80005003700e04f5100de
:1056840002003200c402a90001003700c402a800cd
:1056940000000600881f7800c4e2a900d0c1b3004e
:1056a40096f90700a1f90700004478009ff9070064
:1056b400c4e2a8004844dd000080fb000000740040
:1056c4004f04780000000600889fbe008a9fbe0039
:1056d4000004be00820578000305780012c0b30000
:1056e400dbff070030c0b30084f907004048de0048
:1056f4000100200081f90700484add004840de002f
:1057040000007200c848de007cf9070008407800f9
:105714007af907008a0178000b0178008000eb0019
:1057240020c0b30092f907000041eb000800be005e
:10573400c7ff07004f05be004f04be00000006006f
:1057440094a58000a5a58000140098002500980069
:1057540094a58000a5a5800001024200e0824a00d1
:10576400340098004500980014c0b30044489800e1
:105774000000060000037800c44b210014427800a6
:10578400e04f520004003a00f6a5880010c0b300b0
:10579400bcf4b70007003700f5a58000010037000e
:1057a4008402780075029000e00f5200fcff3a007a
:1057b400f6029800020b780006007800e0ff07006c
:1057c40000000600889fbe00c44b210014427800ec
:1057d400e04f520012003200f8a580008044eb0034
:1057e400484a9000e14f52000a003a003803900002
:1057f400c803900094a58000a5a58000840f5300e1
:10580400858f5b0003003e00494c98001802780025
:105814000400010078049000e00f5400f0ff3a0007
:105824004f04be000000060014c0b3008448780092
:10583400a0129000b4072000848f52001f003a0089
:10584400102a9000a02a9000c820dd00000020004b
:10585400482bde00070020000603700087837000d9
:105864000581fb00030020004818dd00c810de009d
:10587400810070004810dd00000373008183730011
:1058840000f02f0004026000050020004828dd001d
:10589400c820de00810070004820dd000003730092
:1058a400818373000418280055c5270006004200b0
:1058b40087804a0050a5880061a588000000060082
:1058c400b107200060c12200d4fe070000000600da
:1058d40000017800a04021002c0009000018eb0012
:1058e40030ceb30034f4b700a0c0b30036f4b70030
:1058f400c0ceb30037f4b700b30720000103200083
:10590400a0402100ecfe070000000600881f78007c
:10591400000478005842900015cab300854f520025
:10592400070032008542e800854f52002000320013
:1059340085c2e900854f520023003a000f0037006a
:10594400884a90000042eb00963c21001643780000
:10595400854f53001d003a00f8429000763b210029
:1059640016437800854f530018003a0024002000a5
:10597400549e88000042eb0014003700f842900067
:105984000042eb00e1cf520010003a0024c0b30003
:1059940074449800c0e8280030eb07000041eb0095
:1059a40011c0b3000800780033f907000e00370077
:1059b400670244001403be0076a5880087a588000a
:1059c40014c0b300010037000042eb00e04f520066
:1059d40003003200080078004ef907000200370087
:1059e4000800780057f907004f047800000006000b
:1059f4002002900016000900001aeb00e402b10036
:105a040090029000050a7800250280004512980053
:105a1400a501800055129800e402b00034009800fb
:105a2400000006008460a900000006000002eb00ec
:105a3400240888000408880004f42100140888005d
:105a4400f8ff07002405800004c0a00004d0a100d2
:105a540004e0a100240588009460a80005e1a800e2
:105a640000000600362e02000000000000000600c0
:105a74005e2d0200000000000000060000a0fe00f1
:105a84003600f800849fbe00869fbe003400f800f4
:105a940004002000a4018800e2ff0700f4ff0700cf
:105aa4003400f9004f03be004f02be003600f90077
