:1000000080311428FF3FFF3F803120007F08F5003A
:100010008B1C112881312A218031003A03191128C3
:100020008B107508FF000900803116282030F80178
:10003000F90184000030850045308231562280313C
:10004000200049282030E60182310A008031003842
:10005000031947286635423E82310A008031553AFD
:1000600003193E286635433E82310A008031F7008D
:100070006635423E82310A008031AD2020002030BA
:10008000E60A82310A0080316602031C2A28A00198
:10009000080078302100990024000C150D218031D2
:1000A0007120803122000C128E142000EB016B08AD
:1000B0007D3A031D5D2822000C162000EA01000095
:1000C0002000FA30EA0A6A02031C5F28FA30EB0AC1
:1000D0006B02031C572822000E168C1677208031E5
:1000E0007028210015138B100B168B1708002000A9
:1000F0001F30E90182310A00803100380319AC2831
:100100006935223E82310A008031553A031D972815
:10011000E701E80100002000FA30E80A6802031C49
:100120008A280C30E70A67020318A3288928693552
:10013000233E82310A008031F7006935223E823148
:100140000A008031AD2020001F30E90A82310A0008
:1001500080316902031C80282228E50022000E134A
:1001600020006508B82080317708B8200E170800F5
:10017000F600F61FBE2822008D17C02822008D131E
:100180008E170000000022008E13761FC9288D17DD
:10019000CA288D138E170000000022008E13F61E51
:1001A000D3288D17D4288D138E170000000022004D
:1001B0008E13761EDD288D17DE288D138E17000016
:1001C000000022008E13F61DE7288D17E8288D13F6
:1001D0008E170000000022008E13761DF1288D1767
:1001E000F2288D138E170000000022008E13F61CDB
:1001F000FB288D17FC288D138E17000000002200AD
:100200008E13761C05298D1706298D138E17000075
:10021000000022008E138D13080021000C150C1213
:100220008C1222000C128C1221000D120D138D1352
:100230008D168E100E110E120E138E130E148E15B7
:100240008E1622008E100E110E120E178E138E10A7
:100250000E110800BE2120000C0C890C0139080089
:10026000F10022000E1371086B218131D021F200C0
:100270000E1708002030F30182310A008131003866
:1002800003195E297335423E82310A008131553AA5
:10029000031956297335433E82310A00F100733544
:1002A000423E82310A008131813161212030F30ADE
:1002B00082310A0081317302031C42292000A0010F
:1002C0000800F20022000E1372086B2181317108C0
:1002D0006B210E170800F000F01F70298D1771298F
:1002E0008D138E170000000022008E13701F7A29D4
:1002F0008D177B298D138E170000000022008E13AE
:10030000F01E84298D1785298D138E17000000009B
:1003100022008E13701E8E298D178F298D138E1734
:100320000000000022008E13F01D98298D179929D6
:100330008D138E170000000022008E13701DA2295D
:100340008D17A3298D138E170000000022008E1335
:10035000F01CAC298D17AD298D138E1700000000FD
:1003600022008E13701CB6298D17B7298D138E1796
:100370000000000022008E138D13080020000C19CD
:10038000C329C7218131F81BF91F08001C2A22004C
:100390000E13D0218131F800D021F9000E1708008A
:1003A000F0018D1320008E1AF01722008E17000026
:1003B000000022008E1320008E1A701722008E1764
:1003C0000000000022008E1320008E1AF01622007A
:1003D0008E170000000022008E1320008E1A701667
:1003E00022008E170000000022008E1320008E1ABB
:1003F000F01522008E170000000022008E1320004E
:100400008E1A701522008E170000000022008E1335
:1004100020008E1AF01422008E1700000000220027
:100420008E1320008E1A701422008E170000000018
:1004300022008E1370080800B030302900341034C8
:1004400006340434CA348134CA34833480342834C2
:10045000C434D734A8346034C63411348234003400
:100460009034623498349034C234AC34823478346A
:10047000553400348234D83480346834CA348134FA
:10048000CA34833482340034CA348134803428340A
:100490008234D83480346834CA34833482340034AB
:1004A00080342834823478348034A8346400800165
:1004B0000131890B572A0034FF3FFF3FFF3FFF3FC9
:00000001FF
