:1000000080311428FF3FFF3F803120007F08F60039
:100010008B1C112883314D238031003A031911289C
:100020008B107608FF00090080311628AA01AB0169
:10003000A0308400003085004C3085314825803167
:1000400020004D280330A30185310A00803100389B
:10005000031947282335303E85310A008031553A4F
:1000600003193E282335313E85310A008031A10035
:100070002335303E85310A008031012220000330D3
:10008000A30A85310A0080312302031C2A28033089
:100090002100A0006330EA000800783021009900B8
:1000A00024000C1526238031C2228031D1228031D8
:1000B000AE2080315D2080315A28D6228031003A2E
:1000C00003197728E02280312000A700043E860033
:1000D00087010108A03A031D72282708063E860002
:1000E00002308100A001A00A2708EE228031210001
:1000F000210B0800A008031D08002000A6016F22A4
:1001000080312100A008031D882820002A1C9B287C
:1001100034302000A500F130A400A40B8D28A50BDD
:100120008D28922820000B30A60A2602031C7F2867
:100130002100B80A08000B1222200B16080020002C
:10014000A10022000E13200021080D2280317B2205
:10015000A20022000E1720002208080022000C1224
:100160008E1403302000A8000830A7007830A600C5
:10017000A60BB828A70BB828A80BB82822000C1685
:1001800003302000A8000830A7007830A600A60B96
:10019000C728A70BC728A80BC72822000E168C1645
:1001A00020000130A90185310A008031003803198F
:1001B00000292935043E85310A008031553A031D56
:1001C000EB283430A700F130A600A60BE528A70BDA
:1001D000E528EA28F7282935053E85310A008031CF
:1001E000A1002935043E85310A008031012220001A
:1001F0000130A90A85310A0080312902031CD9285F
:10020000D721803120000C190800082180310229F3
:100210006F2280312000AA1A17292229D521803186
:10022000A500D5218031A500D721803122292100C8
:100230002008840004300402031822298531043583
:10024000383E82002000AA1BBF29CB29D52180314E
:10025000A500AB1B2E29D7218031CB292100B9085D
:10026000031D3429B9303829D108031D2B29D13079
:10027000E900690A86008701200025088100210025
:100280006908163E860081016908860002308100F7
:10029000A001A00AEA017B29D5218031A500AB1B72
:1002A00058292100690886000330870181002B2925
:1002B0002100690A860087016A080106031D712969
:1002C0006908163E86002000250881002100690883
:1002D000860003308100D721803122000E150E11D7
:1002E000CB296A0869072000A400240A8600870138
:1002F000250881002100EA0ACB29EA0AAE292D301F
:10030000D0218031CB29D430D0218031FF30210061
:100310009D296A08A23E860087010108D02180310C
:1003200021006A08A23E8600870137080106B7004F
:100330006A082206031DCB293030EA00CB29370892
:10034000D0218031CB290030D0218031CB29003021
:10035000D0218031D7218031A101CB296A08313ADF
:1003600003199F29033A0319A329013A0319A7295D
:10037000573A03197F29013A031983298929210052
:100380002008003A03192629013A03194C29023A98
:1003900003197D29CB2920000C0C890C0139080098
:1003A0002000A300A100B830012AB0309F2820000F
:1003B0000230A30185310A00813100380319FD297B
:1003C0002335243E85310A008131553A0319F42939
:1003D0002335253E85310A008131A1002335243E95
:1003E00085310A008131012220000230A30A8531C3
:1003F0000A0081312302031CE0292100A001EA0147
:100400000800A20022000E13200022080D228031D5
:10041000200021080D220E170800A000A01F132A9B
:1004200022008D17152A22008D138E17000022003E
:100430008E132000201F1F2A22008D17212A220040
:100440008D138E17000022008E132000A01E2B2A71
:1004500022008D172D2A22008D138E1700002200F6
:100460008E132000201E372A22008D17392A2200E1
:100470008D138E17000022008E132000A01D432A2A
:1004800022008D17452A22008D138E1700002200AE
:100490008E132000201D4F2A22008D17512A220082
:1004A0008D138E17000022008E132000A01C5B2AE3
:1004B00022008D175D2A22008D138E170000220066
:1004C0008E132000201C672A22008D17692A220023
:1004D0008D138E17000022008E138D1308000B124F
:1004E00022000E137B228031AA007B22AB00220067
:1004F0000E170B1608002000A00122008D1320000B
:100500008E1AA01722008E17000022008E132000E2
:100510008E1A201722008E17000022008E13200052
:100520008E1AA01622008E17000022008E132000C3
:100530008E1A201622008E17000022008E13200033
:100540008E1AA01522008E17000022008E132000A4
:100550008E1A201522008E17000022008E13200014
:100560008E1AA01422008E17000022008E13200085
:100570008E1A201422008E17000022008E132000F5
:100580002008080023008C018D018E01E13022003B
:10059000970021009F01F0309E009D0113309D00C7
:1005A000080015138B100B168B1708002100390853
:1005B000033A031901345108033A03190134003492
:1005C0003908033A031DE72A0430B900B934510849
:1005D000033A031D00340430D100D134A3002100BC
:1005E0002108031D0800200020080319072B2308F9
:1005F000033E860087012308023E8400850100082F
:1006000081002308023E860021006B088100210042
:10061000A101A10AB701B8012000230886008701C3
:100620008101A201230A8600870122080102031C1E
:1006300008002208A23E860022082307A100210A02
:100640008400850100088100A20A122B21000C15EC
:100650000C128C1222000C128C1221000D120D13A0
:100660008D138D168E100E110E120E138E130E1486
:100670008E158E1622008E100E110E120E178E136E
:100680008E100E110800F10022000E1371084B2489
:100690008331B424F2000E170800A6248331200011
:1006A000AA1A5C2B672B16248331F500162483319C
:1006B000F50019248331672B2100200884000430C1
:1006C00004020318672B85310435403E8200200068
:1006D000AA1B002C0C2C16248331F5002000AB1B28
:1006E000742B192483310C2C2100B908031D7A2B9B
:1006F000B9307E2BD108031D712BD130E900690A76
:1007000086008701750881006908163E8600810110
:100710006908860002308100A001A00AEA01BC2B12
:1007200016248331F5002000AB1B9D2B21006908A6
:100730008600033087018100712B2100690A860041
:1007400087016A080106031DB42B6908163E86005E
:1007500075088100690886000330810019248331FF
:1007600022000E150E110C2C6A086907F400740A99
:100770008600870175088100EA0A0C2CEA0AEF2B33
:100780002D30112483310C2CD43011248331FF30CF
:100790002100DE2B6A08A23E860087010108112491
:1007A000833121006A08A23E8600870137080106CE
:1007B000B7006A082206031D0C2C3030EA000C2C0E
:1007C0003708112483310C2C0030112483310C2C78
:1007D00000301124833119248331A1010C2C6A08C3
:1007E000313A0319E02B033A0319E42B013A0319B8
:1007F000E82B573A0319C02B013A0319C42BCA2B13
:1008000021002008003A03196B2B013A0319902BA1
:10081000023A0319BE2B0C2C20000C0C890C013958
:100820000800F300F100B83041240800B030432341
:1008300008000230F30185310A00843100380319C1
:100840003D2C7335243E85310A008431553A031915
:10085000352C7335253E85310A00F1007335243E71
:1008600085310A008431843141240230F30A853114
:100870000A0084317302031C212C2100A001EA012B
:100880000800F20022000E1372084B248331710815
:100890004B240E170800F000F01B502C2000522CA7
:1008A0008D17532C8D138E17000022008E13701B92
:1008B0005B2C20005D2C8D175E2C8D138E17000095
:1008C00022008E13F01A662C2000682C8D17692CDC
:1008D0008D138E17000022008E13701A712C2000C9
:1008E000732C8D17742C8D138E17000022008E131D
:1008F000F0197C2C20007E2C8D177F2C8D138E17E9
:10090000000022008E137019872C2000892C8D176F
:100910008A2C8D138E17000022008E13F018922C53
:100920002000942C8D17952C8D138E17000022001B
:100930008E1370189D2C20009F2C8D17A02C8D13CA
:100940008E17000022008E138D1308000B12220058
:100950000E13B42483312000AA00B4242000AB007D
:1009600022000E170B160800F00122008D13200044
:100970008E1AF01722008E17000022008E1320001E
:100980008E1A701722008E17000022008E1320008E
:100990008E1AF01622008E17000022008E132000FF
:1009A0008E1A701622008E17000022008E1320006F
:1009B0008E1AF01522008E17000022008E132000E0
:1009C0008E1A701522008E17000022008E13200050
:1009D0008E1AF01422008E17000022008E132000C1
:1009E0008E1A701422008E17000022008E137008D9
:1009F0000800FF3FFF3FFF3FFF3FFF3FFF3FFF3F3D
:100A00000034103406340434CA347134CA347334B4
:100A100080342834C434E734A8346034C634053410
:100A2000823400349034623498349034C234AC341C
:100A30008234203455340034823480348034683435
:100A4000CA347134CA34733482340034CA347134D1
:100A5000803428348234803480346834CA34733427
:100A600082340034CA3471348034A834823420345F
:100A700081310E2981310E2981310E2981312229BE
:100A80008331532B8331532B8331532B8331672B8A
:100A9000640080010131890B492D0034FF3FFF3F85
:00000001FF
