:04000000803106281D
:1000080080310900803108282030840000308500C4
:100018003130873160278031A0308400003085007E
:1000280038308731602780312030840001308500E6
:100038004030873160278031200022287830210025
:100048009900352080317A23803122008E100E11DC
:10005800442080314D30452080314F30B3228031EB
:100068002E2823008C018D018E01E130220097009B
:1000780021009F01F0309E009D0113309D00080073
:1000880008002000EC00A60AF32820006C0886006F
:100098007F30A42380314430122180310038031985
:1000A800080044304B2180316008E9006B3A031D99
:1000B8004928A6016C0886008730A4238031443083
:1000C8001221803100380630031D6E282602031CD9
:1000D800080006302602031C73286C08AF2B443036
:1000E800012280316108EB01EB076008EA01EA07A9
:1000F8006B086A040319492800306B02163003198B
:100108006A020318492844304B2180316008FF3EB9
:10011800C200C001A601A501420825026C0886009C
:100128000318C1289B30A423803144301221803128
:1001380000381A30031DA4282602031C08001A30B0
:1001480026020318BF284430A6014B2180316008DD
:10015800E7002508283E86008701670881002508F2
:10016800283E86000108F0004008F100710870067A
:10017800C000A50A90286C088600A330A42380310B
:100188004430122180310038031DCE281A3026024F
:10019800031C080044304B2180316008C100063040
:1001A8002602031CDD282508A92380317A21803105
:1001B8004928410840060319E7282508A923803162
:1001C8007A21803149286C088600BB30A42380310D
:1001D80028305922803100380319080049286C0852
:1001E80086008701403FE700413FE8000319FD28EA
:1001F80071286708003A031949287F3A03194F28DC
:10020800F83A031963281C3A03199928383A03194C
:10021800C428183A0319EC2871280800D600083EAB
:1002280086008701811800345608053E8600403F45
:10023800FA00413FFB00560A8600403FFC00413F60
:10024800FD007B087D02031D2B297A087C025608D5
:1002580003183329083E8600870181145608033E97
:1002680086008701403FFA00413FFB005608053EE3
:1002780086009423803156088F2180317B087106CF
:10028800031D48297A087006031D01340034E40070
:1002980012218031003A031973296408053E86004B
:1002A80087019423803164088F21803164089C235E
:1002B8008031640886006408053E84008501BC23FB
:1002C80080310108E3006408860087016408053E60
:1002D8008400BC2381016308E000E1010800C32316
:1002E800843103245A30E001E1000800FC00F201E7
:1002F800F3017A08F2027B08F33B7C08053E86008E
:100308008701403FF000413FF1007C088F21803198
:100318007C089C230800D5007008D1007108D20021
:10032800D301D4017208F4007308F5000030F51BFE
:10033800FF30F600F7007408D1077508D23D76083B
:10034800D33D7708D43DD41FB729550A86008701C5
:10035800403FF400413FF5007408D1077508D23DCD
:100368000030D33DD43DD41FBD295B30F001F100EE
:100378000800550A86008701403F8A238031B5234B
:100388008031031DD12978085302031DD12977082C
:100398005202031DD12976085102550A86008701A9
:1003A800031CE329403F8A2380317608D10277086D
:1003B800D23B7808D33B7908D43B550A8600403FA6
:1003C8008A238031B5238031031DF429780853022C
:1003D800031DF42977085202031DF42976085102F7
:1003E800031CFA295C30F001F10008005208F10101
:1003F800F1075108F001F0070800E60012218031EA
:10040800003A0319212A6608053E860087019423CD
:10041800803166088F217008E2007108E3006608E1
:100428008600870101086207E40086000130870022
:100438000108E500E000E1010800C323843103243A
:100448005A30E001E1000800A30803190034F30161
:100458001C30F00073088E228031BB3E8600870175
:10046800011C512A1C30F00073088E228031BB3EDB
:1004780086008701811C512A1C30F00073088E22E7
:100488008031BB3E86008701011020001C30A30389
:10049800F00073088E22A03E08000230F30A7302AF
:1004A800031C2C2A2000A3010034F900FA01FA01E8
:1004B8001C30F0007A088E228031BB3E860087010E
:1004C8000118882A1C30F0007A088E228031BB3E41
:1004D800860087018118882A7908F3001C30F40007
:1004E800F501F0007A088E228031A03E9A228031F0
:1004F8001C30F0007A088E22BB3E8600870101146A
:1005080020000130A40A08000230FA0A7A0203180F
:1005180000345C2AF200F10170087218F107F03516
:10052800F236F208031D902A71080800F8007308D3
:10053800F7007808F6000130F4020030F53B740A41
:100548000319750A031908007608860087017708D9
:100558008400850100088100F70AF60A9F2A200016
:10056800E200E92A620886005430A4238031A308F7
:1005780003190800282280312000A700A708031DBE
:10058800CE2A8B30FC008630FD0084310324803174
:100598006208AF2B620886006130A42380310223F1
:1005A8008031003A031D08002000A208031DCE2A4E
:1005B8000130342380312000620886006830A4238B
:1005C80080312208031D0800B62A620886008701C8
:1005D800403FE000413FE1000319F32ACC2A6008BC
:1005E800003A0319B62A543A0319BB2A353A0319B3
:1005F800D32A093A0319E52ACC2A08000D238031A9
:100608007308F701F7077208F601F607771801343F
:10061800003422000E131D238031F500F4011D2340
:10062800F4040E177508F301F3077408F201F207D2
:100638000800F0018D138E13F101F03520008E1E95
:10064800272B7014282B701022008E170000220010
:100658008E130830F10A7102031C212B7008080060
:10066800F300F308031D392B4E2B8230F101F20001
:1006780071238031A830F1008030F200712380317D
:100688002030F1008230F20071232000A201A20A7A
:10069800A00108000030F1008230F200712380319F
:1006A8008130F100CA30F200712380312830F10026
:1006B8008030F200712380318030F1008230F20006
:1006C800712380316830F1008030F200712380316D
:1006D8008330F100CA30F200712B22000E13720829
:1006E800C82380317108C8230E1708000C120C1596
:1006F8008C160D120D138D138D168E100E110E12F1
:100708000E138E130E148E158E160800F400413F3A
:10071800F5007408F6007508F700F801F9010800FB
:10072800403FF000413FF100F201F20AF3010800F6
:10073800053E860087017008C03F7108C13F080068
:100748008701C03F0030C13F0800FA00FB01FA0AE8
:100758000319FB0A4434860000308701C03FC13FBB
:1007680008005408803AFF007908803A7F020800A0
:1007780000080107E20086000130870008003430D5
:10078800FC008730FD000800F0008E13F01FCE2B10
:100798008D17CF2B8D138E178E13701FD52B8D179A
:1007A800D62B8D138E178E13F01EDC2B8D17DD2B99
:1007B8008D138E178E13701EE32B8D17E42B8D135C
:1007C8008E178E13F01DEA2B8D17EB2B8D138E17BA
:1007D8008E13701DF12B8D17F22B8D138E178E1320
:1007E800F01CF82B8D17F92B8D138E178E13701C98
:1007F800FF2B8D17002C8D138E178E1308007E305B
:10080800D600B0258431DF0803190800253A0319FA
:10081800112C5F0841258431052CDD01DE01DC0146
:10082800192C5C15FC0A0319FD0A7C08EB25843198
:10083800303A0319152C202CE5258431692584319B
:10084800031C522CDD01DE010A30F000F1015E08C4
:10085800F301F3075D08F201F20799258431710865
:10086800DE01DE077008DD01DD07E5258431D03EB5
:10087800D100FF3003180030D2005108DD075208BC
:10088800DE3DFC0A0319FD0A7C08EB258431692545
:100898008431031C522C282CDC17642CB02584319D
:1008A800003A0319402D583A0319502C3C3A0319C1
:1008B800642C0D3A0319642C113A0319502C052C99
:1008C800DC1B732C5608D5258431D91FA12C033085
:1008D800DC04D809D909D80A0319D90AA12C560861
:1008E800D5258431A12CDF01DF0A5F08C9258431B1
:1008F800D300013FD4005902031D842C5308580229
:10090800031CA92CDF0A5F08053A0319A92C792CC6
:10091800DF01DF0A5F08BD258431D300013FD40021
:100928005902031D992C53085802031CA92CDF0AED
:100938005F08043A0319A92C8E2C5C088039031926
:10094800772C803A03198C2CA92C5E085D040319B6
:10095800B52C5C0803390319B52CFF30DD07031CDF
:10096800DE035F08D100D201D11BD2035208803ABE
:10097800D3005E08803A5302031DC42C5D0851025F
:100988000318D02C20005F08D100D201D11BD2035C
:10099800DD025208DE3BD32C2000DD01DE015C1DA8
:1009A800E82C5C0803390319DC2C2D3041258431EF
:1009B8005E085D040319FE2C303041258431FF3078
:1009C800DD07031CDE03DC2C5E085D040319F72C2D
:1009D800203041258431FF30DD07031CDE035E082B
:1009E8005D04031DEC2C5C0803390319FE2C2D3023
:1009F800412584315F08D7003C2D0A30F700F80103
:100A08005708C9258431F000013FF100DE25843103
:100A1800422584317108FA01FA077008F901F907CB
:100A2800772584317708303E2F2DDE25843157080D
:100A3800BD258431F000013FF10042258431700862
:100A4800D5000F30D5055508493E84008730031876
:100A5800013E85000008DF00392D5C088039031944
:100A6800012D803A0319192D392D5F08412584314C
:100A7800D703570F312D052C08000800F401F501A4
:100A8800710870040319622DF601F60AF11B4F2D47
:100A9800F035F10D492DF435F50D71087302031D7C
:100AA800572D70087202031C5E2D7008F20271083F
:100AB800F33B7414F136F00CF60B4F2D7508F10169
:100AC800F1077408F001F0070800F1003A30F0016E
:100AD80071020318752D30307102031C752DF00159
:100AE800F00A700C0800780877040319922DFB01AE
:100AF800FB0AF81B822DF735F80D7C2D78087A0251
:100B0800031D882D77087902031C8E2D7708F902BA
:100B18007808FA3BF836F70CFB0B822D7A08F801B7
:100B2800F8077908F701F7070800F401F501701CC8
:100B3800A12D7208F4077308F53DF235F30DF1366F
:100B4800F00C71087004031D9B2D7508F101F10765
:100B58007408F001F00708007D08D2007C08D10075
:100B6800FC0A0319FD0A8400520885000008DF000A
:100B78000800D1000B30D201D135D20D51078400C5
:100B88008630523D8500003F0800D1000130D20177
:100B9800D135D20D510784008630523D8500003F83
:100BA800080086008701403FD800413FD900D60A97
:100BB800D60A08005908F301F3075808F201F207AA
:100BC80008007C0884007D0885000008080084006F
:080BD8007D08850000080800FB
:100C00000034013400340A34003464340034E834ED
:100C100003341034273401340034103400340034E9
:100C20000134003410345B34523446345D342034A3
:100C300050346F347734653472342D346F346E34FD
:100C40002D345234653473346534743420346D3447
:100C500065347334733461346734653420346634F6
:100C600072346F346D3420346E346F3464346534D0
:100C70002034253464340A345B34523446345D34D1
:100C800041346434643469346E34673420346E34EF
:100C90006F3464346534203474346F3420347434E5
:100CA000613462346C3465340A3400345B34523459
:100CB00046345D3420345434583420344E346F3448
:100CC0006434653420342534643420342D343E3487
:100CD00020342534643420347C3420344D3473344F
:100CE00067342034493444342034253430343234A9
:100CF000583420344F347034743420342534303434
:100D00003234583420347C342034443461347434E4
:100D100061343A3400345B34523446345D34203428
:100D2000443472346F347034703469346E346734E0
:100D300020345434583420347034613463346B3488
:100D40006534743420342D34203472346534743472
:100D5000753472346E346534643420344E34553412
:100D60004C344C340A3400345B34523446345D34F1
:100D70002034433452344334203465347234723472
:100D80006F34723420347C3420345234583420345C
:100D9000253430343234583420347C3420344334D5
:100DA00041344C34433420342534303432345834D4
:100DB0000A3400345B34433443344234753466348B
:100DC0005D342034433461346E346E346F347434A3
:100DD0002034773472346934743465343B342034CD
:100DE0006F3476346534723466346C346F347734EF
:100DF0000A3400345B34523446345D342034523487
:100E0000463420346E346F346434653420342534F1
:100E10006434203469347334203467346F34693473
:100E20006E346734203464346F3477346E340A346B
:100E300000345B34523446345D34203447346F34EC
:100E400074342034413443344B34203466347234A7
:100E50006F346D3420346E346F3464346534203430
:100E6000253464340A3400345B344334433442342C
:100E7000753466345D3420345234653461346434FE
:100E800020346534723472346F3472340D340A3461
:100E9000003430343134323433343434353436344D
:100EA00037343834393441344234433444344534AB
:100EB000463400342534303432345834203400344D
:0C0EC000640080010131890B612F0034B7
:00000001FF
