:1000000080311428FF3FFF3F803120007F08FA0035
:100010008B1C11288331EE238031003A03191128FB
:100020008B107A08FF00090080311628A030BB0130
:10003000BC018400003085004F3087318E2780312D
:100040002000222878302100990024000C158323F9
:10005000853191258031A3228031B2228031CD209B
:1000600080313420803131286B238031003A0319EC
:100070005A28752380312000BA00033E860087018C
:100080000108FF3A03194C283A08033E860001088C
:1000900021006E06031D562820003A0A860005300E
:1000A000870181023A08BC2280315A2820003A0890
:1000B000B722803121005308023A031D8E286A08B6
:1000C000023A031D6528D3018E286B080F390A3ABE
:1000D000031D82286B0E0339033A03196328F0309D
:1000E000EB056B0E03392000B700B70AB70E2100ED
:1000F0006B0820003706CF3937062100EB00D3010B
:10010000D30A8E28D023803134302000B800F1305B
:10011000B700B70B8928B80B892800322100530B90
:100120000800EC08031D08006B080F392000B70019
:100130000A303702031CA228F0302100EB05023000
:10014000D3000800B901642280312100EC08031DAE
:10015000AC2820003B1CBF2834302000B800F13010
:10016000B700B70BB128B80BB128003220000B3014
:10017000B90A3902031CA3282100D02308000B125E
:10018000C3230B1608002000A1000E13210819221A
:1001900080316F22A2000E17080022000C128E146C
:1001A00003302000AC000830AB007830AA00AA0B66
:1001B000D728AB0BD728AC0BD72822000C1603305E
:1001C0002000AC000830AB007830AA00AA0BE6286B
:1001D000AB0BE628AC0BE62822000E168C16473037
:1001E00087310A0080312000A3004A30DD218031B0
:1001F000D121803120000C19080000218031FA281B
:10020000642280313B08FF3A031D0A293C08FF3A6B
:1002100003190034BB1A16292229CF218031A900E5
:10022000CF218031A900D1218031222921006C0801
:10023000003A03190D29013A03190D29033A03194C
:10024000222922292000BB1BB929C529CF218031B1
:10025000A900BC1B2E29D1218031C5292100A1086C
:10026000031D3429A1303829BA08031D2B29BA30BF
:10027000A000200A86008701DE238031163E86001A
:1002800081012008860003308100EC01EC0AED01B9
:100290007529CF218031A900BC1B552921002008D8
:1002A00086000430870181002B292100200A860066
:1002B00087016D080106031D6B292008163E860084
:1002C000DE238031860004308100D121803122007C
:1002D0000E150E11C5296D0820072000A800280A58
:1002E00086008701290881002100ED0AC529ED0A51
:1002F0006D085406031DA8293130ED00A8292D30C2
:10030000CA218031C529D430CA218031FF30210073
:10031000ED00C5296D08D43E860087010108CA2179
:100320008031C5296908CA218031C5290030CA2118
:100330008031C5290030CA218031D1218031F0308F
:10034000EB056A0BA6290230D300C529D301C529C4
:100350006D08313A03199229033A03199629013A93
:1003600003199A29573A03197F29013A0319832956
:100370008A2921006C08003A03192629013A031939
:100380004929033A03197729C52920000C0C890C47
:10039000013908002000A300A100B830102AB030B5
:1003A000C328483087310A0081312000A3006A3019
:1003B000DD212100EC01ED010800A600A701A70145
:1003C00023082702031808002708A400A4352608DC
:1003D000240787310A008131553A031DF929343049
:1003E000A500F130A400A40BF329A50BF3290032DA
:1003F0000D2A2708A400A43526082407013E8731CA
:100400000A008231A1002708A500A5352608250786
:1004100087310A008231102280312000A70AE029AA
:10042000A2000E13220819228031210819220E176A
:100430000800A000A01F1E2A8D171F2A8D138E17DB
:10044000000020008E13201F272A8D17282A8D13C5
:100450008E17000020008E13A01E302A8D17312A1F
:100460008D138E17000020008E13201E392A8D1741
:100470003A2A8D138E17000020008E13A01D422AE9
:100480008D17432A8D138E17000020008E13201D18
:100490004B2A8D174C2A8D138E17000020008E13C7
:1004A000A01C542A8D17552A8D138E17000020008A
:1004B0008E13201C5D2A8D175E2A8D138E17000067
:1004C00020008E138D1308000B1220000E136F22D4
:1004D0008031BB006F22BC000E170B160800A00174
:1004E0008D138E1AA0178E17000020008E138E1AFF
:1004F00020178E17000020008E138E1AA0168E175C
:10050000000020008E138E1A20168E170000200087
:100510008E138E1AA0158E17000020008E138E1ACF
:1005200020158E17000020008E138E1AA0148E172F
:10053000000020008E138E1A20148E170000200059
:100540008E132008080023008C018D018E01E130FC
:100550002200970021009F01F0309E009D01133082
:100560009D00080015138B100B168B170800A000B8
:100570008600870181010800B600B501B401EF2AA9
:100580003608073E86008701210069080106031D21
:100590000A2B20003608063E860021005708010677
:1005A000031D0A2B0230EA000A2B3608063E86009D
:1005B0000230870181002000B501B50A0A2BB40181
:1005C000B40A0A2B36081B238031DB2A3608853112
:1005D0009C258031DB2A36084F238031DB2A360800
:1005E000043E860087010108A03A0319D52A013A82
:1005F0000319C02A033A0319DF2A013A03190A2B07
:10060000633A0319E22A013A0319E62A033A031965
:10061000EB2A0A2B200035080319142BA001A00A8D
:10062000A10136088631DB2E34080319192B360850
:10063000A22B3608B72AAB00063E860087010108C8
:1006400084000830040203180800873104357E3E18
:10065000820008002B0A86000530870181002B08E4
:10066000073E860081012B08083E86008101810A31
:10067000A701A8012B08093EA9000230AA00863173
:10068000292E2B0A8600023087018100A700A801CD
:100690002B08073EA900AA01AA0A8631292EAD001F
:1006A0002D0A86001030870181002D08093E860042
:1006B0002D08083E840085010008AC000108AB004D
:1006C0002C08A8002B08A7002D080E3EA900083012
:1006D000AA008631292E21002108043A0319013489
:1006E0003A08043A0319013400342108043A031D7E
:1006F0007C2B0530A100A1343A08043A031D0034D4
:100700000530BA00BA3421000C150C128C122200EC
:100710000C128C1221000D120D138D138D168E10DC
:100720000E110E120E138E130E148E158E1622003D
:100730008E100E110E1220000E178E1322008E1036
:100740000E110800A600063E860087012608043E1A
:1007500084008501000881002608073E86002608DF
:10076000163E8400000881002608043E8600A13061
:100770008100260A860002308100A001A00AA101A2
:1007800026088631DB2E493087310A008331A300E9
:100790007630DD2102302100EC006330ED000800EE
:1007A0006B080F392000B700B70A21006B08200042
:1007B0003706F03937062100EB0008002000290831
:1007C0008100210020080800F10020000E137108AC
:1007D00046258331D624F2000E170800CB2483313E
:1007E0003B08FF3A031DF82B3C08FF3A031900347D
:1007F000BB1A042C102CBD248331F900BD24833195
:10080000F900C0248331102C21006C08003A031930
:10081000FB2B013A0319FB2B033A0319102C102C64
:100820002000BB1BA72CB32CBD248331F900BC1BBB
:100830001C2CC0248331B32C2100A108031D222CC1
:10084000A130262CBA08031D192CBA30A000200AAA
:1008500086008701790881002008163E8600810104
:100860002008860003308100EC01EC0AED01632CC6
:10087000BD248331F900BC1B442C210020088600D4
:10088000043087018100192C2100200A860087018D
:100890006D080106031D5B2C2008163E86007908B2
:1008A00081002008860004308100C02483312200AA
:1008B0000E150E11B32C6D082007F800780A86007B
:1008C000870179088100ED0AB32CED0A6D08540602
:1008D000031D962C3130ED00962C2D30B824833139
:1008E000B32CD430B8248331FF302100ED00B32C79
:1008F0006D08D43E860087010108B8248331B32CEB
:100900006908B8248331B32C0030B8248331B32C68
:100910000030B8248331C0248331F030EB056A0BFA
:10092000942C0230D300B32CD301B32C6D08313A90
:100930000319802C033A0319842C013A0319882CDB
:10094000573A03196D2C013A0319712C782C2100A8
:100950006C08003A0319142C013A0319382C033A95
:100960000319652CB32C20000C0C890C01390800EC
:10097000F300F100B8303C250800B030E423080053
:10098000483087310A008431F3006A300A2521009B
:10099000EC01ED0108000B1220000E13D624833168
:1009A000BB00D624BC000E170B160800F0018D13F7
:1009B0008E1AF0178E17000020008E138E1A7017F3
:1009C0008E17000020008E138E1AF0168E1700006E
:1009D00020008E138E1A70168E17000020008E13C2
:1009E0008E1AF0158E17000020008E138E1A7015C7
:1009F0008E17000020008E138E1AF0148E17000040
:100A000020008E138E1A70148E17000020008E1393
:100A100070080800F600F701F70173087702031861
:100A200008007708F400F4357608740787310A0067
:100A30008531553A031D262D3430F500F130F40090
:100A4000F40B202DF50B202D00323A2D7708F40001
:100A5000F43576087407013E87310A00F100770803
:100A6000F500F5357608750787310A00853185313F
:100A70003C258331F70A0D2DF20020000E13720879
:100A800046258331710846250E170800F000F01F37
:100A90004B2D8D174C2D8D138E17000020008E13BB
:100AA000701F542D8D17552D8D138E1700002000AB
:100AB0008E13F01E5D2D8D175E2D8D138E17000089
:100AC00020008E13701E662D8D17672D8D138E17C7
:100AD000000020008E13F01D6F2D8D17702D8D13CB
:100AE0008E17000020008E13701D782D8D17792D24
:100AF0008D138E17000020008E13F01C812D8D1792
:100B0000822D8D138E17000020008E13701C8A2DED
:100B10008D178B2D8D138E17000020008E138D13D3
:100B200008000D170D1621000D130D12CE2685316C
:100B300000304D268531E92DB200093E860087013F
:100B40003208083E840085010008B1000108B000A9
:100B500032080E3EAE003108A5003008A40032086D
:100B60000E3EA6000830A7000D2685312000310872
:100B7000A8003008A70032080E3EA9000830AA00DD
:100B800029268531FE302000B000CA30B100AF0107
:100B90002F352E07AB0086008701403FAC00413F58
:100BA000AD002C08B0062D08B1060430AF0A2F02A4
:100BB000031CC82D32080E3E860031088100320821
:100BC0000F3E860030088100320A86000A3081001C
:100BD000080021000D1222000D12C82685312200C6
:100BE0000D17C826853122000D16C8268531C82E5E
:100BF00021000D1222000D13C826853122000D168A
:100C0000C826853122000D17C826853122000D1215
:100C1000C826853122000D13C82ECE268531A0307E
:100C20004D268531200025084D26853120002408D9
:100C30004D2685312000A7080319282E2608860096
:100C4000870101084D2685312000A60AA7031A2E28
:100C5000E92DCE268531A0304D268531200028088B
:100C60004D268531200027084D268531F825853110
:100C7000A1304D2685312000AA0803194C2EAA0365
:100C80002908860000308701AA08031D01307E264E
:100C900085318100A90A3B2EE92D2000A200A30185
:100CA00022000D13C82685312000A21F5A2E2200D3
:100CB0000D165C2E22000D1221000D12C826853162
:100CC00022000D17C826853120000830A235A30A5E
:100CD0002302031C502E22000D13C826853121004B
:100CE0000D1622000D17C826853120000D082200A0
:100CF0000D13C8268531C8268531C82EA400A5014C
:100D000022000D13C826853121000D1622000D1674
:100D10002000A60122000D13C826853122000D17E0
:100D2000C826853120000D1EA42E260AA100803081
:100D3000A2000030A3009F2E230DA30CA20CA10B38
:100D40009C2E20002208A5040830A60A2602031CB7
:100D50008A2E22000D13C826853121000D12200095
:100D600024080319B62E22000D12B82E22000D16EB
:100D7000C826853122000D17C826853122000D13A3
:100D8000C8268531C8268531C826200025080800D8
:100D90000D302000A000A00BCB2E080021000D126A
:100DA00022000D17C826853122000D12C826853174
:100DB00022000D13C82EA5003330A301A03E250646
:100DC000031DEB2E20080319E82E25083C27863149
:100DD0002127E901080021005308031D0800200015
:100DE00020080319F62E25083C2786312127863155
:100DF0002000250886008101A4012408D43E860035
:100E0000870124082507A200220A84008501000822
:100E100081001530A40A2402031CFD2EA401250A1A
:100E2000860087010108240203181D2F2408D43EE0
:100E300086000108A306A40A0F2F23082100E90059
:100E400008002508023E8600870121006E08810007
:100E50002000250A8600053081072100F030D301EB
:100E6000D30AEB05CF30EB05200021030030031936
:100E700001302100EA000800033E860087012508B2
:100E8000023E84008501000881000800003410340F
:100E900006340434CA347134CA3473348034283488
:100EA000C434E734A8346034C634053482340034A2
:100EB0009034623498349034C234AC348234203468
:100EC000553400348234803480346834CA34713408
:100ED000CA34733482340034CA34713480342834D0
:100EE0008234803480346834CA34733482340034B9
:100EF000CA3471348034A834823420348331292BAD
:100F000083312A2B8331412B8331292B8331292BA8
:100F10008331292B8331292B8331292B64008001D4
:100F20000131890B8F2F0034FF3FFF3FFF3FFF3F11
:020000040001F9
:04000E00E4F9FFFF13
:00000001FF
