:1000000080310D28FF3FFF3F80318B1C0900883174
:10001000C420003A031D8B1009008A31F72A8A3167
:10002000862A8A318B2A8A31892A8A318E2A8A3114
:10003000902A8A31922A8A31952A8A31BB2A8A31BA
:10004000C12A8A31C12A8A31C32A8831E9288831F4
:10005000ED288831F0288831F4288831F828883153
:10006000FC28893101298931272989312F298931B2
:100070002F2989313329FF3FFF3FFF3FFF3FFF3FDC
:100200008131820702298A31572A64008001013135
:10021000890B06290034FF3FFF3FFF3FFF3FFF3FB1
:10117000F500013CA300750858218831750B080063
:10118000A201A20AA0010800F701ED218831200088
:10119000B71BCE28A3080319B71ED628230BD228C5
:1011A000B81FD528E8208831AB0AF70A371BDC289E
:1011B0002308031DB71EE128003058218831AE0AEC
:1011C000F70AF708031DC4280C0C890C0139080024
:1011D0003B294F2188312F2208002000A20A080055
:1011E000AA3046218831ED282D3046218831ED285E
:1011F000D43046218831ED28F122883146218831CA
:10120000ED2820082107F600760A860087010108EC
:101210004621883120002108193E860087012008D8
:101220002107F60084008501013FF0002108193EE6
:1012300084000008F100710870068100A00AF12204
:1012400088312002031C08000730A2000800210892
:10125000193E86008701010846218831ED280030BB
:1012600046218831ED2800304621883120000030A9
:10127000A201B8200800220884000B3004020318E1
:10128000080080310435253E82000800F300F1009B
:101290000030F201F104B830F20499210800220074
:1012A0000E13B030A2218831F921F1000E17080089
:1012B000F4007408031972298230F101F2009921B7
:1012C0008831A830F1008030F20099218831203037
:1012D000F1008230F20099218831553046212000FA
:1012E000A30108000030F1008230F200992188311A
:1012F0008130F100CA30F200992188312830F100A4
:101300008030F200992188318030F1008230F20083
:10131000992188316830F1008030F20099218831BC
:101320008330F100CA30F20099212000A301A30A02
:10133000080022000E137208A22188317108A22130
:101340000E170800F0008E13F01BA8292000AA2910
:101350008D17AB298D138E178E13701BB1292000AA
:10136000B3298D17B4298D138E178E13F01ABA294D
:101370002000BC298D17BD298D138E178E13701A6E
:10138000C3292000C5298D17C6298D138E178E13EA
:10139000F019CC292000CE298D17CF298D138E1757
:1013A0008E137019D5292000D7298D17D8298D13B0
:1013B0008E178E13F018DE292000E0298D17E12901
:1013C0008D138E178E137018E7292000E9298D17C9
:1013D000EA298D138E178E13080022000E13F921AF
:1013E00088312000B700F9212000B80022000E1734
:1013F0000800F00122008E138D1320008E1AF017C2
:1014000022008E178E1320008E1A701722008E175E
:101410008E1320008E1AF01622008E178E132000D5
:101420008E1A701622008E178E1320008E1AF01559
:1014300022008E178E1320008E1A701522008E1730
:101440008E1320008E1AF01422008E178E132000A7
:101450008E1A701422008E178E1370080800F40084
:10146000200046084706031D392A372A392A00304A
:101470003A2A0130003A0319080046084407F300ED
:1014800086000130870074088100F001F00A4608E8
:101490004B22C6000800F1007007F20045087202F6
:1014A000031C552A4508F2024E2A72080800C001A2
:1014B000352488312000B71B612AA3080319B71E01
:1014C000692A230B652AB81F682A7B228831AB0A58
:1014D000C00A371B6F2A2308031DB71E742A003069
:1014E00071238831AE0AC00AC008031D572A0C0CAC
:1014F000890C01390800220884000B30040203180B
:101500000800803104350F3E82000800CA2288316D
:10151000D62AAA30A9262000A20A08002D308A2A3D
:10152000D4308A2A21081B3EBD2A20082107BF008B
:101530003F0A860087010108A9268831200021087A
:10154000193E8600870120082107BF00840085011D
:10155000013FB9002108193E84000008BA003A088A
:1015600039068100A00AF12288312002031C0800FC
:101570000730A20008002108193E860087010108F3
:101580008A2A00308A2A0030A926883120000030BB
:10159000A201982E22000E13B0303F2488319424EB
:1015A000BA0022000E1720003A080800BD004608C5
:1015B0004706031DDF2ADD2ADF2A0030E02A01303A
:1015C000003A0319080046084407BC0086000130B1
:1015D00087003D088100B901B90A46080126C60006
:1015E000080021081B3E8600870101080800203002
:1015F0008400003085001930813105218831A03008
:101600008400003085003830813105218831203058
:10161000840001308500403081310521883120303F
:10162000C4004030C5000030C600C7002000182BA1
:10163000783021009900E4278831CC248831DB24DC
:101640008831AB238831E02488310C19292B5722AB
:10165000883133300B2588313130EF2688313530F1
:1016600056268831352488312000381B3A2B230B2D
:101670003A2BB00A2130A900AB01492BFF30AA0058
:10168000422BAA032A030319482B2B080319412BC9
:10169000A903290803194F2B2B0803193E2BAB086C
:1016A000031D5E2B35248831200030084B3A031D82
:1016B000612B22000C120000AB2388312000B00106
:1016C000252B0F30B9003008D72688310038031990
:1016D000381B252B2303031D252B00307123883154
:1016E000252B2000BD003D0803198A2B8230BA014A
:1016F000BB002A248831A830C22688312A248831A8
:101700002030C72688312A2488315530A926200068
:10171000A30108000030BA008230BB002A248831BF
:101720008130BD2688312A2488312830C22688316C
:101730002A2488318030C72688312A2488316830AD
:10174000C22688312A248831B22688312A242000F2
:10175000A301A30A080022008E140C128C120000B0
:1017600022000C168C160E162000BE01BF010000D0
:10177000D2268831031CB72BFA30BE0A3E02031C66
:10178000B62B8130BA00CA30BB002A248831B22679
:1017900088312A2488312830C22688312A24883189
:1017A000D7302000BA00C430BB002A248831603012
:1017B0002000BA00A830BB002A2488311130200054
:1017C000BA00C630BB002A2488310030C7268831D1
:1017D0002A24883163302000BA009430BB002A24C8
:1017E000883190302000BA009830BB002A2488311C
:1017F000AC302000BA00C230BB002A24883120302F
:10180000C72688312A2488312000BE01BF0100008C
:10181000D2268831031C072CFA30BE0A3E02031C74
:10182000062C8030BA008230BB002A248831683010
:10183000C22688312A2488318130BD2688312A2465
:101840008831B22688312A2488310030712324005F
:101850000C15080022000E1320003B083F2488319D
:1018600020003A083F240E17080022000E1394248B
:101870008831B7009424B80022000E170800200019
:10188000B90022008E132000B91F492C22008D17A9
:101890004B2C22008D138E178E132000391F532CD2
:1018A00022008D17552C22008D138E178E132000C9
:1018B000B91E5D2C22008D175F2C22008D138E1710
:1018C0008E132000391E672C22008D17692C2200F0
:1018D0008D138E178E132000B91D712C22008D17C9
:1018E000732C22008D138E178E132000391D7B2C34
:1018F00022008D177D2C22008D138E178E13200051
:10190000B91C852C22008D17872C22008D138E1771
:101910008E132000391C8F2C22008D17912C220051
:101920008D138E178E1308002000B90122008E132C
:101930008D1320008E1AB91722008E178E132000E7
:101940008E1A391722008E178E1320008E1AB916A0
:1019500022008E178E1320008E1A391622008E1741
:101960008E1320008E1AB91522008E178E132000B8
:101970008E1A391522008E178E1320008E1AB91474
:1019800022008E178E1320008E1A391422008E1713
:101990008E1320003908080023008C018D018E0170
:1019A000E1302200970021009F01F0309E009D0150
:1019B00013309D00080015138B100B168B170800B1
:1019C0002000A030A001A100A201BF013F08A03E5D
:1019D0008600383087018101BF0A3F02031CE62CD4
:1019E0004508BA00FB2CBA033A084407B900860040
:1019F000013087008101BA08031DF32C002DF32C60
:101A00004508FF3EC700C601052D0030B301B401F3
:101A1000B101B201982EC100A60AE12DA408031D50
:101A20001F2D410886007130B82688312A2688315A
:101A3000013A031D0800332688312000A400410824
:101A400086007630B8268831B901B90A47080126E0
:101A500088314606031D302D2E2D302D0030312DBE
:101A600001300038031908000D268831C000063007
:101A70004002031CDE2D1A3040020318DE2DAC0A92
:101A800024081B3E860087014008FF3E8100240891
:101A9000193E86008101A601A501CC2688312502C8
:101AA0000318902D410886008630C03F0030C13FAA
:101AB000B901B90A4708012688314606031D642D7D
:101AC000622D642D0030652D013000381A30031D61
:101AD0006D2D2602031C08001A3026020318902DD3
:101AE000A6010D268831BE0025082407BF003F0A45
:101AF000860087013E0881002408193E86002508DB
:101B00002407BE0084008501013FB9002408193E66
:101B100084000008BA003A0839068100A50A4D2D54
:101B2000CC2688312506031DB82D4108860090304B
:101B3000C03F0030C13FB901B90A470801268831CA
:101B40004606031DA72DA52DA72D0030A82D013079
:101B50000038031DAF2D1A302602031C08000D2685
:101B60008831BE0024081A3E860087013E088100A5
:101B70001A302602031CD12D2508BC003C08003C6D
:101B8000B900470801268831C70047084606031DEB
:101B9000CC2DCB2DCC2DC70A24083F268831AF0A87
:101BA0000E2D41088600AD30B826883124084A261B
:101BB0008831003803190800A4010E2D0D26883144
:101BC0000E2D410886008701403FBE00413FBF0007
:101BD0000319EB2DFF2D3E08003A03190E2D713A23
:101BE0000319162D073A0319242DF03A0319582D1D
:101BF000163A03199B2D3D3A0319D62DFF2D4108A6
:101C0000932FBA003907BB0045083B02031C0B2E7B
:101C10004508BB02042E3B080800B901B90A470871
:101C2000012688314606031D192E172E192E003065
:101C30001A2E0130003A03190034B901B90A4708D5
:101C40000126C7004407BC00860001308700010858
:101C5000BD0008002100A01A2F2EA01D0134BC1EBB
:101C6000A01900340134A01EA019392EA030A015EF
:101C70000800BC1EA0190034BC30A0150800B90033
:101C80008600870181113908860001123908860013
:101C900081120800B9008600870181163908860084
:101CA000811139088600013001120800C1007E2E22
:101CB000410886004F30B826883199278831013A8B
:101CC000031D0800410886005330B8268831A42639
:101CD0008831003A031D0800A208031D622E01305E
:101CE00098268831410886005A30B8268831220863
:101CF000031D080021083F268831582E4108860020
:101D00008701403FBF00413FC0000319882E962E37
:101D10003F08003A0319582E4F3A03195D2E1C3A1A
:101D20000319672E093A0319772E962E4108932F2F
:101D3000BE00013CA3003E08712388313E0B080021
:101D4000A201A20AA00108003524200037080139A9
:101D500008002000BC00BA000030BB01BA04B83053
:101D6000BB042A2C83302000BA00CA30BB00080014
:101D70008701C03F0030C13F08002000BA00CA30D0
:101D8000BB0008002000BA008030BB000800200023
:101D9000BA008230BB00080024081B3E8600870181
:101DA000010808002000FA30BF0A3F020800BB000B
:101DB0000830BC00BD013B08BA000730BA36890BB9
:101DC000DE2E3D353A04BD00BB3539083D02031C0B
:101DD000EB2E3908BD02BC0BDB2E3D0808002000AD
:101DE000C300A80A0B2F43088600AA30B826883102
:101DF0001F2788312000A700A708031D032F1A30D2
:101E00002802031C080027080319092F27082C277C
:101E10008831A801F32E430886008701403FC100A6
:101E2000413FC2000319152F1D2F4108003A031925
:101E3000F32EAA3A0319F82E1D2F4308932F2100E1
:101E4000A01A201A262FA030A0120800BC1A3C1A93
:101E50000034BC30BC120800C0004E2F4008053EC4
:101E60008600023087018100A030BC00BD0140081F
:101E70005B2F2108193E860087014008053E84003B
:101E800085010008840000080106031D08004008C1
:101E90008600011140088600811208004008033EB8
:101EA000860087010108A03A03192E2F013A031971
:101EB000392F5A2F0800BF0086008701413FBE001E
:101EC0003F0A86003F08023E840085010008810029
:101ED0003F08023E86003E0881003F08033E860020
:101EE0003C0881003D08B9003F08762FBB00860002
:101EF000870181113B08860081163B088600011688
:101F00003B088600FC3081050030B908031D013014
:101F1000BA003B088600BA0DBA0D01083A06FB3933
:101F20003A0681000800860000308701C03FC13FAB
:101F30000800BC01BC011C30B9003C08D82788311E
:101F4000A03E86008701811ED22F1C30B9003C08BC
:101F5000D8278831A03E86008701011ED22F1C3071
:101F6000B9003C08D8278831A03E86001C30870184
:101F7000B9003C080119C52FD8278831A03E86003A
:101F80001C3087018112B9003C08D8278831A03E57
:101F900086001C3087018115B9003C08D827A03E77
:101FA000A10001340230BC0A3C02031800349B2F0C
:101FB000BB00BA0139083B18BA07B935BB36BB08B4
:101FC000031DDA2F3A0808000C150C128C1222009F
:101FD0000C128C1221000D120D138D138D168E1004
:101FE0000E110E120E138E130E148E158E16220065
:101FF0008E100E110E120E178E138E100E11080079
:00000001FF
