:1000000080312028FF3FFF3F803120007F08F6002D
:100010008B1C1C28F70180312E208031003A031DF3
:100020001B28F70A7708FF3A031D0B288231772235
:100030008031813142218B1076082000FF000900B9
:1000400088311328F10020000E1371084F218031F0
:10005000BE21F20020000E17720808002100E908F6
:1000600003190034EA1B0034B12180313D08FF3A06
:10007000031D3E283E08FF3A03190034BD1A4D28DF
:100080005C281B218031F5001B218031F5001E21E9
:1000900080315C28422180315C2821006908003AC7
:1000A00003194A28013A03194128033A0319412840
:1000B000013A03195C285C282000BD1B0229112984
:1000C0004221803111291B218031F500BE1B6B2894
:1000D0001E21803111292100A108031D7128A130A2
:1000E0007528B908031D6828B930A000200A8600C9
:1000F0008701750881002008163E860081012008CE
:100100008600043081000230E9006A088039013835
:10011000B2281B218031F500BE1B94282100200845
:10012000860005308701A5282100200A8600870166
:100130006A087F390106031DA7282008163E86009D
:1001400075088100200886000530810068286A084B
:100150007F392007F400740A860087017508810042
:1001600001228031EA00112901228031EA007F3921
:100170005206031DF0286A0880393138EA00F02859
:100180002D30162180311129D430162180317F3055
:100190002100EA0411296A087F39D23E86008701CE
:1001A0000108162180311129670816218031112993
:1001B00000301621803111290030162180311E2196
:1001C0008031F0302100E805680E890C890C033974
:1001D000013A031DEE280330D1001129D101112964
:1001E0006A087F39313A0319D428033A0319D82809
:1001F000013A0319DC28573A0319C028013A0319B8
:10020000C428CB2821006908003A03196028013A64
:1002100003196328033A03198928013A0319B428FA
:10022000112920000C0C890C01390800F300F100A1
:10023000B83045210800B030222008000C30F3010E
:1002400082310A008131003803193A297335303E72
:1002500082310A00F10073352F3E82310A0081316C
:10026000813145210C30F30A82310A008131730259
:10027000031C262921008030E901E90AEA05200053
:10028000BD1308002100EA170800F20020000E1339
:1002900072084F21803171084F210E170800F000BD
:1002A000F01F54298D1755298D1322008E17000039
:1002B00022008E13701F5F2920008D1761292000F6
:1002C0008D1322008E17000022008E13F01E6B2962
:1002D00020008D176D2920008D1322008E1700003D
:1002E00022008E13701E772920008D177929200097
:1002F0008D1322008E17000022008E13F01D83291B
:1003000020008D17852920008D1322008E170000F4
:1003100022008E13701D8F2920008D179129200037
:100320008D1322008E17000022008E13F01C9B29D3
:1003300020008D179D2920008D1322008E170000AC
:1003400022008E13701CA72920008D17A9292000D8
:100350008D1322008E17000022008E1320008D13B3
:1003600008000B1220000E13BE2180312000BD00BA
:10037000BE212000BE000E170B160800F0018D13E1
:100380008E1AF01722008E17000022008E13200014
:100390008E1A701722008E17000022008E13200084
:1003A0008E1AF01622008E17000022008E132000F5
:1003B0008E1A701622008E17000022008E13200065
:1003C0008E1AF01522008E17000022008E132000D6
:1003D0008E1A701522008E17000022008E13200046
:1003E0008E1AF01422008E17000022008E132000B7
:1003F0008E1A701422008E17000022008E137008CF
:1004000008006A087F39F400F40A6A087406803923
:100410007406080000341034063403340434CA343B
:100420007134CA34733480342834C434E734A83483
:100430006034C634053482340034903462349834E5
:100440009034C234AC348234203455340034823495
:10045000803480346834CA347134CA34733482349A
:100460000034CA3471348034283482348034803487
:100470006834CA34733482340034CA3471348034FA
:10048000A8348234203482340034CA347134803445
:100490006834003401343434013402343B342000F5
:1004A0000D30A30182310A008231003803196C2A11
:1004B0002335443E82310A00A1002335433E823178
:1004C0000A008B31E52382310D30A30A82310A0004
:1004D00082312302031C582A21008030E901EA05F9
:1004E0000800640080010131890B722A00340B126C
:1004F0000800FF3FFF3FFF3FFF3FFF3FFF3FFF3F42
:10102000FF3FFF3FFF3F33308400003085000C302E
:10103000823171228831A0308400003085004B302D
:101040008231712288310130BF0020005628CC2720
:101050008831B2228831003044228831BF2A2100F1
:101060000C150C128C128D138E100E120E138E1383
:101070008E158E1622008E100C128C120E1220006D
:101080000E1722008E1320008D1324000C150A3039
:101090002000A000A101A6218831462188315028D6
:1010A000210015138B100B168B17080078302100C8
:1010B000990046278831042488314F2788312F2012
:1010C00088318126883179248831FB238831F923BE
:1010D00088315727883188302000A0001330A100C4
:1010E000A621883108248831032488310030072262
:1010F00088317E2488310430442488312308B000AC
:101100002208AF006430A000A101A6218831D621B9
:1011100088312508B2002408B100FB238831F92367
:101120008831642788312100510803199B28E22364
:101130008831BA20883120000F30B30A3302031CF3
:10114000A928B3010B248831BA208831D108031DA6
:10115000A42820003208A7003108A6003008A90002
:101160002F08A80083248831BA208831D1080319B8
:101170006928B4282100EA1FC02846218831502858
:101180002F278831003A0319E328382788312000B7
:10119000AE00033E860087010108FF3A0319D728F5
:1011A0002E08033E860001083406031DE0282E0A9F
:1011B00086000530870181022E08D4248831E32877
:1011C0002E08FE23883121005108033A031D1629F9
:1011D000680E890C890C0339023A031DF128D101EC
:1011E000162968080F390A3A031D0E29680E0339BB
:1011F000013A0319EF28F030E805680E03392000A2
:10120000AC00AC0AAC0E2100680820002C06CF39D7
:101210002C062100E800D101D10A1629A527883122
:1012200005302000A000A101A62188312100510B2A
:101230000800690B080068080F392000AC000A306C
:101240002C02031C2929F0302100E8050330D100CD
:101250000800AD01EE2388312100690B32292000FE
:101260003D1C402905302000A000A101A6218831A5
:101270000B30AD0A2D02031C2A292100A5270800E6
:101280000B12DC270230D1000B1608002000A6014B
:101290002608A03E86004B3087018101A60A26025F
:1012A000031C48290E1722008E1320008D132200E4
:1012B0008E100E168C16D2278831A6218831220076
:1012C0000C12D2278831A621883122000C16D22791
:1012D0008831A6212100E901E90A20000B30A6018E
:1012E00082310A00893100380319982926350F3ECA
:1012F00082310A008931553A031D84290530A00046
:10130000A101A621883190292635103E82310A009C
:101310008931A10026350F3E82310A008931E5234B
:101320000B30A60A82310A0089312602031C762975
:10133000BD238831A60120000C190800A60A260842
:10134000FF3A03194629CE2288319B29A30121089F
:10135000200403190800201CBC292308A200A20DA8
:101360002100170820002206C1392206210097001B
:1013700017146300210017102000A136A00CA30A47
:10138000A72921000D1222000D13AB228831220063
:101390000D16AB22883122000D17AB2288312200B6
:1013A0000D12AB22883122000D13AB2AB2228831F4
:1013B000913044228831013072228831A6000030F9
:1013C00072228831A700BF2220002608A500A401B0
:1013D0002708A4040800B2228831A03044228831B2
:1013E0002000250844228831200024084422883126
:1013F0002000A7080319062A26088600870101088D
:10140000442288312000A60AA703F829BF2A200019
:10141000A400B22288319030442288310130442225
:1014200088312000240844228831BF228831B2222A
:101430008831903044228831003044228831BF2ADC
:10144000B2228831A030442288312000250844226D
:1014500088312000240844228831C1218831A130FC
:10146000442288312000A7080319432AA70326082D
:10147000860000308701A708031D013072228831E1
:101480008100A60A322ABF2A2000A2008030A300D1
:1014900022000D13AB2288312000220823050319F6
:1014A000542A22000D16562A22000D1221000D1278
:1014B000AB22883122000D17AB2288312000A336E1
:1014C000A308031D482A22000D13AB2288312100F6
:1014D0000D1622000D17AB22883120000D082200C6
:1014E0000D13AB2A2000A100A20122000D13AB2294
:1014F000883121000D1622000D1680302000A30037
:1015000022000D13AB22883122000D17AB22883147
:10151000200023080D1AA204A336A308031D802A65
:1015200022000D13AB22883121000D12200021086A
:1015300003199D2A22000D129F2A22000D16AB22AC
:10154000883122000D17AB22883122000D13AB2207
:101550002000220808000A302000A000A00BAE2ABC
:101560000000080021000D1222000D17AB22883167
:1015700022000D12AB22883122000D13AB2A21006C
:101580000D1222000D12AB22883122000D17AB2262
:10159000883122000D16AB228831AB2A2100E908E0
:1015A00003190034EA1B0034EE2388313D08FF3A6A
:1015B000031DDE2A3E08FF3A03190034BD1AED2A46
:1015C000FC2ABB238831A500BB238831A500BD239D
:1015D0008831FC2AE2238831FC2A21006908003A7C
:1015E0000319EA2A013A0319E12A033A0319E12A05
:1015F000013A0319FC2AFC2A2000BD1BA22BB12BA7
:10160000E2238831B12BBB238831A500BE1B0B2BF5
:10161000BD238831B12B2100A108031D112BA1305E
:10162000152BB908031D082BB930A000200A86002D
:101630008701C0278831163E860081012008860078
:10164000043081000230E9006A0880390138522BE9
:10165000BB238831A500BE1B332B21002008860048
:1016600005308701432B2100200A860087016A0884
:101670007F390106031D452B2008163E8600C02732
:101680008831860005308100082B6A087F392007E1
:101690002000A400240A860087012508810021007B
:1016A000B3278831EA00B12BB3278831EA007F39AC
:1016B0005206031D902B6A0880393138EA00902BBE
:1016C0002D30B6238831B12BD430B62388317F300A
:1016D0002100EA04B12B6A087F39D23E86008701D7
:1016E0000108B6238831B12B6708B6238831B12BA6
:1016F0000030B6238831B12B0030B6238831BD23AA
:101700008831F0302100E805680E890C890C033916
:10171000013A031D8E2B0330D100B12BD101B12B27
:101720006A087F39313A0319742B033A0319782B6D
:10173000013A03197C2B573A0319602B013A03191C
:10174000642B6B2B21006908003A0319002B013A26
:101750000319032B033A0319282B013A0319542BBD
:10176000B12B20000C0C890C013908002000A300CB
:10177000A100B830E52BB0306E2F20000C30A30153
:1017800082310A008B3100380319DA2B2335303EC1
:1017900082310A008B31A10023352F3E82310A00AD
:1017A0008B31E5230C30A30A82310A008B312302EE
:1017B000031CC62B21008030E901E90AEA0520005C
:1017C000BD1308002100EA170800A2000E1322082A
:1017D000D42688312108D4260E1708000B122000C9
:1017E0000E1390268831BD009026BE000E170B16F2
:1017F0000800CC27080022000E110800A000860077
:1018000087018101080008000E1122000E11080056
:1018100022000E150800C72488312000A800280ADD
:1018200086000430870181002808043E8600A3302A
:1018300081002808033E8600FF3081002808063E0C
:1018400086003F088100BF012808073E860081010D
:101850007E2488311F30442488312308A7002208C1
:10186000A6007924883120002808083E86008701D8
:10187000260881002808093E860027088100A0016B
:10188000A101A10A2808442D2000A50025087224E2
:1018900088316C248831C7302000A4000000A40BDC
:1018A0004E2C003200006E2488310038031D532C6A
:1018B0006C2488316E2488310038031D5A2C1C0892
:1018C0002000A100A00121001B082000A004210885
:1018D000A3002008A20008009D14080021001D3666
:1018E00001390800A00009070907013821009D00FF
:1018F000080023008E0121000E107B2F23000E1400
:1019000021000E14822FC72488312000AA002A0A41
:1019100086000A30870181002A08043E8600810182
:101920002A08033E8600FF3081002A08063E860012
:1019300081012A08073E860081012A08083E8600A8
:1019400081012A08093E860081012A080A3E860094
:1019500081012A080C3E8600270881002A080B3ED8
:101960008600260881002A080D3E86008101810A32
:101970002A080F3E8600290881002A080E3E8600AC
:1019800028088100A001A101A10A2A08442D2100F4
:10199000A108031DCE2C0630A100A134B908031DF7
:1019A00000340630B900B934AB00072D2B08063ED1
:1019B00086000230870181002000AA15252D2B0802
:1019C000073E86008701210067080106031D252DBB
:1019D00020002B08063E8600210055080106031D45
:1019E000252D68083F398038E800252D2A15252D3A
:1019F0002B08C1258831DC2C2B082C2688312B089C
:101A0000E9258831DC2C2B0860268831DC2C2B085A
:101A1000043E860087010108A03A0319D62C013A3A
:101A20000319DF2C033A0319F62C013A0319252D6B
:101A3000133A0319F82C013A0319FC2C033A031941
:101A4000FF2C723A0319032D252D20002A14AA1DFC
:101A5000332D0030A001A00AAA180130A1002B08E4
:101A600044258831382D2A1D3F2D2B08A12588318A
:101A70002000A9002A06FE392906AA00402D2A10B6
:101A80002A1808002B08FE2BA5003130A301A03E28
:101A90002506031D5A2D20080319512D2100530836
:101AA000D400200034082100D3000530D2078D2750
:101AB000E701013421005108031D003420002008F3
:101AC00003196C2D2508033E860087012508023E78
:101AD00084008501000881002508023E86008701F8
:101AE00034088100250A8600053081072508860014
:101AF0008101A4012408D23E86008701240825071D
:101B0000A200220A84008501000881001530A40A81
:101B10002402031C7A2DA401250A860087010108EE
:101B2000240203189A2D2408D23E86000108A30639
:101B3000A40A8C2D21008D27200023082100E70016
:101B40000134A600063E860087012608043E840074
:101B50008501000881002608073E86002608163EFB
:101B60008400000881002608043E8600A130810020
:101B7000260A860002308100A001A00AA1012608E1
:101B8000442DA800D82D892E812E280A86000230E7
:101B9000C627023081000800280A86000330C627C5
:101BA0003C0881002808083E86003B0881000800A8
:101BB0002808D7278831013A0319C32D033A03199E
:101BC000C42D013A0319C52D073A0319CC2DE82D70
:101BD0000800A80086008701463FA70027072707BF
:101BE000493E82310A008D311A26A600280A860055
:101BF00087012608023E81002808043E8600B23094
:101C000081002808073E86002708270727074A3E45
:101C100082310A008E3181002708270727074B3EB3
:101C200082310A008E31A0002608A100A2012808F6
:101C3000083E472EA000202E013402340434003424
:101C40002008003A03191C2E013A03191D2E033AED
:101C500003191E2E1F2E0800A80086008701463F8C
:101C6000A70027072707493E82310A008E311A262E
:101C7000A6002808073EA0002608A100A201270808
:101C8000270727074B3E82310A008E31472EA500D9
:101C90002008A4002508A3000130A1020030A23BC7
:101CA000210A0319220A0319080023088600870164
:101CB00024088400850100088100A40AA30A4C2E90
:101CC000A800D7278831003A0319802E013A03195A
:101CD0006A2E802E280A8600053087018100280898
:101CE000073E860081012808083E86008101810A9E
:101CF000A401A5012808093EA6000230A700202A59
:101D0000080020003430A401A501A6000930A70076
:101D1000202A3430A401A501A6000930A700EB2930
:101D2000A0018D138E1AA01722008E17000022002A
:101D30008E1320008E1A201722008E17000022001A
:101D40008E1320008E1AA01622008E17000022008B
:101D50008E1320008E1A201622008E1700002200FB
:101D60008E1320008E1AA01522008E17000022006C
:101D70008E1320008E1A201522008E1700002200DC
:101D80008E1320008E1AA01422008E17000022004D
:101D90008E1320008E1A201422008E1700002200BD
:101DA0008E13200020080800A000A01FD92E8D1738
:101DB000DA2E8D1322008E17000022008E132000D1
:101DC000201FE42E8D17E52E8D1322008E170000A4
:101DD00022008E132000A01EEF2E8D17F02E8D13E3
:101DE00022008E17000022008E132000201EFA2EE3
:101DF0008D17FB2E8D1322008E17000022008E13EC
:101E00002000A01D052F8D17062F8D1322008E1781
:101E1000000022008E132000201D102F8D17112F7F
:101E20008D1322008E17000022008E132000A01CAC
:101E30001B2F8D171C2F8D1322008E1700002200E0
:101E40008E132000201C262F8D17272F8D13220084
:101E50008E17000022008E1320008D130800210829
:101E6000053A031901343908053A031901340034DD
:101E70002108053A031D3F2F0630A100A13439087F
:101E8000053A031D00340630B900B93423008C0133
:101E90008D018E0120000E1421000E100800272055
:101EA00021000D120D138D1222008D1608007827C7
:101EB0000B1222008C168E168D178E1724008C1292
:101EC00021008C128E12080024008C1622008D1323
:101ED0008E1321008C168E160B16BD2B2000A10030
:101EE0000E132108D42688319026A2000E17080070
:101EF00082314F2ABD2B2200970121009F019E01B4
:101F00009D010800E1302200970021009F01F03080
:101F10009E009D0113309D000800F030D101D10AD0
:101F2000E805CF30E8052000210300300319013017
:101F3000A200A20EA20DA20D210068082000220618
:101F40003F3922062100E800080068080F39200008
:101F5000AC00AC0A2100680820002C06F0392C06E1
:101F60002100E80008006A087F392000A400A40AC4
:101F700021006A0820002406803924062100080078
:101F80002000250881002100200808008701810029
:101F90002808073E860008000D170D1621000D13B6
:101FA0000D12080040302000A000A1010800063EEC
:101FB00086008701010808000E30A30182310A0063
:101FC0008F3100380319F82F23353C3E82310A0047
:101FD0008F31A10023353B3E82310A008F31E5234A
:101FE0000E30A30A82310A008F312302031CE42F32
:101FF00003302100E9006A0880396338EA000800EC
:020000040001F9
:04000E00ECF9FFDF2B
:00000001FF
