:1000000080311428FF3FFF3F803120007F08F60039
:100010008B1C1128843119248031003A03191128CE
:100020008B107608FF00090080311628A030BA0135
:10003000BB018400003085004F308731F4278031C8
:100040002000222878302100990024000C15CD23AF
:100050008531CF258031D7228031E6228031D020F2
:100060008031AB2380313620803133289323803197
:10007000003A03195C289D2380312000B900033E1B
:10008000860087010108FF3A03194E283908033E0C
:100090008600010821006E06031D58282000390A39
:1000A00086000530870181023908F02280315C2802
:1000B00020003908EB22803121005308023A031D49
:1000C00090286A08023A031D6728D30190286B081C
:1000D0000F390A3A031D84286B0E0339033A0319BA
:1000E0006528F030EB056B0E03392000B600B60A28
:1000F000B60E21006B0820003606CF3936062100E7
:10010000EB00D301D30A9028F9238031343020004A
:10011000B700F130B600B60B8B28B70B8B28003236
:100120002100530B0800EC08031D08006B080F3971
:100130002000B6000A303602031CA428F03021004B
:10014000EB050230D3000800B8018822803121007D
:10015000EC08031DAE2820003A1CC12834302000D2
:10016000B700F130B600B60BB328B70BB328003296
:1001700020000B30B80A3802031CA5282100F923FF
:1001800008000B128731CA270B1608002000A100B7
:100190000E1321082D2280319322A2000E17080091
:1001A00022000C128E1403302000A8000830A70093
:1001B0007830A600A60BDA28A70BDA28A80BDA28D5
:1001C00022000C1603302000A8000830A700783069
:1001D000A600A60BE928A70BE928A80BE92822000E
:1001E0000E168C1620009330A90187310A00803149
:1001F0000038031922292935963E87310A008031BB
:10020000553A031D0D293430A700F130A600A60B86
:100210000729A70B0729003219292935973E87316D
:100220000A008131A1002935963E87310A008131CB
:10023000242220009330A90A87310A008131290243
:10024000031CFB28FB21803120000C1908002A2107
:1002500080312429882280313A08FF3A031D34294D
:100260003B08FF3A03190034BA1A40294C29F921F6
:100270008031A500F9218031A500FB2180314C2976
:1002800021006C08003A03193729013A031937296C
:10029000033A03194C294C292000BA1BE329EF2902
:1002A000F9218031A500BB1B5829FB218031EF29A2
:1002B0002100A108031D5E29A1306229BA08031D8F
:1002C0005529BA30A000200A860087010724803112
:1002D000163E860081012008860003308100EC0173
:1002E000EC0AED019F29F9218031A500BB1B7F2974
:1002F0002100200886000430870181005529210053
:10030000200A860087016D080106031D9529200833
:10031000163E860007248031860004308100FB21D0
:10032000803122000E150E11EF296D0820072000E4
:10033000A400240A86008701250881002100ED0A17
:10034000EF29ED0A6D085406031DD2293130ED0066
:10035000D2292D30F4218031EF29D430F42180319D
:10036000FF302100ED00EF296D08D43E86008701A3
:100370000108F4218031EF296908F4218031EF2947
:100380000030F4218031EF290030F4218031FB214D
:100390008031F030EB056A0BD0290230D300EF2911
:1003A000D301EF296D08313A0319BC29033A031927
:1003B000C029013A0319C429573A0319A929013A56
:1003C0000319AD29B42921006C08003A03195029FA
:1003D000013A03197329033A0319A129EF292000CF
:1003E0000C0C890C013908002000A300A100B830D2
:1003F000242AB030C62820009430A30187310A0097
:10040000823100380319202A2335B63E87310A008D
:100410008231553A0319182A2335B73E87310A002D
:100420008231A1002335B63E87310A008231242271
:100430009430A30A87310A0082312302031C042A64
:100440002100EC01ED010800A2000E1322082D226C
:10045000803121082D220E170800A000A01F322A8B
:100460008D17332A8D1322008E17000022008E1361
:100470002000201F3D2A8D173E2A8D1322008E1743
:10048000000022008E132000A01E482A8D17492A42
:100490008D1322008E17000022008E132000201ED4
:1004A000532A8D17542A8D1322008E170000220024
:1004B0008E132000A01D5E2A8D175F2A8D13220047
:1004C0008E17000022008E132000201D692A8D1730
:1004D0006A2A8D1322008E17000022008E1320003E
:1004E000A01C742A8D17752A8D1322008E17000008
:1004F00022008E132000201C7F2A8D17802A8D1346
:1005000022008E17000022008E1320008D13080099
:100510000B1220000E1393228031BA009322BB00ED
:100520000E170B160800A0018D138E1AA0172200BB
:100530008E17000022008E1320008E1A2017220032
:100540008E17000022008E1320008E1AA0162200A3
:100550008E17000022008E1320008E1A2016220013
:100560008E17000022008E1320008E1AA015220084
:100570008E17000022008E1320008E1A20152200F4
:100580008E17000022008E1320008E1AA014220065
:100590008E17000022008E1320008E1A20142200D5
:1005A0008E17000022008E13200020080800230070
:1005B0008C018D018E01E1302200970021009F0106
:1005C000F0309E009D0113309D00080015138B1024
:1005D0000B168B170800A000860087018101080018
:1005E000B500B401B301232B3508063E8600023066
:1005F000870181002000B401B40A3E2B3508073E74
:1006000086008701210069080106031D3E2B20009A
:100610003508063E8600210057080106031D3E2BC3
:100620000230EA003E2BB301B30A3E2B35085023BB
:100630008031FA2A35088531DA258031FA2A3508E1
:1006400084238031FA2A3508043E86008701010898
:10065000A03A0319F42A013A0319FE2A033A0319AE
:10066000132B013A03193E2B633A0319162B013A57
:1006700003191A2B033A03191F2B3E2B20003408B1
:100680000319482BA001A00AA10135088731272FA3
:10069000330803194E2B35088731072F3508EB2A0D
:1006A000A800063E86008701010884000830040285
:1006B0000318080088310435003E82000800280A2B
:1006C00086000530870181002808073E86008101E9
:1006D0002808083E86008101810AA401A501280896
:1006E000093EA6000230A7008631692E280A86003E
:1006F000023087018100A400A5012808073EA6005A
:10070000A701A70A8631692EAA002A0A860010309E
:1007100087018100A401A5012A080E3EA600083029
:10072000A7008631692E21002108043A03190134FB
:100730003A08043A0319013400342108043A031D2D
:10074000A42B0530A100A1343A08043A031D00345B
:100750000530BA00BA34EC232000A600260A860031
:100760000230870181002608043E8600A330810004
:100770002608033E8600FF3081002608063E8600DC
:10078000553081002608073E8600AA308100A0016E
:10079000A101A10A26088731272F21000C150C1270
:1007A0008C1222000C128C1221000D120D138D13CD
:1007B0008D168E100E110E120E138E130E148E1532
:1007C0008E1622008E100E110E1220000E1722001F
:1007D0008E138E100E1108002100A108031DF32BAB
:1007E0000530A100A134BA08031D00340530BA0059
:1007F000BA346B080F392000B600B60A21006B0826
:1008000020003606F03936062100EB0008002000F3
:1008100025088100210020080800F10020000E13A7
:1008200071081D2584318C25F20020000E177208F6
:1008300008007F2584313A08FF3A031D232C3B082A
:10084000FF3A03190034BA1A2F2C3B2CE8248431C8
:10085000F500E8248431F500EB2484313B2C2100A1
:100860006C08003A0319262C013A0319262C033A86
:1008700003193B2C3B2C2000BA1BD22CDE2CE82485
:100880008431F500BB1B472CEB248431DE2C210086
:10089000A108031D4D2CA130512CBA08031D442C76
:1008A000BA30A000200A8600870175088100200860
:1008B000163E860081012008860003308100EC018D
:1008C000EC0AED018E2CE8248431F500BB1B6F2C63
:1008D000210020088600043087018100442C21007B
:1008E000200A860087016D080106031D862C20085A
:1008F000163E8600750881002008860004308100BD
:10090000EB24843122000E150E11DE2C6D08200719
:10091000F400740A8600870175088100ED0ADE2C58
:10092000ED0A6D085406031DC12C3130ED00C12CB9
:100930002D30E3248431DE2CD430E3248431FF30A5
:100940002100ED00DE2C6D08D43E860087010108F1
:10095000E3248431DE2C6908E3248431DE2C00306A
:10096000E3248431DE2C0030E3248431EB24843111
:10097000F030EB056A0BBF2C0230D300DE2CD30124
:10098000DE2C6D08313A0319AB2C033A0319AF2C56
:10099000013A0319B32C573A0319982C013A031959
:1009A0009C2CA32C21006C08003A03193F2C013A1F
:1009B0000319632C033A0319902CDE2C20000C0C35
:1009C000890C01390800F300F100B8301325080044
:1009D000B0300D2408009430F30187310A008431CF
:1009E000003803190F2D7335B63E87310A00843164
:1009F000553A0319072D7335B73E87310A00F100C8
:100A00007335B63E87310A00853185311325943020
:100A1000F30A87310A0085317302031CF32C21008D
:100A2000EC01ED010800F20020000E1372081D25F4
:100A3000843171081D250E170800F000F01F222DCB
:100A40008D17232D8D1322008E17000022008E1388
:100A5000701F2D2D20008D172F2D20008D132200AB
:100A60008E17000022008E13F01E392D20008D17E6
:100A70003B2D20008D1322008E17000022008E13C4
:100A8000701E452D20008D17472D20008D1322004C
:100A90008E17000022008E13F01D512D20008D179F
:100AA000532D20008D1322008E17000022008E137C
:100AB000701D5D2D20008D175F2D20008D132200ED
:100AC0008E17000022008E13F01C692D20008D1758
:100AD0006B2D20008D1322008E17000022008E1334
:100AE000701C752D20008D17772D20008D1322008E
:100AF0008E17000022008E1320008D1308000B12A9
:100B000020000E138C2584312000BA008C25200093
:100B1000BB000E170B160800F0018D138E1AF0178C
:100B200022008E17000022008E1320008E1A7017EC
:100B300022008E17000022008E1320008E1AF0165D
:100B400022008E17000022008E1320008E1A7016CD
:100B500022008E17000022008E1320008E1AF0153E
:100B600022008E17000022008E1320008E1A7015AE
:100B700022008E17000022008E1320008E1AF0141F
:100B800022008E17000022008E1320008E1A70148F
:100B900022008E17000022008E13700808000D1727
:100BA0000D1621000D130D12FA26853100308D2609
:100BB0008531292EB1000E3EAD00A401A5013108FA
:100BC0000E3EA6000830A7004D2685311A302000C1
:100BD000A900F830A800A80BEB2DA90BEB2D000005
:100BE0002000A401A50131080E3EA6000830A70090
:100BF00069268531FE302000AF00CA30B000AE015A
:100C00002E352D07A80086008701403FA900413FEF
:100C1000AA002F082906AB0030082A06AC00A53030
:100C20002B06AF005A302C06B0000430AE0A2E025C
:100C3000031C002E31080E3E86003008810031086A
:100C40000F3E86002F088100310A86000A3081009D
:100C5000080021000D1222000D12F326853122001A
:100C60000D17F326853122000D16F3268531F32E5C
:100C700021000D1222000D13F326853122000D16DE
:100C8000F326853122000D17F326853122000D123F
:100C9000F326853122000D13F32EFA268531A0307C
:100CA0008D268531200025088D26853120002408D9
:100CB0008D2685312000A7080319682E2608860096
:100CC000870101088D2685312000A60AA7035A2E28
:100CD000292EFA268531A0308D2685312000250861
:100CE0008D268531200024088D26853138268531D2
:100CF000A1308D2685312000A70803198C2EA7036B
:100D00002608860000308701A708031D0130BB2696
:100D100085318100A60A7B2E292E2000A20080307A
:100D2000A30022000D13F32685312000220823059D
:100D300003199D2E22000D169F2E22000D12210058
:100D40000D12F326853122000D17F3268531200080
:100D5000A336A308031D912E22000D13F32685311F
:100D600021000D1622000D17F326853120000D08F5
:100D700022000D13F32EA100A20122000D13F32671
:100D8000853121000D1622000D1680302000A300B1
:100D900022000D13F326853122000D17F32685312D
:100DA000200023080D1AA204A336A308031DC82E91
:100DB00022000D13F326853121000D122000210899
:100DC0000319E52E22000D12E72E22000D16F32640
:100DD000853122000D17F326853122000D13F326ED
:100DE0002000220808000A302000A000A00BF62EE8
:100DF0000000080021000D1222000D17F326853196
:100E000022000D12F326853122000D13F32EA600C9
:100E1000063E860087012608043E840085010008FE
:100E200081002608073E86002608163E840000083A
:100E300081002608043E8600A1308100260A860033
:100E400002308100A001A00AA1012608272FA500D9
:100E50003330A301A03E2506031D372F20080319B8
:100E6000342F2508882787316D27E90108002100E4
:100E70005308031D0800200020080319422F2508ED
:100E8000882787316D27873120002508860081015A
:100E9000A4012408D43E8600870124082507A20067
:100EA000220A84008501000881001530A40A24026A
:100EB000031C492FA401250A86008701010824028A
:100EC0000318692F2408D43E86000108A306A40A4B
:100ED0005B2F23082100E90008002508023E860058
:100EE000870121006E0881002000250A8600053058
:100EF00081072100F030D301D30AEB05CF30EB0599
:100F0000200021030030031901302100EA0008000D
:100F1000033E860087012508023E84008501000803
:100F2000810008000034103406340434CA347134AB
:100F3000CA34733480342834C434E734A834603479
:100F4000C63405348234003490346234983490349A
:100F5000C234AC348234203455340034823480348A
:100F600080346834CA347134CA34733482340034FF
:100F7000CA34713480342834823480348034683404
:100F8000CA34733482340034CA3471348034A8349F
:100F9000823420349530A30187310A00873100382C
:100FA0000319EE2F2335C23E87310A008731553AA7
:100FB0000319E62F2335C33E87310A00A1002335EC
:100FC000C23E87310A008231242287319530A30A3C
:100FD00087310A0087312302031CD22F02302100FF
:100FE000EC006330ED000800640080010131890BE2
:100FF000F52F0034FF3FFF3FFF3FFF3FFF3FFF3F25
:1010000083315E2B83315F2B8331762B83315E2BD3
:1010100083315E2B83315E2B83315E2B83315E2BDC
:020000040001F9
:04000E00E4F9FFFF13
:00000001FF
