:08000000803102288731072F2F
:100E0E002000092F0830210099008E2787312927CD
:100E1E0087319D27873122008E140E151230F40073
:100E2E003430F5005630F6007830F7001230F80006
:100E3E003430F9005630FA007830FB005530AB27CD
:100E4E008731252F22000D170D1621000D130D12BF
:100E5E008C100C1024000D120D133A278731003020
:100E6E00452787316E2F21000D1222000D17852781
:100E7E0087310D12852787310D13852FF200F3016F
:100E8E000D1385278731F21F4E2F0D164F2F0D1282
:100E9E0021000D12852787310D17852787310830E0
:100EAE00F235F30A7302031C472F0D138527873182
:100EBE0021000D1622000D178527873120000D0801
:100ECE0022000D138527873185278731852F210035
:100EDE000D1222000D12852787310D1785278731B8
:100EEE000D168527873185278731852787318527F9
:100EFE0087318527873185278731852FE9278731E8
:100F0E004230F000F00B892F0000E9270800230083
:100F1E008C018D018E01E1302200970021009F018E
:100F2E00F0309E009D0113309D00080021008E16AA
:100F3E008D138E130E130C150E128C160C128E159D
:100F4E000C158E100E110800F00022008D138E135A
:100F5E00F01FB32F8D17B42F8D138E178E13701F96
:100F6E00BA2F8D17BB2F8D138E178E13F01EC12F18
:100F7E008D17C22F8D138E178E13701EC82F8D17BF
:100F8E00C92F8D138E178E13F01DCF2F8D17D02FC7
:100F9E008D138E178E13701DD62F8D17D72F8D1381
:100FAE008E178E13F01CDD2F8D17DE2F8D138E17DF
:100FBE008E13701CE42F8D17E52F8D138E178E1345
:100FCE008D130800003022000D1B0130F0000C08BC
:100FDE007006FE3970068C00003020000D1A0130AC
:100FEE00F000F00D22000C087006FD3970068C0022
:020FFE000800E9
:020000040001F9
:04000E00C4C9FCDB8A
:00000001FF
