:08000000803102288731B42F82
:100F5C00640080010131890BAF2F003470308400A4
:100F6C00003085000A308731AE278731203084006D
:100F7C00003085001C308731AE278731A0308400CB
:100F8C000030850038308731AE278731203084001F
:100F9C000130850040308731AE2787312000D62FB5
:100FAC00783021009900E1278731F0278731220022
:100FBC008E100E11E02F23008C018D018E01E1307B
:100FCC002200970021009F01F0309E009D011330FC
:100FDC009D0008000C120C158C160D120D138D13A0
:100FEC008D168E100E110E120E138E130E148E15EE
:100FFC008E16080000345B34523446345D34203491
:10100C0050346F347734653472342D346F346E341D
:10101C002D345234653473346534743420346D3467
:10102C006534733473346134673465342034663416
:10103C0072346F346D3420346E346F3464346534F0
:10104C002034253464340A345B34523446345D34F1
:10105C0041346434643469346E34673420346E340F
:10106C006F3464346534203474346F342034743405
:10107C00613462346C3465340A3400345B34523479
:10108C0046345D3420345434583420344E346F3468
:10109C006434653420342534643420342D343E34A7
:1010AC0020342534643420347C3420344D3473346F
:1010BC0067342034493444342034253430343234C9
:1010CC00583420344F347034743420342534303454
:1010DC003234583420347C34203444346134743405
:1010EC0061343A3400345B34523446345D34203449
:1010FC00443472346F347034703469346E34673401
:10110C0020345434583420347034613463346B34A8
:10111C006534743420342D34203472346534743492
:10112C00753472346E346534643420344E34553432
:10113C004C344C340A3400345B34523446345D3411
:10114C002034433452344334203465347234723492
:10115C006F34723420347C3420345234583420347C
:10116C00253430343234583420347C3420344334F5
:10117C0041344C34433420342534303432345834F4
:10118C000A3400345B34523446345D3420345234E7
:10119C00463420346E346F34643465342034253452
:1011AC006434203469347334203467346F346934D4
:1011BC006E346734203464346F3477346E340A34CC
:1011CC0000345B34523446345D34203447346F344D
:1011DC0074342034413443344B3420346634723408
:1011EC006F346D3420346E346F3464346534203491
:1011FC00253464340A3400343034313432343334EA
:10120C003434353436343734383439344134423468
:10121C004334443445344634003425343034323489
:06122C00583420340034A8
:020000040001F9
:04000E00C4C9FCDB8A
:00000001FF
