:1000000080311428FF3FFF3F803120007F08FA0035
:100010008B1C11288531C8258031003A031911281D
:100020008B107A08FF00090080311628A030CB0120
:10003000CC018400003085004F308731B3278031F8
:1000400020007A280D170D1621000D130D1298218E
:10005000803100302C218031C828AF00093E860055
:1000600087012F08083E840085010008AE000108C2
:10007000AD002F080E3EAB002E08A5002D08A400F1
:100080002F080E3EA6000830A700EC20803120008B
:100090002E08A5002D08A4002F080E3EA60008304B
:1000A000A70008218031FE302000AD00CA30AE002C
:1000B000AC012C352B07A80086008701403FA90022
:1000C000413FAA002908AD062A08AE060430AC0A52
:1000D0002C02031C59282F080E3E86002E08810092
:1000E0002F080F3E86002D0881002F0A86000A3057
:1000F0008100080078302100990024000C15B921F6
:10010000803122208031A5218031B421803120002E
:10011000CA014A083A3E860087014A08553C8100D8
:100120001030CA0A4A02031C89283A30A401A501EA
:10013000A6001030A700EC2080312000CA014A0838
:100140003A3E8600103087018101CA0A4A02031C28
:100150009F283A30A401A501A6001030A70008216D
:1001600080312000CA01B9014A08553CB800031C7F
:10017000B9034A083A3E8600870101083806390467
:10018000031DC1281030CA0A4A02031CB328C7281D
:1001900021000D1222000D129221803122000D1734
:1001A0009221803122000D16922180319229210066
:1001B0000D1222000D139221803122000D16922182
:1001C000803122000D179221803122000D129221E0
:1001D000803122000D13922998218031A0302C21EA
:1001E0008031200025082C218031200024082C217A
:1001F00080312000A70803190729260886008701F7
:1002000001082C2180312000A60AA703F928C8285C
:1002100098218031A0302C218031200025082C210C
:100220008031200024082C218031D7208031A1305A
:100230002C2180312000A70803192B29A7032608A9
:10024000860000308701A708031D01305A21803144
:100250008100A60A1A29C8282000A2008030A30025
:1002600022000D139221803120002208230503195A
:100270003C2922000D163E2922000D1221000D12EC
:100280009221803122000D17922180312000A33667
:10029000A308031D302922000D1392218031210073
:1002A0000D1622000D179221803120000D0822002A
:1002B0000D139229A100A20122000D139221803179
:1002C00021000D1622000D1680302000A300220010
:1002D0000D139221803122000D17922180312000D0
:1002E00023080D1AA204A336A308031D67292200C0
:1002F0000D139221803121000D12200021080319D5
:10030000842922000D12862922000D1692218031A7
:1003100022000D179221803122000D13922120001E
:10032000220808000D302000A000A00B952908002D
:1003300021000D1222000D179221803122000D1292
:100340009221803122000D13922923008C018D010E
:100350008E01E1302200970021009F01F0309E00C5
:100360009D0113309D00080015138B100B168B1781
:10037000080021000C150C128C1222000C128C1299
:1003800021000D120D138D138D168E100E110E12ED
:100390000E138E130E148E158E1622008E100E1153
:1003A0000E1220000E178E1322008E100E11080060
:1003B000FA248131003A0319FE29042581312000F5
:1003C000B700033E860087010108FF3A0319F029B0
:1003D0003708033E8600010821006E06031DFA2936
:1003E0002000370A860005308701810237084C2437
:1003F0008131FE292000370847248131210053082C
:10040000023A031D322A6A08023A031D092AD3015F
:10041000322A6B080F390A3A031D262A6B0E03395C
:10042000033A0319072AF030EB056B0E033920005D
:10043000B400B40AB40E21006B0820003406CF3992
:1004400034062100EB00D301D30A322A93258131EF
:1004500034302000B500F130B400B40B2D2AB50BB8
:100460002D2A00322100530B0800EC08031D080060
:100470006B080F392000B4000A303402031C462AEE
:10048000F0302100EB050230D3000800B60108244B
:1004900081312100EC08031D502A20004B1C632AE7
:1004A00034302000B500F130B400B40B552AB50B40
:1004B000552A003220000B30B60A3602031C472AA8
:1004C0002100932508000B12B1250B16080020000F
:1004D000A1000E132108BD2381311324A2000E17A1
:1004E000080022000C128E1403302000AC000830EB
:1004F000AB007830AA00AA0B7B2AAB0B7B2AAC0B93
:100500007B2A22000C1603302000AC000830AB0020
:100510007830AA00AA0B8A2AAB0B8A2AAC0B8A2A4B
:1005200022000E168C166C3087310A0082312000B2
:10053000A3006F30812381317523813120000C1994
:100540000800A42281319E2A082481314B08FF3AF9
:10055000031DAE2A4C08FF3A03190034CB1ABA2AFD
:10056000C62A73238131A90073238131A900752321
:100570008131C62A21006C08003A0319B12A013AD8
:100580000319B12A033A0319C62AC62A2000CB1B35
:100590005D2B692B73238131A900CC1BD22A7523D3
:1005A0008131692B2100A108031DD82AA130DC2A42
:1005B000BA08031DCF2ABA30A000200A860087019E
:1005C000AB258131163E860081012008860003306C
:1005D0008100EC01EC0AED01192B73238131A90094
:1005E000CC1BF92A210020088600043087018100F5
:1005F000CF2A2100200A860087016D080106031D0D
:100600000F2B2008163E8600AB2581318600043072
:1006100081007523813122000E150E11692B6D08A2
:1006200020072000A800280A8600870129088100E9
:100630002100ED0A692BED0A6D085406031D4C2BB1
:100640003130ED004C2B2D306E238131692BD430AD
:100650006E238131FF302100ED00692B6D08D43EFF
:100660008600870101086E238131692B69086E239A
:100670008131692B00306E238131692B00306E236C
:10068000813175238131F030EB056A0B4A2B023042
:10069000D300692BD301692B6D08313A0319362B2E
:1006A000033A03193A2B013A03193E2B573A03191F
:1006B000232B013A0319272B2E2B21006C08003A1B
:1006C0000319CA2A013A0319ED2A033A03191B2B0D
:1006D000692B20000C0C890C013908002000A300B4
:1006E000A100B830B42BB030672A6D3087310A00D2
:1006F00083312000A3008F3081232100EC01ED0124
:100700000800A600A701A701230827020318080074
:100710002708A400A4352608240787310A0083315E
:10072000553A031D9D2B3430A500F130A400A40BD5
:10073000972BA50B972B0032B12B2708A400A435CB
:1007400026082407013E87310A00A1002708A500DA
:10075000A5352608250787310A0083318331B42364
:1007600081312000A70A842BA2000E132208BD238A
:1007700081312108BD230E170800A000A01FC22B45
:100780008D17C32B8D138E17000020008E13201F92
:10079000CB2B8D17CC2B8D138E17000020008E13C2
:1007A000A01ED42B8D17D52B8D138E170000200083
:1007B0008E13201EDD2B8D17DE2B8D138E17000060
:1007C00020008E13A01DE62B8D17E72B8D138E179F
:1007D000000020008E13201DEF2B8D17F02B8D13A2
:1007E0008E17000020008E13A01CF82B8D17F92BFC
:1007F0008D138E17000020008E13201C012C8D17E6
:10080000022C8D138E17000020008E138D1308000C
:100810000B1220000E1313248131CB001324CC00C3
:100820000E170B160800A0018D138E1AA0178E1735
:10083000000020008E138E1A20178E170000200053
:100840008E138E1AA0168E17000020008E138E1A9B
:1008500020168E17000020008E138E1AA0158E17FA
:10086000000020008E138E1A20158E170000200025
:100870008E138E1AA0148E17000020008E138E1A6D
:1008800020148E17000020008E1320080800A000FE
:100890008600870181010800B300B201B1017F2CFD
:1008A0003308073E86008701210069080106031D01
:1008B0009A2C20003308063E8600210057080106C6
:1008C000031D9A2C0230EA009A2C3308063E86005B
:1008D0000230870181002000B201B20A9A2CB101D6
:1008E000B10A9A2C3308AA2481316B2C3308803149
:1008F0002D2081316B2C3308DE2481316B2C3308A1
:10090000043E860087010108A03A0319652C013ACC
:100910000319502C033A03196F2C013A03199A2C2E
:10092000633A0319722C013A0319762C033A03191E
:100930007B2C9A2C200032080319A32CA001A00ABA
:10094000A1013308122D31080319A82C3308582DA2
:100950003308472CA800063E860087010108840062
:10096000083004020318080087310435A33E8200D2
:100970000800280A86000530870181002808073E04
:10098000860081012808083E86008101810AA401B1
:10099000A5012808093EA6000230A70081310829D8
:1009A000280A8600023087018100A400A5012808DA
:1009B000073EA600A701A70A81310829AA002A0A32
:1009C00086001030870181002A08093E86002A0827
:1009D000083E840085010008A9000108A800290834
:1009E000A5002808A4002A080E3EA6000830A7008B
:1009F0008131082921002108043A031901343A08F9
:100A0000043A0319013400342108043A031D0B2D64
:100A10000530A100A1343A08043A031D0034053022
:100A2000BA00BA34A5003330A301A03E2506031D49
:100A3000222D200803191F2D2508A1258131782595
:100A4000E901080021005308031D080020002008C8
:100A500003192D2D2508A12581317825813120000C
:100A6000250886008101A4012408D43E8600870160
:100A700024082507A200220A8400850100088100BD
:100A80001530A40A2402031C342DA401250A860073
:100A90008701010824020318542D2408D43E86003F
:100AA0000108A306A40A462D23082100E900080036
:100AB000A600063E860087012608043E84008501C4
:100AC000000881002608073E86002608163E84009E
:100AD000000881002608043E8600A1308100260A15
:100AE000860002308100A001A00AA1012608122D73
:100AF0002508023E8600870121006E088100200043
:100B0000250A8600053081072100F030D301D30A81
:100B1000EB05CF30EB052000210300300319013035
:100B20002100EA0008006B080F392000B400B40A65
:100B300021006B0820003406F03934062100EB0058
:100B40000800033E860087012508023E84008501D7
:100B500000088100080020002908810021002008E9
:100B600008006E3087310A008531A3009B30812355
:100B700002302100EC006330ED000800F10020009D
:100B80000E13710820278531B026F2000E170800D9
:100B9000A52685314B08FF3A031DD22D4C08FF3A9C
:100BA00003190034CB1ADE2DEA2D97268531F90082
:100BB00097268531F9009A268531EA2D21006C08A7
:100BC000003A0319D52D013A0319D52D033A03191B
:100BD000EA2DEA2D2000CB1B812E8D2E9726853104
:100BE000F900CC1BF62D9A2685318D2E2100A10807
:100BF000031DFC2DA130002EBA08031DF32DBA30C1
:100C0000A000200A86008701790881002008163E8E
:100C1000860081012008860003308100EC01EC0A87
:100C2000ED013D2E97268531F900CC1B1E2E2100AB
:100C300020088600043087018100F32D2100200A5E
:100C4000860087016D080106031D352E2008163E1B
:100C500086007908810020088600043081009A26E9
:100C6000853122000E150E118D2E6D082007F8001B
:100C7000780A8600870179088100ED0A8D2EED0A39
:100C80006D085406031D702E3130ED00702E2D308E
:100C9000922685318D2ED43092268531FF30210069
:100CA000ED008D2E6D08D43E860087010108922646
:100CB00085318D2E6908922685318D2E0030922641
:100CC00085318D2E0030922685319A268531F0307F
:100CD000EB056A0B6E2E0230D3008D2ED3018D2EC4
:100CE0006D08313A03195A2E033A03195E2E013A60
:100CF0000319622E573A0319472E013A03194B2E56
:100D0000522E21006C08003A0319EE2D013A031906
:100D1000122E033A03193F2E8D2E20000C0C890C45
:100D200001390800F300F100B83016270800B03090
:100D3000BE2508006D3087310A008631F3008F3000
:100D4000E4262100EC01ED0108000B1220000E1337
:100D5000B0268531CB00B026CC000E170B1608004C
:100D6000F0018D138E1AF0178E17000020008E13DD
:100D70008E1A70178E17000020008E138E1AF01630
:100D80008E17000020008E138E1A70168E1700002A
:100D900020008E138E1AF0158E17000020008E137F
:100DA0008E1A70158E17000020008E138E1AF01404
:100DB0008E17000020008E138E1A70148E170000FC
:100DC00020008E1370080800F600F701F701730881
:100DD0007702031808007708F400F43576087407E2
:100DE00087310A008631553A031D002F3430F50053
:100DF000F130F400F40BFA2EF50BFA2E0032142F1A
:100E00007708F400F43576087407013E87310A004C
:100E1000F1007708F500F5357608750787310A0087
:100E20008731873116278531F70AE72EF200200037
:100E30000E13720820278531710820270E1708002D
:100E4000F000F01F252F8D17262F8D138E17000011
:100E500020008E13701F2E2F8D172F2F8D138E179E
:100E6000000020008E13F01E372F8D17382F8D13A2
:100E70008E17000020008E13701E402F8D17412FFB
:100E80008D138E17000020008E13F01D492F8D1733
:100E90004A2F8D138E17000020008E13701D522FC5
:100EA0008D17532F8D138E17000020008E13F01C0A
:100EB0005B2F8D175C2F8D138E17000020008E1373
:100EC000701C642F8D17652F8D138E170000200066
:100ED0008E138D1308000034103406340434CA34E1
:100EE0007134CA34733480342834C434E734A834B9
:100EF0006034C6340534823400349034623498341B
:100F00009034C234AC3482342034553400348234CA
:100F1000803480346834CA347134CA3473348234CF
:100F20000034CA34713480342834823480348034BC
:100F30006834CA34733482340034CA34713480342F
:100F4000A834823420348431B82C8431B92C8431D3
:100F5000D02C8431B82C8431B82C8431B82C843115
:100F6000B82C8431B82C640080010131890BB42F76
:100F70000034FF3FFF3FFF3FFF3FFF3FFF3FFF3F8B
:020000040001F9
:04000E00E4F9FFFF13
:00000001FF
